{
  "deployments": [
    {
      "transactions": [
        {
          "hash": "0xc6c02b3cce0f4c769bd8f4bb704ae2c8b95038213edb9269a2f9494a8b505b6e",
          "transactionType": "CREATE",
          "contractName": "SmartDisperse",
          "contractAddress": "0xb7f8bc63bbcad18155201308c8f3540b07f84f5e",
          "function": null,
          "arguments": null,
          "transaction": {
            "from": "0xf39fd6e51aad88f6f4ce6ab8827279cfffb92266",
            "gas": "0xce917",
            "value": "0x0",
            "input": "0x60806040525f80546001600160a01b0319167342000000000000000000000000000000000000231790553480156033575f80fd5b50610a63806100415f395ff3fe608060405234801561000f575f80fd5b5060043610610034575f3560e01c8063afddb54514610038578063fefea5811461004d575b5f80fd5b61004b6100463660046106aa565b610060565b005b61004b61005b3660046107f4565b6102e7565b5f546001600160a01b03163314610089576040516265d51560e41b815260040160405180910390fd5b5f546040805163071ffbc360e31b8152905130926001600160a01b0316916338ffde189160048083019260209291908290030181865afa1580156100cf573d5f803e3d5ffd5b505050506040513d601f19601f820116820180604052508101906100f3919061087a565b6001600160a01b03161461011a57604051635e11715560e11b815260040160405180910390fd5b5f805b82515181101561023b578260200151818151811061013d5761013d61089c565b60200260200101518261015091906108b0565b91505f83604001516001600160a01b031663a9059cbb855f0151848151811061017b5761017b61089c565b6020026020010151866020015185815181106101995761019961089c565b60200260200101516040518363ffffffff1660e01b81526004016101d29291906001600160a01b03929092168252602082015260400190565b6020604051808303815f875af11580156101ee573d5f803e3d5ffd5b505050506040513d601f19601f8201168201806040525081019061021291906108d5565b905080610232576040516312171d8360e31b815260040160405180910390fd5b5060010161011d565b505f546040805163123ca23160e11b8152905146926001600160a01b03169163247944629160048083019260209291908290030181865afa158015610282573d5f803e3d5ffd5b505050506040513d601f19601f820116820180604052508101906102a691906108f4565b7f8d2fa7456103cc6e98a7598c430974c51363c67c6688f6b78e1b152a56f56e3984606001516040516102db91815260200190565b60405180910390a35050565b8382146103335760405162461bcd60e51b8152602060048201526016602482015275082e4e4c2f2e640d8cadccee8d040dad2e6dac2e8c6d60531b604482015260640160405180910390fd5b5f805b8381101561036c578484828181106103505761035061089c565b905060200201358261036291906108b0565b9150600101610336565b506040516323b872dd60e01b8152336004820152306024820152604481018290525f906001600160a01b038416906323b872dd906064016020604051808303815f875af11580156103bf573d5f803e3d5ffd5b505050506040513d601f19601f820116820180604052508101906103e391906108d5565b905080610403576040516312171d8360e31b815260040160405180910390fd5b6040805160a0602089028083018201909352608082018981525f9383928c918c918291908601908490808284375f9201919091525050509082525060408051602089810282810182019093528982529283019290918a918a9182918501908490808284375f9201829052509385525050506001600160a01b0380881660208401526040928301879052905491519293501690637056f41f908b903090819063afddb545906104b5908890602401610945565b60408051808303601f1901815291815260208201805160e094851b6001600160e01b03909116179052519186901b6001600160e01b03191682526104ff94939250906004016109e2565b6020604051808303815f875af115801561051b573d5f803e3d5ffd5b505050506040513d601f19601f8201168201806040525081019061053f91906108f4565b5088467f28c1960b85c2cea008c0b366ad2b9887b76699b377fb5071fb56afc6c09fe3208560405161057391815260200190565b60405180910390a3505050505050505050565b634e487b7160e01b5f52604160045260245ffd5b6040516080810167ffffffffffffffff811182821017156105bd576105bd610586565b60405290565b604051601f8201601f1916810167ffffffffffffffff811182821017156105ec576105ec610586565b604052919050565b5f67ffffffffffffffff82111561060d5761060d610586565b5060051b60200190565b6001600160a01b038116811461062b575f80fd5b50565b803561063981610617565b919050565b5f82601f83011261064d575f80fd5b8135602061066261065d836105f4565b6105c3565b8083825260208201915060208460051b870101935086841115610683575f80fd5b602086015b8481101561069f5780358352918301918301610688565b509695505050505050565b5f60208083850312156106bb575f80fd5b823567ffffffffffffffff808211156106d2575f80fd5b90840190608082870312156106e5575f80fd5b6106ed61059a565b8235828111156106fb575f80fd5b8301601f8101881361070b575f80fd5b803561071961065d826105f4565b81815260059190911b8201860190868101908a831115610737575f80fd5b928701925b8284101561075e57833561074f81610617565b8252928701929087019061073c565b84525050508284013582811115610773575f80fd5b61077f8882860161063e565b85830152506107906040840161062e565b6040820152606083013560608201528094505050505092915050565b5f8083601f8401126107bc575f80fd5b50813567ffffffffffffffff8111156107d3575f80fd5b6020830191508360208260051b85010111156107ed575f80fd5b9250929050565b5f805f805f8060808789031215610809575f80fd5b86359550602087013567ffffffffffffffff80821115610827575f80fd5b6108338a838b016107ac565b9097509550604089013591508082111561084b575f80fd5b5061085889828a016107ac565b909450925050606087013561086c81610617565b809150509295509295509295565b5f6020828403121561088a575f80fd5b815161089581610617565b9392505050565b634e487b7160e01b5f52603260045260245ffd5b808201808211156108cf57634e487b7160e01b5f52601160045260245ffd5b92915050565b5f602082840312156108e5575f80fd5b81518015158114610895575f80fd5b5f60208284031215610904575f80fd5b5051919050565b5f815180845260208085019450602084015f5b8381101561093a5781518752958201959082019060010161091e565b509495945050505050565b60208082528251608083830152805160a084018190525f9291820190839060c08601905b808310156109925783516001600160a01b03168252928401926001929092019190840190610969565b5092860151858403601f19016040870152926109ae818561090b565b935050505060408401516109cd60608501826001600160a01b03169052565b50606084015160808401528091505092915050565b83815260018060a01b0383166020820152606060408201525f82518060608401528060208501608085015e5f608082850101526080601f19601f83011684010191505094935050505056fea2646970667358221220487e1355a2e3875b1aae068c1632e7489d20813b4eb10e47eef7043b5ac4360264736f6c63430008190033",
            "nonce": "0xb",
            "chainId": "0x385"
          },
          "additionalContracts": [],
          "isFixedGasLimit": false
        }
      ],
      "receipts": [
        {
          "status": "0x1",
          "cumulativeGasUsed": "0x9ee61",
          "logs": [],
          "logsBloom": "0x00000000000000000000000000000000000000000000000000000000000000000000000000000000000000000000000000000000000000000000000000000000000000000000000000000000000000000000000000000000000000000000000000000000000000000000000000000000000000000000000000000000000000000000000000000000000000000000000000000000000000000000000000000000000000000000000000000000000000000000000000000000000000000000000000000000000000000000000000000000000000000000000000000000000000000000000000000000000000000000000000000000000000000000000000000000",
          "type": "0x2",
          "transactionHash": "0xc6c02b3cce0f4c769bd8f4bb704ae2c8b95038213edb9269a2f9494a8b505b6e",
          "transactionIndex": "0x0",
          "blockHash": "0xe91f38fe910ae09791023662073910b1edd03f985acac3c9b373af7ea90f8109",
          "blockNumber": "0x246",
          "gasUsed": "0x9ee61",
          "effectiveGasPrice": "0x8",
          "blobGasPrice": "0x1",
          "from": "0xf39fd6e51aad88f6f4ce6ab8827279cfffb92266",
          "to": null,
          "contractAddress": "0xb7f8bc63bbcad18155201308c8f3540b07f84f5e"
        }
      ],
      "libraries": [],
      "pending": [],
      "returns": {},
      "timestamp": 1732702511,
      "chain": 901,
      "commit": "8a335fb"
    },
    {
      "transactions": [
        {
          "hash": "0x5ebf6b486fe464fb859ca67a37bae17d9efbb3ad73de5f2713bc6c7955312ede",
          "transactionType": "CREATE",
          "contractName": "SmartDisperse",
          "contractAddress": "0x9fe46736679d2d9a65f0992f2272de9f3c7fa6e0",
          "function": null,
          "arguments": null,
          "transaction": {
            "from": "0xf39fd6e51aad88f6f4ce6ab8827279cfffb92266",
            "gas": "0xce917",
            "value": "0x0",
            "input": "0x60806040525f80546001600160a01b0319167342000000000000000000000000000000000000231790553480156033575f80fd5b50610a63806100415f395ff3fe608060405234801561000f575f80fd5b5060043610610034575f3560e01c8063afddb54514610038578063fefea5811461004d575b5f80fd5b61004b6100463660046106aa565b610060565b005b61004b61005b3660046107f4565b6102e7565b5f546001600160a01b03163314610089576040516265d51560e41b815260040160405180910390fd5b5f546040805163071ffbc360e31b8152905130926001600160a01b0316916338ffde189160048083019260209291908290030181865afa1580156100cf573d5f803e3d5ffd5b505050506040513d601f19601f820116820180604052508101906100f3919061087a565b6001600160a01b03161461011a57604051635e11715560e11b815260040160405180910390fd5b5f805b82515181101561023b578260200151818151811061013d5761013d61089c565b60200260200101518261015091906108b0565b91505f83604001516001600160a01b031663a9059cbb855f0151848151811061017b5761017b61089c565b6020026020010151866020015185815181106101995761019961089c565b60200260200101516040518363ffffffff1660e01b81526004016101d29291906001600160a01b03929092168252602082015260400190565b6020604051808303815f875af11580156101ee573d5f803e3d5ffd5b505050506040513d601f19601f8201168201806040525081019061021291906108d5565b905080610232576040516312171d8360e31b815260040160405180910390fd5b5060010161011d565b505f546040805163123ca23160e11b8152905146926001600160a01b03169163247944629160048083019260209291908290030181865afa158015610282573d5f803e3d5ffd5b505050506040513d601f19601f820116820180604052508101906102a691906108f4565b7f8d2fa7456103cc6e98a7598c430974c51363c67c6688f6b78e1b152a56f56e3984606001516040516102db91815260200190565b60405180910390a35050565b8382146103335760405162461bcd60e51b8152602060048201526016602482015275082e4e4c2f2e640d8cadccee8d040dad2e6dac2e8c6d60531b604482015260640160405180910390fd5b5f805b8381101561036c578484828181106103505761035061089c565b905060200201358261036291906108b0565b9150600101610336565b506040516323b872dd60e01b8152336004820152306024820152604481018290525f906001600160a01b038416906323b872dd906064016020604051808303815f875af11580156103bf573d5f803e3d5ffd5b505050506040513d601f19601f820116820180604052508101906103e391906108d5565b905080610403576040516312171d8360e31b815260040160405180910390fd5b6040805160a0602089028083018201909352608082018981525f9383928c918c918291908601908490808284375f9201919091525050509082525060408051602089810282810182019093528982529283019290918a918a9182918501908490808284375f9201829052509385525050506001600160a01b0380881660208401526040928301879052905491519293501690637056f41f908b903090819063afddb545906104b5908890602401610945565b60408051808303601f1901815291815260208201805160e094851b6001600160e01b03909116179052519186901b6001600160e01b03191682526104ff94939250906004016109e2565b6020604051808303815f875af115801561051b573d5f803e3d5ffd5b505050506040513d601f19601f8201168201806040525081019061053f91906108f4565b5088467f28c1960b85c2cea008c0b366ad2b9887b76699b377fb5071fb56afc6c09fe3208560405161057391815260200190565b60405180910390a3505050505050505050565b634e487b7160e01b5f52604160045260245ffd5b6040516080810167ffffffffffffffff811182821017156105bd576105bd610586565b60405290565b604051601f8201601f1916810167ffffffffffffffff811182821017156105ec576105ec610586565b604052919050565b5f67ffffffffffffffff82111561060d5761060d610586565b5060051b60200190565b6001600160a01b038116811461062b575f80fd5b50565b803561063981610617565b919050565b5f82601f83011261064d575f80fd5b8135602061066261065d836105f4565b6105c3565b8083825260208201915060208460051b870101935086841115610683575f80fd5b602086015b8481101561069f5780358352918301918301610688565b509695505050505050565b5f60208083850312156106bb575f80fd5b823567ffffffffffffffff808211156106d2575f80fd5b90840190608082870312156106e5575f80fd5b6106ed61059a565b8235828111156106fb575f80fd5b8301601f8101881361070b575f80fd5b803561071961065d826105f4565b81815260059190911b8201860190868101908a831115610737575f80fd5b928701925b8284101561075e57833561074f81610617565b8252928701929087019061073c565b84525050508284013582811115610773575f80fd5b61077f8882860161063e565b85830152506107906040840161062e565b6040820152606083013560608201528094505050505092915050565b5f8083601f8401126107bc575f80fd5b50813567ffffffffffffffff8111156107d3575f80fd5b6020830191508360208260051b85010111156107ed575f80fd5b9250929050565b5f805f805f8060808789031215610809575f80fd5b86359550602087013567ffffffffffffffff80821115610827575f80fd5b6108338a838b016107ac565b9097509550604089013591508082111561084b575f80fd5b5061085889828a016107ac565b909450925050606087013561086c81610617565b809150509295509295509295565b5f6020828403121561088a575f80fd5b815161089581610617565b9392505050565b634e487b7160e01b5f52603260045260245ffd5b808201808211156108cf57634e487b7160e01b5f52601160045260245ffd5b92915050565b5f602082840312156108e5575f80fd5b81518015158114610895575f80fd5b5f60208284031215610904575f80fd5b5051919050565b5f815180845260208085019450602084015f5b8381101561093a5781518752958201959082019060010161091e565b509495945050505050565b60208082528251608083830152805160a084018190525f9291820190839060c08601905b808310156109925783516001600160a01b03168252928401926001929092019190840190610969565b5092860151858403601f19016040870152926109ae818561090b565b935050505060408401516109cd60608501826001600160a01b03169052565b50606084015160808401528091505092915050565b83815260018060a01b0383166020820152606060408201525f82518060608401528060208501608085015e5f608082850101526080601f19601f83011684010191505094935050505056fea2646970667358221220487e1355a2e3875b1aae068c1632e7489d20813b4eb10e47eef7043b5ac4360264736f6c63430008190033",
            "nonce": "0x2",
            "chainId": "0x386"
          },
          "additionalContracts": [],
          "isFixedGasLimit": false
        }
      ],
      "receipts": [
        {
          "status": "0x1",
          "cumulativeGasUsed": "0x9ee61",
          "logs": [],
          "logsBloom": "0x00000000000000000000000000000000000000000000000000000000000000000000000000000000000000000000000000000000000000000000000000000000000000000000000000000000000000000000000000000000000000000000000000000000000000000000000000000000000000000000000000000000000000000000000000000000000000000000000000000000000000000000000000000000000000000000000000000000000000000000000000000000000000000000000000000000000000000000000000000000000000000000000000000000000000000000000000000000000000000000000000000000000000000000000000000000",
          "type": "0x2",
          "transactionHash": "0x5ebf6b486fe464fb859ca67a37bae17d9efbb3ad73de5f2713bc6c7955312ede",
          "transactionIndex": "0x0",
          "blockHash": "0xd18657948cfee24676e2f9262a09b5d13f887e6c09ea3d737ef7fb43c8bbc6d6",
          "blockNumber": "0x247",
          "gasUsed": "0x9ee61",
          "effectiveGasPrice": "0x8",
          "blobGasPrice": "0x1",
          "from": "0xf39fd6e51aad88f6f4ce6ab8827279cfffb92266",
          "to": null,
          "contractAddress": "0x9fe46736679d2d9a65f0992f2272de9f3c7fa6e0"
        }
      ],
      "libraries": [],
      "pending": [],
      "returns": {},
      "timestamp": 1732702511,
      "chain": 902,
      "commit": "8a335fb"
    },
    {
      "transactions": [
        {
          "hash": "0xef2e18f3f1d8d5eb0bab663a07bea8e46553d2201102d2c66786f6651cb50eb6",
          "transactionType": "CALL",
          "contractName": null,
          "contractAddress": "0x4200000000000000000000000000000000000024",
          "function": "approve(address,uint256)",
          "arguments": [
            "0xB7f8BC63BbcaD18155201308C8f3540b07f84F5e",
            "3000000000000000000"
          ],
          "transaction": {
            "from": "0xf39fd6e51aad88f6f4ce6ab8827279cfffb92266",
            "to": "0x4200000000000000000000000000000000000024",
            "gas": "0x1240c",
            "value": "0x0",
            "input": "0x095ea7b3000000000000000000000000b7f8bc63bbcad18155201308c8f3540b07f84f5e00000000000000000000000000000000000000000000000029a2241af62c0000",
            "nonce": "0xc",
            "chainId": "0x385"
          },
          "additionalContracts": [],
          "isFixedGasLimit": false
        },
        {
          "hash": "0xd07d7cf7feb7c3a77c9dcfdd0720da640b16693cd9305503d96e7345e1ea67a0",
          "transactionType": "CALL",
          "contractName": "SmartDisperse",
          "contractAddress": "0xb7f8bc63bbcad18155201308c8f3540b07f84f5e",
          "function": "transferTokensTo(uint256,address[],uint256[],address)",
          "arguments": [
            "902",
            "[0x70997970C51812dc3A010C7d01b50e0d17dc79C8, 0x3C44CdDdB6a900fa2b585dd299e03d12FA4293BC]",
            "[1000000000000000000, 2000000000000000000]",
            "0x4200000000000000000000000000000000000024"
          ],
          "transaction": {
            "from": "0xf39fd6e51aad88f6f4ce6ab8827279cfffb92266",
            "to": "0xb7f8bc63bbcad18155201308c8f3540b07f84f5e",
            "gas": "0x1e488",
            "value": "0x0",
            "input": "0xfefea5810000000000000000000000000000000000000000000000000000000000000386000000000000000000000000000000000000000000000000000000000000008000000000000000000000000000000000000000000000000000000000000000e00000000000000000000000004200000000000000000000000000000000000024000000000000000000000000000000000000000000000000000000000000000200000000000000000000000070997970c51812dc3a010c7d01b50e0d17dc79c80000000000000000000000003c44cdddb6a900fa2b585dd299e03d12fa4293bc00000000000000000000000000000000000000000000000000000000000000020000000000000000000000000000000000000000000000000de0b6b3a76400000000000000000000000000000000000000000000000000001bc16d674ec80000",
            "nonce": "0xd",
            "chainId": "0x385"
          },
          "additionalContracts": [],
          "isFixedGasLimit": false
        }
      ],
      "receipts": [
        {
          "status": "0x1",
          "cumulativeGasUsed": "0xc7b1",
          "logs": [
            {
              "address": "0x4200000000000000000000000000000000000024",
              "topics": [
                "0x8c5be1e5ebec7d5bd14f71427d1e84f3dd0314c0f7b2291e5b200ac8c7c3b925",
                "0x000000000000000000000000f39fd6e51aad88f6f4ce6ab8827279cfffb92266",
                "0x000000000000000000000000b7f8bc63bbcad18155201308c8f3540b07f84f5e"
              ],
              "data": "0x00000000000000000000000000000000000000000000000029a2241af62c0000",
              "blockHash": "0x5c147cd0e6a27f4b8fb170c24765a0e4bb8e175d3d2cc517a6073ade1e2ee2dd",
              "blockNumber": "0x248",
              "blockTimestamp": "0x6746f134",
              "transactionHash": "0xef2e18f3f1d8d5eb0bab663a07bea8e46553d2201102d2c66786f6651cb50eb6",
              "transactionIndex": "0x0",
              "logIndex": "0x0",
              "removed": false
            }
          ],
          "logsBloom": "0x00000000000000000000000000000000000000000000000000000000000000800000000002000000000000000000000000000000000000000000000000200000000000000000000000000002000000000000000000000000000000000000000000000000000000000000000100000000000000000000000000000400000000000000000000000000020000000004000000000000000000000000000000000000020000000000000000000000000000000000000000000000000000000000000000000000000000200000000000000000000000002000000000000000000000000010000000000000000000000000000000000000000000000000000000000000",
          "type": "0x2",
          "transactionHash": "0xef2e18f3f1d8d5eb0bab663a07bea8e46553d2201102d2c66786f6651cb50eb6",
          "transactionIndex": "0x0",
          "blockHash": "0x5c147cd0e6a27f4b8fb170c24765a0e4bb8e175d3d2cc517a6073ade1e2ee2dd",
          "blockNumber": "0x248",
          "gasUsed": "0xc7b1",
          "effectiveGasPrice": "0x8",
          "blobGasPrice": "0x1",
          "from": "0xf39fd6e51aad88f6f4ce6ab8827279cfffb92266",
          "to": "0x4200000000000000000000000000000000000024",
          "contractAddress": null
        },
        {
          "status": "0x1",
          "cumulativeGasUsed": "0x2267d",
          "logs": [
            {
              "address": "0x4200000000000000000000000000000000000024",
              "topics": [
                "0xddf252ad1be2c89b69c2b068fc378daa952ba7f163c4a11628f55a4df523b3ef",
                "0x000000000000000000000000f39fd6e51aad88f6f4ce6ab8827279cfffb92266",
                "0x000000000000000000000000b7f8bc63bbcad18155201308c8f3540b07f84f5e"
              ],
              "data": "0x00000000000000000000000000000000000000000000000029a2241af62c0000",
              "blockHash": "0x5c147cd0e6a27f4b8fb170c24765a0e4bb8e175d3d2cc517a6073ade1e2ee2dd",
              "blockNumber": "0x248",
              "blockTimestamp": "0x6746f134",
              "transactionHash": "0xd07d7cf7feb7c3a77c9dcfdd0720da640b16693cd9305503d96e7345e1ea67a0",
              "transactionIndex": "0x1",
              "logIndex": "0x1",
              "removed": false
            },
            {
              "address": "0x4200000000000000000000000000000000000023",
              "topics": [
                "0x382409ac69001e11931a28435afef442cbfd20d9891907e8fa373ba7d351f320",
                "0x0000000000000000000000000000000000000000000000000000000000000386",
                "0x000000000000000000000000b7f8bc63bbcad18155201308c8f3540b07f84f5e",
                "0x0000000000000000000000000000000000000000000000000000000000000003"
              ],
              "data": "0x000000000000000000000000b7f8bc63bbcad18155201308c8f3540b07f84f5e00000000000000000000000000000000000000000000000000000000000000400000000000000000000000000000000000000000000000000000000000000164afddb5450000000000000000000000000000000000000000000000000000000000000020000000000000000000000000000000000000000000000000000000000000008000000000000000000000000000000000000000000000000000000000000000e0000000000000000000000000420000000000000000000000000000000000002400000000000000000000000000000000000000000000000029a2241af62c0000000000000000000000000000000000000000000000000000000000000000000200000000000000000000000070997970c51812dc3a010c7d01b50e0d17dc79c80000000000000000000000003c44cdddb6a900fa2b585dd299e03d12fa4293bc00000000000000000000000000000000000000000000000000000000000000020000000000000000000000000000000000000000000000000de0b6b3a76400000000000000000000000000000000000000000000000000001bc16d674ec8000000000000000000000000000000000000000000000000000000000000",
              "blockHash": "0x5c147cd0e6a27f4b8fb170c24765a0e4bb8e175d3d2cc517a6073ade1e2ee2dd",
              "blockNumber": "0x248",
              "blockTimestamp": "0x6746f134",
              "transactionHash": "0xd07d7cf7feb7c3a77c9dcfdd0720da640b16693cd9305503d96e7345e1ea67a0",
              "transactionIndex": "0x1",
              "logIndex": "0x2",
              "removed": false
            },
            {
              "address": "0xb7f8bc63bbcad18155201308c8f3540b07f84f5e",
              "topics": [
                "0x28c1960b85c2cea008c0b366ad2b9887b76699b377fb5071fb56afc6c09fe320",
                "0x0000000000000000000000000000000000000000000000000000000000000385",
                "0x0000000000000000000000000000000000000000000000000000000000000386"
              ],
              "data": "0x00000000000000000000000000000000000000000000000029a2241af62c0000",
              "blockHash": "0x5c147cd0e6a27f4b8fb170c24765a0e4bb8e175d3d2cc517a6073ade1e2ee2dd",
              "blockNumber": "0x248",
              "blockTimestamp": "0x6746f134",
              "transactionHash": "0xd07d7cf7feb7c3a77c9dcfdd0720da640b16693cd9305503d96e7345e1ea67a0",
              "transactionIndex": "0x1",
              "logIndex": "0x3",
              "removed": false
            }
          ],
          "logsBloom": "0x2000000010000002000000000000000000000000004000000000000000000080000000000200000000000000000000000000000002004000000800000000000000000000000000000200000a000000000000800000000100000000000000000000000000000000000040000100000000000000000000000000000410000000000000800000000000020000000004000000000000000000000000001000000000040000000000000000000002000000000000010000800000000000000000400000000002000000200000000000000000000000102000000000000000000000000000000000000000000000001800000000000000000000000000000000000000",
          "type": "0x2",
          "transactionHash": "0xd07d7cf7feb7c3a77c9dcfdd0720da640b16693cd9305503d96e7345e1ea67a0",
          "transactionIndex": "0x1",
          "blockHash": "0x5c147cd0e6a27f4b8fb170c24765a0e4bb8e175d3d2cc517a6073ade1e2ee2dd",
          "blockNumber": "0x248",
          "gasUsed": "0x15ecc",
          "effectiveGasPrice": "0x8",
          "blobGasPrice": "0x1",
          "from": "0xf39fd6e51aad88f6f4ce6ab8827279cfffb92266",
          "to": "0xb7f8bc63bbcad18155201308c8f3540b07f84f5e",
          "contractAddress": null
        }
      ],
      "libraries": [],
      "pending": [],
      "returns": {},
      "timestamp": 1732702511,
      "chain": 901,
      "commit": "8a335fb"
    }
  ],
  "timestamp": 1732702516
}