{
  "deployments": [
    {
      "transactions": [
        {
          "hash": "0xb36eb84e95176c304a25803d0be66d1aa8ff190c558dd45cb431cd5ceeca343f",
          "transactionType": "CREATE2",
          "contractName": "SmartDisperse",
          "contractAddress": "0x9d35e74f09c30f9d4d9b866e83a8cfa708049a0c",
          "function": null,
          "arguments": null,
          "transaction": {
            "from": "0xf39fd6e51aad88f6f4ce6ab8827279cfffb92266",
            "to": "0x4e59b44847b379578588920ca78fbf26c0b4956c",
            "gas": "0xebad5",
            "value": "0x0",
            "input": "0x736d61727464697370657273650000000000000000000000000000000000000060806040525f80546001600160a01b0319167342000000000000000000000000000000000000231790553480156033575f80fd5b50610a87806100415f395ff3fe608060405234801561000f575f80fd5b5060043610610034575f3560e01c8063afddb54514610038578063fefea5811461004d575b5f80fd5b61004b6100463660046106ce565b610060565b005b61004b61005b366004610818565b61030b565b5f546001600160a01b03163314610089576040516265d51560e41b815260040160405180910390fd5b5f546040805163071ffbc360e31b8152905130926001600160a01b0316916338ffde189160048083019260209291908290030181865afa1580156100cf573d5f803e3d5ffd5b505050506040513d601f19601f820116820180604052508101906100f3919061089e565b6001600160a01b03161461011a57604051635e11715560e11b815260040160405180910390fd5b5f805b82515181101561023b578260200151818151811061013d5761013d6108c0565b60200260200101518261015091906108d4565b91505f83604001516001600160a01b031663a9059cbb855f0151848151811061017b5761017b6108c0565b602002602001015186602001518581518110610199576101996108c0565b60200260200101516040518363ffffffff1660e01b81526004016101d29291906001600160a01b03929092168252602082015260400190565b6020604051808303815f875af11580156101ee573d5f803e3d5ffd5b505050506040513d601f19601f8201168201806040525081019061021291906108f9565b905080610232576040516312171d8360e31b815260040160405180910390fd5b5060010161011d565b50816060015181146102605760405163162908e360e11b815260040160405180910390fd5b5f546040805163123ca23160e11b8152905146926001600160a01b03169163247944629160048083019260209291908290030181865afa1580156102a6573d5f803e3d5ffd5b505050506040513d601f19601f820116820180604052508101906102ca9190610918565b7f8d2fa7456103cc6e98a7598c430974c51363c67c6688f6b78e1b152a56f56e3984606001516040516102ff91815260200190565b60405180910390a35050565b8382146103575760405162461bcd60e51b8152602060048201526016602482015275082e4e4c2f2e640d8cadccee8d040dad2e6dac2e8c6d60531b604482015260640160405180910390fd5b5f805b8381101561039057848482818110610374576103746108c0565b905060200201358261038691906108d4565b915060010161035a565b506040516323b872dd60e01b8152336004820152306024820152604481018290525f906001600160a01b038416906323b872dd906064016020604051808303815f875af11580156103e3573d5f803e3d5ffd5b505050506040513d601f19601f8201168201806040525081019061040791906108f9565b905080610427576040516312171d8360e31b815260040160405180910390fd5b6040805160a0602089028083018201909352608082018981525f9383928c918c918291908601908490808284375f9201919091525050509082525060408051602089810282810182019093528982529283019290918a918a9182918501908490808284375f9201829052509385525050506001600160a01b0380881660208401526040928301879052905491519293501690637056f41f908b903090819063afddb545906104d9908890602401610969565b60408051808303601f1901815291815260208201805160e094851b6001600160e01b03909116179052519186901b6001600160e01b03191682526105239493925090600401610a06565b6020604051808303815f875af115801561053f573d5f803e3d5ffd5b505050506040513d601f19601f820116820180604052508101906105639190610918565b5088467f28c1960b85c2cea008c0b366ad2b9887b76699b377fb5071fb56afc6c09fe3208560405161059791815260200190565b60405180910390a3505050505050505050565b634e487b7160e01b5f52604160045260245ffd5b6040516080810167ffffffffffffffff811182821017156105e1576105e16105aa565b60405290565b604051601f8201601f1916810167ffffffffffffffff81118282101715610610576106106105aa565b604052919050565b5f67ffffffffffffffff821115610631576106316105aa565b5060051b60200190565b6001600160a01b038116811461064f575f80fd5b50565b803561065d8161063b565b919050565b5f82601f830112610671575f80fd5b8135602061068661068183610618565b6105e7565b8083825260208201915060208460051b8701019350868411156106a7575f80fd5b602086015b848110156106c357803583529183019183016106ac565b509695505050505050565b5f60208083850312156106df575f80fd5b823567ffffffffffffffff808211156106f6575f80fd5b9084019060808287031215610709575f80fd5b6107116105be565b82358281111561071f575f80fd5b8301601f8101881361072f575f80fd5b803561073d61068182610618565b81815260059190911b8201860190868101908a83111561075b575f80fd5b928701925b828410156107825783356107738161063b565b82529287019290870190610760565b84525050508284013582811115610797575f80fd5b6107a388828601610662565b85830152506107b460408401610652565b6040820152606083013560608201528094505050505092915050565b5f8083601f8401126107e0575f80fd5b50813567ffffffffffffffff8111156107f7575f80fd5b6020830191508360208260051b8501011115610811575f80fd5b9250929050565b5f805f805f806080878903121561082d575f80fd5b86359550602087013567ffffffffffffffff8082111561084b575f80fd5b6108578a838b016107d0565b9097509550604089013591508082111561086f575f80fd5b5061087c89828a016107d0565b90945092505060608701356108908161063b565b809150509295509295509295565b5f602082840312156108ae575f80fd5b81516108b98161063b565b9392505050565b634e487b7160e01b5f52603260045260245ffd5b808201808211156108f357634e487b7160e01b5f52601160045260245ffd5b92915050565b5f60208284031215610909575f80fd5b815180151581146108b9575f80fd5b5f60208284031215610928575f80fd5b5051919050565b5f815180845260208085019450602084015f5b8381101561095e57815187529582019590820190600101610942565b509495945050505050565b60208082528251608083830152805160a084018190525f9291820190839060c08601905b808310156109b65783516001600160a01b0316825292840192600192909201919084019061098d565b5092860151858403601f19016040870152926109d2818561092f565b935050505060408401516109f160608501826001600160a01b03169052565b50606084015160808401528091505092915050565b83815260018060a01b0383166020820152606060408201525f82518060608401528060208501608085015e5f608082850101526080601f19601f83011684010191505094935050505056fea2646970667358221220d4b3fcd6e8a8ec2afaf833a5e429eea78c143e4e34cbeac319b2ce5e880d4e4764736f6c63430008190033",
            "nonce": "0x8",
            "chainId": "0x385"
          },
          "additionalContracts": [],
          "isFixedGasLimit": false
        },
        {
          "hash": "0x8e7a8957ed58deaeadfd22538ec26390529ae93d1f82c68effaf6042ba48e557",
          "transactionType": "CALL",
          "contractName": null,
          "contractAddress": "0x4200000000000000000000000000000000000024",
          "function": null,
          "arguments": null,
          "transaction": {
            "from": "0xf39fd6e51aad88f6f4ce6ab8827279cfffb92266",
            "to": "0x4200000000000000000000000000000000000024",
            "gas": "0xe878",
            "value": "0x8ac7230489e80000",
            "input": "0x",
            "nonce": "0x9",
            "chainId": "0x385"
          },
          "additionalContracts": [],
          "isFixedGasLimit": false
        }
      ],
      "receipts": [
        {
          "status": "0x1",
          "cumulativeGasUsed": "0xa1259",
          "logs": [],
          "logsBloom": "0x00000000000000000000000000000000000000000000000000000000000000000000000000000000000000000000000000000000000000000000000000000000000000000000000000000000000000000000000000000000000000000000000000000000000000000000000000000000000000000000000000000000000000000000000000000000000000000000000000000000000000000000000000000000000000000000000000000000000000000000000000000000000000000000000000000000000000000000000000000000000000000000000000000000000000000000000000000000000000000000000000000000000000000000000000000000",
          "type": "0x2",
          "transactionHash": "0xb36eb84e95176c304a25803d0be66d1aa8ff190c558dd45cb431cd5ceeca343f",
          "transactionIndex": "0x0",
          "blockHash": "0x0735de559e47edb66eaf5b4f811960392476a925d6412693f0825729ae477814",
          "blockNumber": "0x469",
          "gasUsed": "0xa1259",
          "effectiveGasPrice": "0x8",
          "blobGasPrice": "0x1",
          "from": "0xf39fd6e51aad88f6f4ce6ab8827279cfffb92266",
          "to": "0x4e59b44847b379578588920ca78fbf26c0b4956c",
          "contractAddress": null
        },
        {
          "status": "0x1",
          "cumulativeGasUsed": "0xabaa8",
          "logs": [
            {
              "address": "0x4200000000000000000000000000000000000024",
              "topics": [
                "0xe1fffcc4923d04b559f4d29a8bfc6cda04eb5b0d3c460751c2402c5c5cc9109c",
                "0x000000000000000000000000f39fd6e51aad88f6f4ce6ab8827279cfffb92266"
              ],
              "data": "0x0000000000000000000000000000000000000000000000008ac7230489e80000",
              "blockHash": "0x0735de559e47edb66eaf5b4f811960392476a925d6412693f0825729ae477814",
              "blockNumber": "0x469",
              "blockTimestamp": "0x67470ac4",
              "transactionHash": "0x8e7a8957ed58deaeadfd22538ec26390529ae93d1f82c68effaf6042ba48e557",
              "transactionIndex": "0x1",
              "logIndex": "0x0",
              "removed": false
            }
          ],
          "logsBloom": "0x00000000000000000000000000000000000000000000000000000000000000800000000000000000000000000000000000000000000000000000000000000000000000000000000000000000000000000000000000000000000000008000000000000000000000000000000100000000000000000000000000000000000000000000000000000000020000000004000000000001000000000000000000000000000000000000000000000000000000000000000000000000000000000000000000000000000000200000000000000000000000002000000000000000000000000000000000000000000000000000000000000000000000400000000000000000",
          "type": "0x2",
          "transactionHash": "0x8e7a8957ed58deaeadfd22538ec26390529ae93d1f82c68effaf6042ba48e557",
          "transactionIndex": "0x1",
          "blockHash": "0x0735de559e47edb66eaf5b4f811960392476a925d6412693f0825729ae477814",
          "blockNumber": "0x469",
          "gasUsed": "0xa84f",
          "effectiveGasPrice": "0x8",
          "blobGasPrice": "0x1",
          "from": "0xf39fd6e51aad88f6f4ce6ab8827279cfffb92266",
          "to": "0x4200000000000000000000000000000000000024",
          "contractAddress": null
        }
      ],
      "libraries": [],
      "pending": [],
      "returns": {},
      "timestamp": 1732709059,
      "chain": 901,
      "commit": "8a335fb"
    },
    {
      "transactions": [
        {
          "hash": "0xd90871c887615f604d688dbf0c71c2c2fc623ae1c076865b16cf4a209c75238b",
          "transactionType": "CREATE2",
          "contractName": "SmartDisperse",
          "contractAddress": "0x9d35e74f09c30f9d4d9b866e83a8cfa708049a0c",
          "function": null,
          "arguments": null,
          "transaction": {
            "from": "0xf39fd6e51aad88f6f4ce6ab8827279cfffb92266",
            "to": "0x4e59b44847b379578588920ca78fbf26c0b4956c",
            "gas": "0xebad5",
            "value": "0x0",
            "input": "0x736d61727464697370657273650000000000000000000000000000000000000060806040525f80546001600160a01b0319167342000000000000000000000000000000000000231790553480156033575f80fd5b50610a87806100415f395ff3fe608060405234801561000f575f80fd5b5060043610610034575f3560e01c8063afddb54514610038578063fefea5811461004d575b5f80fd5b61004b6100463660046106ce565b610060565b005b61004b61005b366004610818565b61030b565b5f546001600160a01b03163314610089576040516265d51560e41b815260040160405180910390fd5b5f546040805163071ffbc360e31b8152905130926001600160a01b0316916338ffde189160048083019260209291908290030181865afa1580156100cf573d5f803e3d5ffd5b505050506040513d601f19601f820116820180604052508101906100f3919061089e565b6001600160a01b03161461011a57604051635e11715560e11b815260040160405180910390fd5b5f805b82515181101561023b578260200151818151811061013d5761013d6108c0565b60200260200101518261015091906108d4565b91505f83604001516001600160a01b031663a9059cbb855f0151848151811061017b5761017b6108c0565b602002602001015186602001518581518110610199576101996108c0565b60200260200101516040518363ffffffff1660e01b81526004016101d29291906001600160a01b03929092168252602082015260400190565b6020604051808303815f875af11580156101ee573d5f803e3d5ffd5b505050506040513d601f19601f8201168201806040525081019061021291906108f9565b905080610232576040516312171d8360e31b815260040160405180910390fd5b5060010161011d565b50816060015181146102605760405163162908e360e11b815260040160405180910390fd5b5f546040805163123ca23160e11b8152905146926001600160a01b03169163247944629160048083019260209291908290030181865afa1580156102a6573d5f803e3d5ffd5b505050506040513d601f19601f820116820180604052508101906102ca9190610918565b7f8d2fa7456103cc6e98a7598c430974c51363c67c6688f6b78e1b152a56f56e3984606001516040516102ff91815260200190565b60405180910390a35050565b8382146103575760405162461bcd60e51b8152602060048201526016602482015275082e4e4c2f2e640d8cadccee8d040dad2e6dac2e8c6d60531b604482015260640160405180910390fd5b5f805b8381101561039057848482818110610374576103746108c0565b905060200201358261038691906108d4565b915060010161035a565b506040516323b872dd60e01b8152336004820152306024820152604481018290525f906001600160a01b038416906323b872dd906064016020604051808303815f875af11580156103e3573d5f803e3d5ffd5b505050506040513d601f19601f8201168201806040525081019061040791906108f9565b905080610427576040516312171d8360e31b815260040160405180910390fd5b6040805160a0602089028083018201909352608082018981525f9383928c918c918291908601908490808284375f9201919091525050509082525060408051602089810282810182019093528982529283019290918a918a9182918501908490808284375f9201829052509385525050506001600160a01b0380881660208401526040928301879052905491519293501690637056f41f908b903090819063afddb545906104d9908890602401610969565b60408051808303601f1901815291815260208201805160e094851b6001600160e01b03909116179052519186901b6001600160e01b03191682526105239493925090600401610a06565b6020604051808303815f875af115801561053f573d5f803e3d5ffd5b505050506040513d601f19601f820116820180604052508101906105639190610918565b5088467f28c1960b85c2cea008c0b366ad2b9887b76699b377fb5071fb56afc6c09fe3208560405161059791815260200190565b60405180910390a3505050505050505050565b634e487b7160e01b5f52604160045260245ffd5b6040516080810167ffffffffffffffff811182821017156105e1576105e16105aa565b60405290565b604051601f8201601f1916810167ffffffffffffffff81118282101715610610576106106105aa565b604052919050565b5f67ffffffffffffffff821115610631576106316105aa565b5060051b60200190565b6001600160a01b038116811461064f575f80fd5b50565b803561065d8161063b565b919050565b5f82601f830112610671575f80fd5b8135602061068661068183610618565b6105e7565b8083825260208201915060208460051b8701019350868411156106a7575f80fd5b602086015b848110156106c357803583529183019183016106ac565b509695505050505050565b5f60208083850312156106df575f80fd5b823567ffffffffffffffff808211156106f6575f80fd5b9084019060808287031215610709575f80fd5b6107116105be565b82358281111561071f575f80fd5b8301601f8101881361072f575f80fd5b803561073d61068182610618565b81815260059190911b8201860190868101908a83111561075b575f80fd5b928701925b828410156107825783356107738161063b565b82529287019290870190610760565b84525050508284013582811115610797575f80fd5b6107a388828601610662565b85830152506107b460408401610652565b6040820152606083013560608201528094505050505092915050565b5f8083601f8401126107e0575f80fd5b50813567ffffffffffffffff8111156107f7575f80fd5b6020830191508360208260051b8501011115610811575f80fd5b9250929050565b5f805f805f806080878903121561082d575f80fd5b86359550602087013567ffffffffffffffff8082111561084b575f80fd5b6108578a838b016107d0565b9097509550604089013591508082111561086f575f80fd5b5061087c89828a016107d0565b90945092505060608701356108908161063b565b809150509295509295509295565b5f602082840312156108ae575f80fd5b81516108b98161063b565b9392505050565b634e487b7160e01b5f52603260045260245ffd5b808201808211156108f357634e487b7160e01b5f52601160045260245ffd5b92915050565b5f60208284031215610909575f80fd5b815180151581146108b9575f80fd5b5f60208284031215610928575f80fd5b5051919050565b5f815180845260208085019450602084015f5b8381101561095e57815187529582019590820190600101610942565b509495945050505050565b60208082528251608083830152805160a084018190525f9291820190839060c08601905b808310156109b65783516001600160a01b0316825292840192600192909201919084019061098d565b5092860151858403601f19016040870152926109d2818561092f565b935050505060408401516109f160608501826001600160a01b03169052565b50606084015160808401528091505092915050565b83815260018060a01b0383166020820152606060408201525f82518060608401528060208501608085015e5f608082850101526080601f19601f83011684010191505094935050505056fea2646970667358221220d4b3fcd6e8a8ec2afaf833a5e429eea78c143e4e34cbeac319b2ce5e880d4e4764736f6c63430008190033",
            "nonce": "0x2",
            "chainId": "0x386"
          },
          "additionalContracts": [],
          "isFixedGasLimit": false
        }
      ],
      "receipts": [
        {
          "status": "0x1",
          "cumulativeGasUsed": "0xa1259",
          "logs": [],
          "logsBloom": "0x00000000000000000000000000000000000000000000000000000000000000000000000000000000000000000000000000000000000000000000000000000000000000000000000000000000000000000000000000000000000000000000000000000000000000000000000000000000000000000000000000000000000000000000000000000000000000000000000000000000000000000000000000000000000000000000000000000000000000000000000000000000000000000000000000000000000000000000000000000000000000000000000000000000000000000000000000000000000000000000000000000000000000000000000000000000",
          "type": "0x2",
          "transactionHash": "0xd90871c887615f604d688dbf0c71c2c2fc623ae1c076865b16cf4a209c75238b",
          "transactionIndex": "0x0",
          "blockHash": "0xe664fab61c772f1e09b19f597305c14bb1436bb29ffa8c6b98bb3e3da02adc5b",
          "blockNumber": "0x46a",
          "gasUsed": "0xa1259",
          "effectiveGasPrice": "0x8",
          "blobGasPrice": "0x1",
          "from": "0xf39fd6e51aad88f6f4ce6ab8827279cfffb92266",
          "to": "0x4e59b44847b379578588920ca78fbf26c0b4956c",
          "contractAddress": null
        }
      ],
      "libraries": [],
      "pending": [],
      "returns": {},
      "timestamp": 1732709059,
      "chain": 902,
      "commit": "8a335fb"
    },
    {
      "transactions": [
        {
          "hash": "0xde0e6e27b69339809592f4098bcde9bd6a5c0e659df984de3765554e9cbc31d9",
          "transactionType": "CALL",
          "contractName": null,
          "contractAddress": "0x4200000000000000000000000000000000000024",
          "function": "approve(address,uint256)",
          "arguments": [
            "0x9d35e74F09C30F9D4D9B866E83a8Cfa708049a0C",
            "3000000000000000000"
          ],
          "transaction": {
            "from": "0xf39fd6e51aad88f6f4ce6ab8827279cfffb92266",
            "to": "0x4200000000000000000000000000000000000024",
            "gas": "0x1240c",
            "value": "0x0",
            "input": "0x095ea7b30000000000000000000000009d35e74f09c30f9d4d9b866e83a8cfa708049a0c00000000000000000000000000000000000000000000000029a2241af62c0000",
            "nonce": "0xa",
            "chainId": "0x385"
          },
          "additionalContracts": [],
          "isFixedGasLimit": false
        },
        {
          "hash": "0xcad51765542357ebd3c83a6459d4d739555f603302d55e86b9ee8fbafd26106d",
          "transactionType": "CALL",
          "contractName": "SmartDisperse",
          "contractAddress": "0x9d35e74f09c30f9d4d9b866e83a8cfa708049a0c",
          "function": "transferTokensTo(uint256,address[],uint256[],address)",
          "arguments": [
            "902",
            "[0x70997970C51812dc3A010C7d01b50e0d17dc79C8, 0x3C44CdDdB6a900fa2b585dd299e03d12FA4293BC]",
            "[1000000000000000000, 2000000000000000000]",
            "0x4200000000000000000000000000000000000024"
          ],
          "transaction": {
            "from": "0xf39fd6e51aad88f6f4ce6ab8827279cfffb92266",
            "to": "0x9d35e74f09c30f9d4d9b866e83a8cfa708049a0c",
            "gas": "0x1e488",
            "value": "0x0",
            "input": "0xfefea5810000000000000000000000000000000000000000000000000000000000000386000000000000000000000000000000000000000000000000000000000000008000000000000000000000000000000000000000000000000000000000000000e00000000000000000000000004200000000000000000000000000000000000024000000000000000000000000000000000000000000000000000000000000000200000000000000000000000070997970c51812dc3a010c7d01b50e0d17dc79c80000000000000000000000003c44cdddb6a900fa2b585dd299e03d12fa4293bc00000000000000000000000000000000000000000000000000000000000000020000000000000000000000000000000000000000000000000de0b6b3a76400000000000000000000000000000000000000000000000000001bc16d674ec80000",
            "nonce": "0xb",
            "chainId": "0x385"
          },
          "additionalContracts": [],
          "isFixedGasLimit": false
        }
      ],
      "receipts": [
        {
          "status": "0x1",
          "cumulativeGasUsed": "0xc7b1",
          "logs": [
            {
              "address": "0x4200000000000000000000000000000000000024",
              "topics": [
                "0x8c5be1e5ebec7d5bd14f71427d1e84f3dd0314c0f7b2291e5b200ac8c7c3b925",
                "0x000000000000000000000000f39fd6e51aad88f6f4ce6ab8827279cfffb92266",
                "0x0000000000000000000000009d35e74f09c30f9d4d9b866e83a8cfa708049a0c"
              ],
              "data": "0x00000000000000000000000000000000000000000000000029a2241af62c0000",
              "blockHash": "0x8d38e9776485c0beefbaefe3b1af8ad39fd2b4c649b4dee41f20ebe266216447",
              "blockNumber": "0x46b",
              "blockTimestamp": "0x67470ac8",
              "transactionHash": "0xde0e6e27b69339809592f4098bcde9bd6a5c0e659df984de3765554e9cbc31d9",
              "transactionIndex": "0x0",
              "logIndex": "0x0",
              "removed": false
            }
          ],
          "logsBloom": "0x00000000000000000000000000000000000000000000000000000000000000800000000000000000000000000000000000000000000000000000000000200000000000000000000000000000000000000000000000000000000001000000080000000000000000000000008100000000000000000000000000000000000000000000000000000000020000000004000000000000000000000000000000000000020000000000000000000000000000000000000000000000000000000000000000000000000000200000000000000000000000002000000000000000000000000010000000000000000000000000000000000000000000000000000000000000",
          "type": "0x2",
          "transactionHash": "0xde0e6e27b69339809592f4098bcde9bd6a5c0e659df984de3765554e9cbc31d9",
          "transactionIndex": "0x0",
          "blockHash": "0x8d38e9776485c0beefbaefe3b1af8ad39fd2b4c649b4dee41f20ebe266216447",
          "blockNumber": "0x46b",
          "gasUsed": "0xc7b1",
          "effectiveGasPrice": "0x8",
          "blobGasPrice": "0x1",
          "from": "0xf39fd6e51aad88f6f4ce6ab8827279cfffb92266",
          "to": "0x4200000000000000000000000000000000000024",
          "contractAddress": null
        },
        {
          "status": "0x1",
          "cumulativeGasUsed": "0x2267d",
          "logs": [
            {
              "address": "0x4200000000000000000000000000000000000024",
              "topics": [
                "0xddf252ad1be2c89b69c2b068fc378daa952ba7f163c4a11628f55a4df523b3ef",
                "0x000000000000000000000000f39fd6e51aad88f6f4ce6ab8827279cfffb92266",
                "0x0000000000000000000000009d35e74f09c30f9d4d9b866e83a8cfa708049a0c"
              ],
              "data": "0x00000000000000000000000000000000000000000000000029a2241af62c0000",
              "blockHash": "0x8d38e9776485c0beefbaefe3b1af8ad39fd2b4c649b4dee41f20ebe266216447",
              "blockNumber": "0x46b",
              "blockTimestamp": "0x67470ac8",
              "transactionHash": "0xcad51765542357ebd3c83a6459d4d739555f603302d55e86b9ee8fbafd26106d",
              "transactionIndex": "0x1",
              "logIndex": "0x1",
              "removed": false
            },
            {
              "address": "0x4200000000000000000000000000000000000023",
              "topics": [
                "0x382409ac69001e11931a28435afef442cbfd20d9891907e8fa373ba7d351f320",
                "0x0000000000000000000000000000000000000000000000000000000000000386",
                "0x0000000000000000000000009d35e74f09c30f9d4d9b866e83a8cfa708049a0c",
                "0x0000000000000000000000000000000000000000000000000000000000000002"
              ],
              "data": "0x0000000000000000000000009d35e74f09c30f9d4d9b866e83a8cfa708049a0c00000000000000000000000000000000000000000000000000000000000000400000000000000000000000000000000000000000000000000000000000000164afddb5450000000000000000000000000000000000000000000000000000000000000020000000000000000000000000000000000000000000000000000000000000008000000000000000000000000000000000000000000000000000000000000000e0000000000000000000000000420000000000000000000000000000000000002400000000000000000000000000000000000000000000000029a2241af62c0000000000000000000000000000000000000000000000000000000000000000000200000000000000000000000070997970c51812dc3a010c7d01b50e0d17dc79c80000000000000000000000003c44cdddb6a900fa2b585dd299e03d12fa4293bc00000000000000000000000000000000000000000000000000000000000000020000000000000000000000000000000000000000000000000de0b6b3a76400000000000000000000000000000000000000000000000000001bc16d674ec8000000000000000000000000000000000000000000000000000000000000",
              "blockHash": "0x8d38e9776485c0beefbaefe3b1af8ad39fd2b4c649b4dee41f20ebe266216447",
              "blockNumber": "0x46b",
              "blockTimestamp": "0x67470ac8",
              "transactionHash": "0xcad51765542357ebd3c83a6459d4d739555f603302d55e86b9ee8fbafd26106d",
              "transactionIndex": "0x1",
              "logIndex": "0x2",
              "removed": false
            },
            {
              "address": "0x9d35e74f09c30f9d4d9b866e83a8cfa708049a0c",
              "topics": [
                "0x28c1960b85c2cea008c0b366ad2b9887b76699b377fb5071fb56afc6c09fe320",
                "0x0000000000000000000000000000000000000000000000000000000000000385",
                "0x0000000000000000000000000000000000000000000000000000000000000386"
              ],
              "data": "0x00000000000000000000000000000000000000000000000029a2241af62c0000",
              "blockHash": "0x8d38e9776485c0beefbaefe3b1af8ad39fd2b4c649b4dee41f20ebe266216447",
              "blockNumber": "0x46b",
              "blockTimestamp": "0x67470ac8",
              "transactionHash": "0xcad51765542357ebd3c83a6459d4d739555f603302d55e86b9ee8fbafd26106d",
              "transactionIndex": "0x1",
              "logIndex": "0x3",
              "removed": false
            }
          ],
          "logsBloom": "0x240000000000000200000000000000000000000000000000000000000000008000000000000000000000000000000000000000000000c0000008000000000000000000000000000002000008000000000000000000000100000001000000080000000000000000000040008100000000000000000000000000000010000000000000800000000000020000000004000000000000000000000000001000000000040000000000000000000102000000000000010000000000000000000000000000400002000000200000000000000000000000102001000000000000000000000000000000000000000000001800000000000000008000000000000000000000",
          "type": "0x2",
          "transactionHash": "0xcad51765542357ebd3c83a6459d4d739555f603302d55e86b9ee8fbafd26106d",
          "transactionIndex": "0x1",
          "blockHash": "0x8d38e9776485c0beefbaefe3b1af8ad39fd2b4c649b4dee41f20ebe266216447",
          "blockNumber": "0x46b",
          "gasUsed": "0x15ecc",
          "effectiveGasPrice": "0x8",
          "blobGasPrice": "0x1",
          "from": "0xf39fd6e51aad88f6f4ce6ab8827279cfffb92266",
          "to": "0x9d35e74f09c30f9d4d9b866e83a8cfa708049a0c",
          "contractAddress": null
        }
      ],
      "libraries": [],
      "pending": [],
      "returns": {},
      "timestamp": 1732709059,
      "chain": 901,
      "commit": "8a335fb"
    }
  ],
  "timestamp": 1732709064
}