{
  "deployments": [
    {
      "transactions": [
        {
          "hash": "0x68d44c556a3f5c7e5f2c385d202dadc177568fdac4c76e51d0d315a0951bb5e9",
          "transactionType": "CREATE2",
          "contractName": "SmartDisperse",
          "contractAddress": "0xb2619185f4d95b443289b766b5ae55dcdd2c19a6",
          "function": null,
          "arguments": null,
          "transaction": {
            "from": "0xf39fd6e51aad88f6f4ce6ab8827279cfffb92266",
            "to": "0x4e59b44847b379578588920ca78fbf26c0b4956c",
            "gas": "0xce970",
            "value": "0x0",
            "input": "0x736d61727464697370657273650000000000000000000000000000000000000060806040525f80546001600160a01b0319167342000000000000000000000000000000000000231790553480156033575f80fd5b5061090f806100415f395ff3fe608060405234801561000f575f80fd5b5060043610610034575f3560e01c8063afddb54514610038578063fefea5811461004d575b5f80fd5b61004b610046366004610678565b610060565b005b61004b61005b3660046107c2565b6102e7565b5f546001600160a01b03163314610089576040516265d51560e41b815260040160405180910390fd5b5f546040805163071ffbc360e31b8152905130926001600160a01b0316916338ffde189160048083019260209291908290030181865afa1580156100cf573d5f803e3d5ffd5b505050506040513d601f19601f820116820180604052508101906100f39190610848565b6001600160a01b03161461011a57604051635e11715560e11b815260040160405180910390fd5b5f805b82515181101561023b578260200151818151811061013d5761013d61086a565b602002602001015182610150919061087e565b91505f83604001516001600160a01b031663a9059cbb855f0151848151811061017b5761017b61086a565b6020026020010151866020015185815181106101995761019961086a565b60200260200101516040518363ffffffff1660e01b81526004016101d29291906001600160a01b03929092168252602082015260400190565b6020604051808303815f875af11580156101ee573d5f803e3d5ffd5b505050506040513d601f19601f8201168201806040525081019061021291906108a3565b905080610232576040516312171d8360e31b815260040160405180910390fd5b5060010161011d565b505f546040805163123ca23160e11b8152905146926001600160a01b03169163247944629160048083019260209291908290030181865afa158015610282573d5f803e3d5ffd5b505050506040513d601f19601f820116820180604052508101906102a691906108c2565b7f8d2fa7456103cc6e98a7598c430974c51363c67c6688f6b78e1b152a56f56e3984606001516040516102db91815260200190565b60405180910390a35050565b8382146103335760405162461bcd60e51b8152602060048201526016602482015275082e4e4c2f2e640d8cadccee8d040dad2e6dac2e8c6d60531b604482015260640160405180910390fd5b5f805b8381101561036c578484828181106103505761035061086a565b9050602002013582610362919061087e565b9150600101610336565b506040516323b872dd60e01b8152336004820152306024820152604481018290525f906001600160a01b038416906323b872dd906064016020604051808303815f875af11580156103bf573d5f803e3d5ffd5b505050506040513d601f19601f820116820180604052508101906103e391906108a3565b905080610403576040516312171d8360e31b815260040160405180910390fd5b6040805160a0602089028083018201909352608082018981525f9383928c918c918291908601908490808284375f9201919091525050509082525060408051602089810282810182019093528982529283019290918a918a9182918501908490808284375f920191909152505050908252506001600160a01b0386166020820152604090810185905251631834867b60e31b81526024602160991b01600482015230602482015260448101859052606481018b90529091506028602160991b019063c1a433d8906084016020604051808303815f875af11580156104e9573d5f803e3d5ffd5b505050506040513d601f19601f8201168201806040525081019061050d91906108c2565b5088467f28c1960b85c2cea008c0b366ad2b9887b76699b377fb5071fb56afc6c09fe3208560405161054191815260200190565b60405180910390a3505050505050505050565b634e487b7160e01b5f52604160045260245ffd5b6040516080810167ffffffffffffffff8111828210171561058b5761058b610554565b60405290565b604051601f8201601f1916810167ffffffffffffffff811182821017156105ba576105ba610554565b604052919050565b5f67ffffffffffffffff8211156105db576105db610554565b5060051b60200190565b6001600160a01b03811681146105f9575f80fd5b50565b8035610607816105e5565b919050565b5f82601f83011261061b575f80fd5b8135602061063061062b836105c2565b610591565b8083825260208201915060208460051b870101935086841115610651575f80fd5b602086015b8481101561066d5780358352918301918301610656565b509695505050505050565b5f6020808385031215610689575f80fd5b823567ffffffffffffffff808211156106a0575f80fd5b90840190608082870312156106b3575f80fd5b6106bb610568565b8235828111156106c9575f80fd5b8301601f810188136106d9575f80fd5b80356106e761062b826105c2565b81815260059190911b8201860190868101908a831115610705575f80fd5b928701925b8284101561072c57833561071d816105e5565b8252928701929087019061070a565b84525050508284013582811115610741575f80fd5b61074d8882860161060c565b858301525061075e604084016105fc565b6040820152606083013560608201528094505050505092915050565b5f8083601f84011261078a575f80fd5b50813567ffffffffffffffff8111156107a1575f80fd5b6020830191508360208260051b85010111156107bb575f80fd5b9250929050565b5f805f805f80608087890312156107d7575f80fd5b86359550602087013567ffffffffffffffff808211156107f5575f80fd5b6108018a838b0161077a565b90975095506040890135915080821115610819575f80fd5b5061082689828a0161077a565b909450925050606087013561083a816105e5565b809150509295509295509295565b5f60208284031215610858575f80fd5b8151610863816105e5565b9392505050565b634e487b7160e01b5f52603260045260245ffd5b8082018082111561089d57634e487b7160e01b5f52601160045260245ffd5b92915050565b5f602082840312156108b3575f80fd5b81518015158114610863575f80fd5b5f602082840312156108d2575f80fd5b505191905056fea2646970667358221220108354ddc785dafecd054577abe33e202cbb96135b59b9a9a17543928ca1638564736f6c63430008190033",
            "nonce": "0x0",
            "chainId": "0x385"
          },
          "additionalContracts": [],
          "isFixedGasLimit": false
        },
        {
          "hash": "0x1130f4a471cbbaddbb504fae4ea874440b63f29a0770809baf33961eec163ada",
          "transactionType": "CALL",
          "contractName": null,
          "contractAddress": "0x4200000000000000000000000000000000000024",
          "function": null,
          "arguments": null,
          "transaction": {
            "from": "0xf39fd6e51aad88f6f4ce6ab8827279cfffb92266",
            "to": "0x4200000000000000000000000000000000000024",
            "gas": "0x157d7",
            "value": "0x8ac7230489e80000",
            "input": "0x",
            "nonce": "0x1",
            "chainId": "0x385"
          },
          "additionalContracts": [],
          "isFixedGasLimit": false
        }
      ],
      "receipts": [
        {
          "status": "0x1",
          "cumulativeGasUsed": "0x8d421",
          "logs": [],
          "logsBloom": "0x00000000000000000000000000000000000000000000000000000000000000000000000000000000000000000000000000000000000000000000000000000000000000000000000000000000000000000000000000000000000000000000000000000000000000000000000000000000000000000000000000000000000000000000000000000000000000000000000000000000000000000000000000000000000000000000000000000000000000000000000000000000000000000000000000000000000000000000000000000000000000000000000000000000000000000000000000000000000000000000000000000000000000000000000000000000",
          "type": "0x2",
          "transactionHash": "0x68d44c556a3f5c7e5f2c385d202dadc177568fdac4c76e51d0d315a0951bb5e9",
          "transactionIndex": "0x0",
          "blockHash": "0x0eef0386f73342a1d8ec1aea254112198e90c48f939d0215362d3300f213246b",
          "blockNumber": "0x5",
          "gasUsed": "0x8d421",
          "effectiveGasPrice": "0x22f8949f",
          "blobGasPrice": "0x1",
          "from": "0xf39fd6e51aad88f6f4ce6ab8827279cfffb92266",
          "to": "0x4e59b44847b379578588920ca78fbf26c0b4956c",
          "contractAddress": null
        },
        {
          "status": "0x1",
          "cumulativeGasUsed": "0x9bf3c",
          "logs": [
            {
              "address": "0x4200000000000000000000000000000000000024",
              "topics": [
                "0xe1fffcc4923d04b559f4d29a8bfc6cda04eb5b0d3c460751c2402c5c5cc9109c",
                "0x000000000000000000000000f39fd6e51aad88f6f4ce6ab8827279cfffb92266"
              ],
              "data": "0x0000000000000000000000000000000000000000000000008ac7230489e80000",
              "blockHash": "0x0eef0386f73342a1d8ec1aea254112198e90c48f939d0215362d3300f213246b",
              "blockNumber": "0x5",
              "blockTimestamp": "0x675c2511",
              "transactionHash": "0x1130f4a471cbbaddbb504fae4ea874440b63f29a0770809baf33961eec163ada",
              "transactionIndex": "0x1",
              "logIndex": "0x0",
              "removed": false
            }
          ],
          "logsBloom": "0x00000000000000000000000000000000000000000000000000000000000000800000000000000000000000000000000000000000000000000000000000000000000000000000000000000000000000000000000000000000000000008000000000000000000000000000000100000000000000000000000000000000000000000000000000000000020000000004000000000001000000000000000000000000000000000000000000000000000000000000000000000000000000000000000000000000000000200000000000000000000000002000000000000000000000000000000000000000000000000000000000000000000000400000000000000000",
          "type": "0x2",
          "transactionHash": "0x1130f4a471cbbaddbb504fae4ea874440b63f29a0770809baf33961eec163ada",
          "transactionIndex": "0x1",
          "blockHash": "0x0eef0386f73342a1d8ec1aea254112198e90c48f939d0215362d3300f213246b",
          "blockNumber": "0x5",
          "gasUsed": "0xeb1b",
          "effectiveGasPrice": "0x22f8949f",
          "blobGasPrice": "0x1",
          "from": "0xf39fd6e51aad88f6f4ce6ab8827279cfffb92266",
          "to": "0x4200000000000000000000000000000000000024",
          "contractAddress": null
        }
      ],
      "libraries": [],
      "pending": [],
      "returns": {},
      "timestamp": 1734092047,
      "chain": 901,
      "commit": "3eae407"
    },
    {
      "transactions": [
        {
          "hash": "0x7e86e0b69b21a636cb662f080e11f4e8766a013e0e56107a7e8fd652a01f305b",
          "transactionType": "CREATE2",
          "contractName": "SmartDisperse",
          "contractAddress": "0xb2619185f4d95b443289b766b5ae55dcdd2c19a6",
          "function": null,
          "arguments": null,
          "transaction": {
            "from": "0xf39fd6e51aad88f6f4ce6ab8827279cfffb92266",
            "to": "0x4e59b44847b379578588920ca78fbf26c0b4956c",
            "gas": "0xce970",
            "value": "0x0",
            "input": "0x736d61727464697370657273650000000000000000000000000000000000000060806040525f80546001600160a01b0319167342000000000000000000000000000000000000231790553480156033575f80fd5b5061090f806100415f395ff3fe608060405234801561000f575f80fd5b5060043610610034575f3560e01c8063afddb54514610038578063fefea5811461004d575b5f80fd5b61004b610046366004610678565b610060565b005b61004b61005b3660046107c2565b6102e7565b5f546001600160a01b03163314610089576040516265d51560e41b815260040160405180910390fd5b5f546040805163071ffbc360e31b8152905130926001600160a01b0316916338ffde189160048083019260209291908290030181865afa1580156100cf573d5f803e3d5ffd5b505050506040513d601f19601f820116820180604052508101906100f39190610848565b6001600160a01b03161461011a57604051635e11715560e11b815260040160405180910390fd5b5f805b82515181101561023b578260200151818151811061013d5761013d61086a565b602002602001015182610150919061087e565b91505f83604001516001600160a01b031663a9059cbb855f0151848151811061017b5761017b61086a565b6020026020010151866020015185815181106101995761019961086a565b60200260200101516040518363ffffffff1660e01b81526004016101d29291906001600160a01b03929092168252602082015260400190565b6020604051808303815f875af11580156101ee573d5f803e3d5ffd5b505050506040513d601f19601f8201168201806040525081019061021291906108a3565b905080610232576040516312171d8360e31b815260040160405180910390fd5b5060010161011d565b505f546040805163123ca23160e11b8152905146926001600160a01b03169163247944629160048083019260209291908290030181865afa158015610282573d5f803e3d5ffd5b505050506040513d601f19601f820116820180604052508101906102a691906108c2565b7f8d2fa7456103cc6e98a7598c430974c51363c67c6688f6b78e1b152a56f56e3984606001516040516102db91815260200190565b60405180910390a35050565b8382146103335760405162461bcd60e51b8152602060048201526016602482015275082e4e4c2f2e640d8cadccee8d040dad2e6dac2e8c6d60531b604482015260640160405180910390fd5b5f805b8381101561036c578484828181106103505761035061086a565b9050602002013582610362919061087e565b9150600101610336565b506040516323b872dd60e01b8152336004820152306024820152604481018290525f906001600160a01b038416906323b872dd906064016020604051808303815f875af11580156103bf573d5f803e3d5ffd5b505050506040513d601f19601f820116820180604052508101906103e391906108a3565b905080610403576040516312171d8360e31b815260040160405180910390fd5b6040805160a0602089028083018201909352608082018981525f9383928c918c918291908601908490808284375f9201919091525050509082525060408051602089810282810182019093528982529283019290918a918a9182918501908490808284375f920191909152505050908252506001600160a01b0386166020820152604090810185905251631834867b60e31b81526024602160991b01600482015230602482015260448101859052606481018b90529091506028602160991b019063c1a433d8906084016020604051808303815f875af11580156104e9573d5f803e3d5ffd5b505050506040513d601f19601f8201168201806040525081019061050d91906108c2565b5088467f28c1960b85c2cea008c0b366ad2b9887b76699b377fb5071fb56afc6c09fe3208560405161054191815260200190565b60405180910390a3505050505050505050565b634e487b7160e01b5f52604160045260245ffd5b6040516080810167ffffffffffffffff8111828210171561058b5761058b610554565b60405290565b604051601f8201601f1916810167ffffffffffffffff811182821017156105ba576105ba610554565b604052919050565b5f67ffffffffffffffff8211156105db576105db610554565b5060051b60200190565b6001600160a01b03811681146105f9575f80fd5b50565b8035610607816105e5565b919050565b5f82601f83011261061b575f80fd5b8135602061063061062b836105c2565b610591565b8083825260208201915060208460051b870101935086841115610651575f80fd5b602086015b8481101561066d5780358352918301918301610656565b509695505050505050565b5f6020808385031215610689575f80fd5b823567ffffffffffffffff808211156106a0575f80fd5b90840190608082870312156106b3575f80fd5b6106bb610568565b8235828111156106c9575f80fd5b8301601f810188136106d9575f80fd5b80356106e761062b826105c2565b81815260059190911b8201860190868101908a831115610705575f80fd5b928701925b8284101561072c57833561071d816105e5565b8252928701929087019061070a565b84525050508284013582811115610741575f80fd5b61074d8882860161060c565b858301525061075e604084016105fc565b6040820152606083013560608201528094505050505092915050565b5f8083601f84011261078a575f80fd5b50813567ffffffffffffffff8111156107a1575f80fd5b6020830191508360208260051b85010111156107bb575f80fd5b9250929050565b5f805f805f80608087890312156107d7575f80fd5b86359550602087013567ffffffffffffffff808211156107f5575f80fd5b6108018a838b0161077a565b90975095506040890135915080821115610819575f80fd5b5061082689828a0161077a565b909450925050606087013561083a816105e5565b809150509295509295509295565b5f60208284031215610858575f80fd5b8151610863816105e5565b9392505050565b634e487b7160e01b5f52603260045260245ffd5b8082018082111561089d57634e487b7160e01b5f52601160045260245ffd5b92915050565b5f602082840312156108b3575f80fd5b81518015158114610863575f80fd5b5f602082840312156108d2575f80fd5b505191905056fea2646970667358221220108354ddc785dafecd054577abe33e202cbb96135b59b9a9a17543928ca1638564736f6c63430008190033",
            "nonce": "0x0",
            "chainId": "0x386"
          },
          "additionalContracts": [],
          "isFixedGasLimit": false
        }
      ],
      "receipts": [
        {
          "status": "0x1",
          "cumulativeGasUsed": "0x8d421",
          "logs": [],
          "logsBloom": "0x00000000000000000000000000000000000000000000000000000000000000000000000000000000000000000000000000000000000000000000000000000000000000000000000000000000000000000000000000000000000000000000000000000000000000000000000000000000000000000000000000000000000000000000000000000000000000000000000000000000000000000000000000000000000000000000000000000000000000000000000000000000000000000000000000000000000000000000000000000000000000000000000000000000000000000000000000000000000000000000000000000000000000000000000000000000",
          "type": "0x2",
          "transactionHash": "0x7e86e0b69b21a636cb662f080e11f4e8766a013e0e56107a7e8fd652a01f305b",
          "transactionIndex": "0x0",
          "blockHash": "0x768101805e270c1321f0cbdfa7c450c9d8729f77a37bbaff0b90a0883d6215e2",
          "blockNumber": "0x6",
          "gasUsed": "0x8d421",
          "effectiveGasPrice": "0x1e99820c",
          "blobGasPrice": "0x1",
          "from": "0xf39fd6e51aad88f6f4ce6ab8827279cfffb92266",
          "to": "0x4e59b44847b379578588920ca78fbf26c0b4956c",
          "contractAddress": null
        }
      ],
      "libraries": [],
      "pending": [],
      "returns": {},
      "timestamp": 1734092047,
      "chain": 902,
      "commit": "3eae407"
    },
    {
      "transactions": [
        {
          "hash": "0x234c95ad6efdf25e41cd9664b9fe7c92815c8fba118c7f368a6cb0e5f01fdf3c",
          "transactionType": "CALL",
          "contractName": null,
          "contractAddress": "0x4200000000000000000000000000000000000024",
          "function": "approve(address,uint256)",
          "arguments": [
            "0xb2619185F4D95B443289b766B5AE55DCDD2c19A6",
            "3000000000000000000"
          ],
          "transaction": {
            "from": "0xf39fd6e51aad88f6f4ce6ab8827279cfffb92266",
            "to": "0x4200000000000000000000000000000000000024",
            "gas": "0x113d9",
            "value": "0x0",
            "input": "0x095ea7b3000000000000000000000000b2619185f4d95b443289b766b5ae55dcdd2c19a600000000000000000000000000000000000000000000000029a2241af62c0000",
            "nonce": "0x2",
            "chainId": "0x385"
          },
          "additionalContracts": [],
          "isFixedGasLimit": false
        },
        {
          "hash": "0x309a0d7fc44ed8ecd104488c6cc7cef68d8d8540651239b5a3d8ff6eddd5b615",
          "transactionType": "CALL",
          "contractName": "SmartDisperse",
          "contractAddress": "0xb2619185f4d95b443289b766b5ae55dcdd2c19a6",
          "function": "transferTokensTo(uint256,address[],uint256[],address)",
          "arguments": [
            "902",
            "[0x70997970C51812dc3A010C7d01b50e0d17dc79C8, 0x3C44CdDdB6a900fa2b585dd299e03d12FA4293BC]",
            "[1000000000000000000, 2000000000000000000]",
            "0x4200000000000000000000000000000000000024"
          ],
          "transaction": {
            "from": "0xf39fd6e51aad88f6f4ce6ab8827279cfffb92266",
            "to": "0xb2619185f4d95b443289b766b5ae55dcdd2c19a6",
            "gas": "0x2c268",
            "value": "0x0",
            "input": "0xfefea5810000000000000000000000000000000000000000000000000000000000000386000000000000000000000000000000000000000000000000000000000000008000000000000000000000000000000000000000000000000000000000000000e00000000000000000000000004200000000000000000000000000000000000024000000000000000000000000000000000000000000000000000000000000000200000000000000000000000070997970c51812dc3a010c7d01b50e0d17dc79c80000000000000000000000003c44cdddb6a900fa2b585dd299e03d12fa4293bc00000000000000000000000000000000000000000000000000000000000000020000000000000000000000000000000000000000000000000de0b6b3a76400000000000000000000000000000000000000000000000000001bc16d674ec80000",
            "nonce": "0x3",
            "chainId": "0x385"
          },
          "additionalContracts": [],
          "isFixedGasLimit": false
        }
      ],
      "receipts": [
        {
          "status": "0x1",
          "cumulativeGasUsed": "0xc7b6",
          "logs": [
            {
              "address": "0x4200000000000000000000000000000000000024",
              "topics": [
                "0x8c5be1e5ebec7d5bd14f71427d1e84f3dd0314c0f7b2291e5b200ac8c7c3b925",
                "0x000000000000000000000000f39fd6e51aad88f6f4ce6ab8827279cfffb92266",
                "0x000000000000000000000000b2619185f4d95b443289b766b5ae55dcdd2c19a6"
              ],
              "data": "0x00000000000000000000000000000000000000000000000029a2241af62c0000",
              "blockHash": "0xd98202dd1526d9020e129fbf32e6d6843bb7cc23a814c18235e31f6cad145065",
              "blockNumber": "0x7",
              "blockTimestamp": "0x675c2515",
              "transactionHash": "0x234c95ad6efdf25e41cd9664b9fe7c92815c8fba118c7f368a6cb0e5f01fdf3c",
              "transactionIndex": "0x0",
              "logIndex": "0x0",
              "removed": false
            }
          ],
          "logsBloom": "0x00000000000000000000000000000000000000000000000000000000000000800000000000000000000000000000000000000000000000000000000000200000000000000000000000002000000000000000000000000000000000000000000000000000000000000000000100000000000000000000000000000000000000000000000000000000020000000004000000000000000000000000000000000000020000000000000000000000000000000000000000000000000000000000000000000000000000200400000000000000000000002000000000000000000000000010000000000000000000000000000000000000000000000000000000000000",
          "type": "0x2",
          "transactionHash": "0x234c95ad6efdf25e41cd9664b9fe7c92815c8fba118c7f368a6cb0e5f01fdf3c",
          "transactionIndex": "0x0",
          "blockHash": "0xd98202dd1526d9020e129fbf32e6d6843bb7cc23a814c18235e31f6cad145065",
          "blockNumber": "0x7",
          "gasUsed": "0xc7b6",
          "effectiveGasPrice": "0x1af004c1",
          "blobGasPrice": "0x1",
          "from": "0xf39fd6e51aad88f6f4ce6ab8827279cfffb92266",
          "to": "0x4200000000000000000000000000000000000024",
          "contractAddress": null
        },
        {
          "status": "0x1",
          "cumulativeGasUsed": "0x2c724",
          "logs": [
            {
              "address": "0x4200000000000000000000000000000000000024",
              "topics": [
                "0xddf252ad1be2c89b69c2b068fc378daa952ba7f163c4a11628f55a4df523b3ef",
                "0x000000000000000000000000f39fd6e51aad88f6f4ce6ab8827279cfffb92266",
                "0x000000000000000000000000b2619185f4d95b443289b766b5ae55dcdd2c19a6"
              ],
              "data": "0x00000000000000000000000000000000000000000000000029a2241af62c0000",
              "blockHash": "0xd98202dd1526d9020e129fbf32e6d6843bb7cc23a814c18235e31f6cad145065",
              "blockNumber": "0x7",
              "blockTimestamp": "0x675c2515",
              "transactionHash": "0x309a0d7fc44ed8ecd104488c6cc7cef68d8d8540651239b5a3d8ff6eddd5b615",
              "transactionIndex": "0x1",
              "logIndex": "0x1",
              "removed": false
            },
            {
              "address": "0x4200000000000000000000000000000000000024",
              "topics": [
                "0xddf252ad1be2c89b69c2b068fc378daa952ba7f163c4a11628f55a4df523b3ef",
                "0x000000000000000000000000b2619185f4d95b443289b766b5ae55dcdd2c19a6",
                "0x0000000000000000000000000000000000000000000000000000000000000000"
              ],
              "data": "0x00000000000000000000000000000000000000000000000029a2241af62c0000",
              "blockHash": "0xd98202dd1526d9020e129fbf32e6d6843bb7cc23a814c18235e31f6cad145065",
              "blockNumber": "0x7",
              "blockTimestamp": "0x675c2515",
              "transactionHash": "0x309a0d7fc44ed8ecd104488c6cc7cef68d8d8540651239b5a3d8ff6eddd5b615",
              "transactionIndex": "0x1",
              "logIndex": "0x2",
              "removed": false
            },
            {
              "address": "0x4200000000000000000000000000000000000025",
              "topics": [
                "0x875e07afd7ce17c6531b1a6b7b34829dcd8b7e6639448afbd6a8e29fa1422b82",
                "0x0000000000000000000000004200000000000000000000000000000000000024"
              ],
              "data": "0x00000000000000000000000000000000000000000000000029a2241af62c0000",
              "blockHash": "0xd98202dd1526d9020e129fbf32e6d6843bb7cc23a814c18235e31f6cad145065",
              "blockNumber": "0x7",
              "blockTimestamp": "0x675c2515",
              "transactionHash": "0x309a0d7fc44ed8ecd104488c6cc7cef68d8d8540651239b5a3d8ff6eddd5b615",
              "transactionIndex": "0x1",
              "logIndex": "0x3",
              "removed": false
            },
            {
              "address": "0x4200000000000000000000000000000000000024",
              "topics": [
                "0xb90795a66650155983e242cac3e1ac1a4dc26f8ed2987f3ce416a34e00111fd4",
                "0x000000000000000000000000b2619185f4d95b443289b766b5ae55dcdd2c19a6",
                "0x0000000000000000000000004200000000000000000000000000000000000028"
              ],
              "data": "0x00000000000000000000000000000000000000000000000029a2241af62c0000",
              "blockHash": "0xd98202dd1526d9020e129fbf32e6d6843bb7cc23a814c18235e31f6cad145065",
              "blockNumber": "0x7",
              "blockTimestamp": "0x675c2515",
              "transactionHash": "0x309a0d7fc44ed8ecd104488c6cc7cef68d8d8540651239b5a3d8ff6eddd5b615",
              "transactionIndex": "0x1",
              "logIndex": "0x4",
              "removed": false
            },
            {
              "address": "0x4200000000000000000000000000000000000023",
              "topics": [
                "0x382409ac69001e11931a28435afef442cbfd20d9891907e8fa373ba7d351f320",
                "0x0000000000000000000000000000000000000000000000000000000000000386",
                "0x0000000000000000000000004200000000000000000000000000000000000028",
                "0x0000000000000000000000000000000000000000000000000000000000000000"
              ],
              "data": "0x0000000000000000000000004200000000000000000000000000000000000028000000000000000000000000000000000000000000000000000000000000004000000000000000000000000000000000000000000000000000000000000000847cfd6dbc0000000000000000000000004200000000000000000000000000000000000024000000000000000000000000b2619185f4d95b443289b766b5ae55dcdd2c19a6000000000000000000000000b2619185f4d95b443289b766b5ae55dcdd2c19a600000000000000000000000000000000000000000000000029a2241af62c000000000000000000000000000000000000000000000000000000000000",
              "blockHash": "0xd98202dd1526d9020e129fbf32e6d6843bb7cc23a814c18235e31f6cad145065",
              "blockNumber": "0x7",
              "blockTimestamp": "0x675c2515",
              "transactionHash": "0x309a0d7fc44ed8ecd104488c6cc7cef68d8d8540651239b5a3d8ff6eddd5b615",
              "transactionIndex": "0x1",
              "logIndex": "0x5",
              "removed": false
            },
            {
              "address": "0x4200000000000000000000000000000000000028",
              "topics": [
                "0x0247bfe63a1aaa59e073e20b172889babfda8d3273b5798e0e9ac4388e6dd11c",
                "0x0000000000000000000000004200000000000000000000000000000000000024",
                "0x000000000000000000000000b2619185f4d95b443289b766b5ae55dcdd2c19a6",
                "0x000000000000000000000000b2619185f4d95b443289b766b5ae55dcdd2c19a6"
              ],
              "data": "0x00000000000000000000000000000000000000000000000029a2241af62c00000000000000000000000000000000000000000000000000000000000000000386",
              "blockHash": "0xd98202dd1526d9020e129fbf32e6d6843bb7cc23a814c18235e31f6cad145065",
              "blockNumber": "0x7",
              "blockTimestamp": "0x675c2515",
              "transactionHash": "0x309a0d7fc44ed8ecd104488c6cc7cef68d8d8540651239b5a3d8ff6eddd5b615",
              "transactionIndex": "0x1",
              "logIndex": "0x6",
              "removed": false
            },
            {
              "address": "0xb2619185f4d95b443289b766b5ae55dcdd2c19a6",
              "topics": [
                "0x28c1960b85c2cea008c0b366ad2b9887b76699b377fb5071fb56afc6c09fe320",
                "0x0000000000000000000000000000000000000000000000000000000000000385",
                "0x0000000000000000000000000000000000000000000000000000000000000386"
              ],
              "data": "0x00000000000000000000000000000000000000000000000029a2241af62c0000",
              "blockHash": "0xd98202dd1526d9020e129fbf32e6d6843bb7cc23a814c18235e31f6cad145065",
              "blockNumber": "0x7",
              "blockTimestamp": "0x675c2515",
              "transactionHash": "0x309a0d7fc44ed8ecd104488c6cc7cef68d8d8540651239b5a3d8ff6eddd5b615",
              "transactionIndex": "0x1",
              "logIndex": "0x7",
              "removed": false
            }
          ],
          "logsBloom": "0x20008000000800020000000000000000000000000000000000000000000200800000000000000000000000000000000000000000000040008008000000000000000000000000000002002008000000000000000000000104000000000000000000002208020000000040000100000800000000002000080041000010000000100000800000000000020000000004000000000000020000000000011000000000040000000000000000000002000000000000010000000000000000000000000800000002000008200400000000000000000000102000000010000000000020120000008000080000000000001800000000010000000800000000000000000000",
          "type": "0x2",
          "transactionHash": "0x309a0d7fc44ed8ecd104488c6cc7cef68d8d8540651239b5a3d8ff6eddd5b615",
          "transactionIndex": "0x1",
          "blockHash": "0xd98202dd1526d9020e129fbf32e6d6843bb7cc23a814c18235e31f6cad145065",
          "blockNumber": "0x7",
          "gasUsed": "0x1ff6e",
          "effectiveGasPrice": "0x1af004c1",
          "blobGasPrice": "0x1",
          "from": "0xf39fd6e51aad88f6f4ce6ab8827279cfffb92266",
          "to": "0xb2619185f4d95b443289b766b5ae55dcdd2c19a6",
          "contractAddress": null
        }
      ],
      "libraries": [],
      "pending": [],
      "returns": {},
      "timestamp": 1734092047,
      "chain": 901,
      "commit": "3eae407"
    }
  ],
  "timestamp": 1734092053
}