{
  "deployments": [
    {
      "transactions": [
        {
          "hash": "0x8816b460cf0f111a52b167efbb940ae35413b0ed2d72433df49a117272d923f4",
          "transactionType": "CREATE2",
          "contractName": "SmartDisperse",
          "contractAddress": "0xbd51694e536310631ab0163b94e5c509b4ac8c8f",
          "function": null,
          "arguments": null,
          "transaction": {
            "from": "0xf39fd6e51aad88f6f4ce6ab8827279cfffb92266",
            "to": "0x4e59b44847b379578588920ca78fbf26c0b4956c",
            "gas": "0xe9284",
            "value": "0x0",
            "input": "0x536d61727444697370657273650000000000000000000000000000000000000060806040525f80546001600160a01b0319167342000000000000000000000000000000000000231790553480156033575f80fd5b50610b18806100415f395ff3fe608060405260043610610029575f3560e01c8063afddb54514610032578063fefea5811461005157005b3661003057005b005b34801561003d575f80fd5b5061003061004c36600461075f565b610070565b34801561005c575f80fd5b5061003061006b3660046108a9565b61031b565b5f546001600160a01b03163314610099576040516265d51560e41b815260040160405180910390fd5b5f546040805163071ffbc360e31b8152905130926001600160a01b0316916338ffde189160048083019260209291908290030181865afa1580156100df573d5f803e3d5ffd5b505050506040513d601f19601f82011682018060405250810190610103919061092f565b6001600160a01b03161461012a57604051635e11715560e11b815260040160405180910390fd5b5f805b82515181101561024b578260200151818151811061014d5761014d610951565b6020026020010151826101609190610965565b91505f83604001516001600160a01b031663a9059cbb855f0151848151811061018b5761018b610951565b6020026020010151866020015185815181106101a9576101a9610951565b60200260200101516040518363ffffffff1660e01b81526004016101e29291906001600160a01b03929092168252602082015260400190565b6020604051808303815f875af11580156101fe573d5f803e3d5ffd5b505050506040513d601f19601f82011682018060405250810190610222919061098a565b905080610242576040516312171d8360e31b815260040160405180910390fd5b5060010161012d565b50816060015181146102705760405163162908e360e11b815260040160405180910390fd5b5f546040805163123ca23160e11b8152905146926001600160a01b03169163247944629160048083019260209291908290030181865afa1580156102b6573d5f803e3d5ffd5b505050506040513d601f19601f820116820180604052508101906102da91906109a9565b7f8d2fa7456103cc6e98a7598c430974c51363c67c6688f6b78e1b152a56f56e39846060015160405161030f91815260200190565b60405180910390a35050565b8382146103675760405162461bcd60e51b8152602060048201526016602482015275082e4e4c2f2e640d8cadccee8d040dad2e6dac2e8c6d60531b604482015260640160405180910390fd5b5f805b838110156103a05784848281811061038457610384610951565b90506020020135826103969190610965565b915060010161036a565b506040516323b872dd60e01b8152336004820152306024820152604481018290525f906001600160a01b038416906323b872dd906064016020604051808303815f875af11580156103f3573d5f803e3d5ffd5b505050506040513d601f19601f82011682018060405250810190610417919061098a565b905080610437576040516312171d8360e31b815260040160405180910390fd5b604051631834867b60e31b81526024602160991b01600482015230602482015260448101839052606481018990526028602160991b019063c1a433d8906084016020604051808303815f875af1158015610493573d5f803e3d5ffd5b505050506040513d601f19601f820116820180604052508101906104b791906109a9565b506040805160a0602089028083018201909352608082018981525f9383928c918c918291908601908490808284375f9201919091525050509082525060408051602089810282810182019093528982529283019290918a918a9182918501908490808284375f9201829052509385525050506001600160a01b0380881660208401526040928301879052905491519293501690637056f41f908b903090819063afddb5459061056a9088906024016109fa565b60408051808303601f1901815291815260208201805160e094851b6001600160e01b03909116179052519186901b6001600160e01b03191682526105b49493925090600401610a97565b6020604051808303815f875af11580156105d0573d5f803e3d5ffd5b505050506040513d601f19601f820116820180604052508101906105f491906109a9565b5088467f28c1960b85c2cea008c0b366ad2b9887b76699b377fb5071fb56afc6c09fe3208560405161062891815260200190565b60405180910390a3505050505050505050565b634e487b7160e01b5f52604160045260245ffd5b6040516080810167ffffffffffffffff811182821017156106725761067261063b565b60405290565b604051601f8201601f1916810167ffffffffffffffff811182821017156106a1576106a161063b565b604052919050565b5f67ffffffffffffffff8211156106c2576106c261063b565b5060051b60200190565b6001600160a01b03811681146106e0575f80fd5b50565b80356106ee816106cc565b919050565b5f82601f830112610702575f80fd5b81356020610717610712836106a9565b610678565b8083825260208201915060208460051b870101935086841115610738575f80fd5b602086015b84811015610754578035835291830191830161073d565b509695505050505050565b5f6020808385031215610770575f80fd5b823567ffffffffffffffff80821115610787575f80fd5b908401906080828703121561079a575f80fd5b6107a261064f565b8235828111156107b0575f80fd5b8301601f810188136107c0575f80fd5b80356107ce610712826106a9565b81815260059190911b8201860190868101908a8311156107ec575f80fd5b928701925b82841015610813578335610804816106cc565b825292870192908701906107f1565b84525050508284013582811115610828575f80fd5b610834888286016106f3565b8583015250610845604084016106e3565b6040820152606083013560608201528094505050505092915050565b5f8083601f840112610871575f80fd5b50813567ffffffffffffffff811115610888575f80fd5b6020830191508360208260051b85010111156108a2575f80fd5b9250929050565b5f805f805f80608087890312156108be575f80fd5b86359550602087013567ffffffffffffffff808211156108dc575f80fd5b6108e88a838b01610861565b90975095506040890135915080821115610900575f80fd5b5061090d89828a01610861565b9094509250506060870135610921816106cc565b809150509295509295509295565b5f6020828403121561093f575f80fd5b815161094a816106cc565b9392505050565b634e487b7160e01b5f52603260045260245ffd5b8082018082111561098457634e487b7160e01b5f52601160045260245ffd5b92915050565b5f6020828403121561099a575f80fd5b8151801515811461094a575f80fd5b5f602082840312156109b9575f80fd5b5051919050565b5f815180845260208085019450602084015f5b838110156109ef578151875295820195908201906001016109d3565b509495945050505050565b60208082528251608083830152805160a084018190525f9291820190839060c08601905b80831015610a475783516001600160a01b03168252928401926001929092019190840190610a1e565b5092860151858403601f1901604087015292610a6381856109c0565b93505050506040840151610a8260608501826001600160a01b03169052565b50606084015160808401528091505092915050565b83815260018060a01b0383166020820152606060408201525f82518060608401528060208501608085015e5f608082850101526080601f19601f83011684010191505094935050505056fea2646970667358221220b7b3c65e7a2dac45d0a95038a419b97c0d19513d32ecc23f573450754b0a478764736f6c63430008190033",
            "nonce": "0x0",
            "chainId": "0x385"
          },
          "additionalContracts": [],
          "isFixedGasLimit": false
        },
        {
          "hash": "0x84a8d991b92417843807092a8e818fdf8e2ec4037acc96b75b921a6d6d6b45a6",
          "transactionType": "CALL",
          "contractName": null,
          "contractAddress": "0x4200000000000000000000000000000000000024",
          "function": null,
          "arguments": null,
          "transaction": {
            "from": "0xf39fd6e51aad88f6f4ce6ab8827279cfffb92266",
            "to": "0x4200000000000000000000000000000000000024",
            "gas": "0x157d7",
            "value": "0x8ac7230489e80000",
            "input": "0x",
            "nonce": "0x1",
            "chainId": "0x385"
          },
          "additionalContracts": [],
          "isFixedGasLimit": false
        }
      ],
      "receipts": [
        {
          "status": "0x1",
          "cumulativeGasUsed": "0xa8cd4",
          "logs": [],
          "logsBloom": "0x00000000000000000000000000000000000000000000000000000000000000000000000000000000000000000000000000000000000000000000000000000000000000000000000000000000000000000000000000000000000000000000000000000000000000000000000000000000000000000000000000000000000000000000000000000000000000000000000000000000000000000000000000000000000000000000000000000000000000000000000000000000000000000000000000000000000000000000000000000000000000000000000000000000000000000000000000000000000000000000000000000000000000000000000000000000",
          "type": "0x2",
          "transactionHash": "0x8816b460cf0f111a52b167efbb940ae35413b0ed2d72433df49a117272d923f4",
          "transactionIndex": "0x0",
          "blockHash": "0x45ca84121a31d4d1a9aecb5f8038e98bd00a37220a3427f7913e80d45a47fc97",
          "blockNumber": "0xe",
          "gasUsed": "0xa8cd4",
          "effectiveGasPrice": "0xa83a9c9",
          "blobGasPrice": "0x1",
          "from": "0xf39fd6e51aad88f6f4ce6ab8827279cfffb92266",
          "to": "0x4e59b44847b379578588920ca78fbf26c0b4956c",
          "contractAddress": null
        },
        {
          "status": "0x1",
          "cumulativeGasUsed": "0xb77ef",
          "logs": [
            {
              "address": "0x4200000000000000000000000000000000000024",
              "topics": [
                "0xe1fffcc4923d04b559f4d29a8bfc6cda04eb5b0d3c460751c2402c5c5cc9109c",
                "0x000000000000000000000000f39fd6e51aad88f6f4ce6ab8827279cfffb92266"
              ],
              "data": "0x0000000000000000000000000000000000000000000000008ac7230489e80000",
              "blockHash": "0x45ca84121a31d4d1a9aecb5f8038e98bd00a37220a3427f7913e80d45a47fc97",
              "blockNumber": "0xe",
              "blockTimestamp": "0x675fe56e",
              "transactionHash": "0x84a8d991b92417843807092a8e818fdf8e2ec4037acc96b75b921a6d6d6b45a6",
              "transactionIndex": "0x1",
              "logIndex": "0x0",
              "removed": false
            }
          ],
          "logsBloom": "0x00000000000000000000000000000000000000000000000000000000000000800000000000000000000000000000000000000000000000000000000000000000000000000000000000000000000000000000000000000000000000008000000000000000000000000000000100000000000000000000000000000000000000000000000000000000020000000004000000000001000000000000000000000000000000000000000000000000000000000000000000000000000000000000000000000000000000200000000000000000000000002000000000000000000000000000000000000000000000000000000000000000000000400000000000000000",
          "type": "0x2",
          "transactionHash": "0x84a8d991b92417843807092a8e818fdf8e2ec4037acc96b75b921a6d6d6b45a6",
          "transactionIndex": "0x1",
          "blockHash": "0x45ca84121a31d4d1a9aecb5f8038e98bd00a37220a3427f7913e80d45a47fc97",
          "blockNumber": "0xe",
          "gasUsed": "0xeb1b",
          "effectiveGasPrice": "0xa83a9c9",
          "blobGasPrice": "0x1",
          "from": "0xf39fd6e51aad88f6f4ce6ab8827279cfffb92266",
          "to": "0x4200000000000000000000000000000000000024",
          "contractAddress": null
        }
      ],
      "libraries": [],
      "pending": [],
      "returns": {},
      "timestamp": 1734337902,
      "chain": 901,
      "commit": "08fdbae"
    },
    {
      "transactions": [
        {
          "hash": "0x74547aacdd7371538ab52652cf31ad2c4c8dabb68f775e380e5db85d9bb4a719",
          "transactionType": "CREATE2",
          "contractName": "SmartDisperse",
          "contractAddress": "0xbd51694e536310631ab0163b94e5c509b4ac8c8f",
          "function": null,
          "arguments": null,
          "transaction": {
            "from": "0xf39fd6e51aad88f6f4ce6ab8827279cfffb92266",
            "to": "0x4e59b44847b379578588920ca78fbf26c0b4956c",
            "gas": "0xe9284",
            "value": "0x0",
            "input": "0x536d61727444697370657273650000000000000000000000000000000000000060806040525f80546001600160a01b0319167342000000000000000000000000000000000000231790553480156033575f80fd5b50610b18806100415f395ff3fe608060405260043610610029575f3560e01c8063afddb54514610032578063fefea5811461005157005b3661003057005b005b34801561003d575f80fd5b5061003061004c36600461075f565b610070565b34801561005c575f80fd5b5061003061006b3660046108a9565b61031b565b5f546001600160a01b03163314610099576040516265d51560e41b815260040160405180910390fd5b5f546040805163071ffbc360e31b8152905130926001600160a01b0316916338ffde189160048083019260209291908290030181865afa1580156100df573d5f803e3d5ffd5b505050506040513d601f19601f82011682018060405250810190610103919061092f565b6001600160a01b03161461012a57604051635e11715560e11b815260040160405180910390fd5b5f805b82515181101561024b578260200151818151811061014d5761014d610951565b6020026020010151826101609190610965565b91505f83604001516001600160a01b031663a9059cbb855f0151848151811061018b5761018b610951565b6020026020010151866020015185815181106101a9576101a9610951565b60200260200101516040518363ffffffff1660e01b81526004016101e29291906001600160a01b03929092168252602082015260400190565b6020604051808303815f875af11580156101fe573d5f803e3d5ffd5b505050506040513d601f19601f82011682018060405250810190610222919061098a565b905080610242576040516312171d8360e31b815260040160405180910390fd5b5060010161012d565b50816060015181146102705760405163162908e360e11b815260040160405180910390fd5b5f546040805163123ca23160e11b8152905146926001600160a01b03169163247944629160048083019260209291908290030181865afa1580156102b6573d5f803e3d5ffd5b505050506040513d601f19601f820116820180604052508101906102da91906109a9565b7f8d2fa7456103cc6e98a7598c430974c51363c67c6688f6b78e1b152a56f56e39846060015160405161030f91815260200190565b60405180910390a35050565b8382146103675760405162461bcd60e51b8152602060048201526016602482015275082e4e4c2f2e640d8cadccee8d040dad2e6dac2e8c6d60531b604482015260640160405180910390fd5b5f805b838110156103a05784848281811061038457610384610951565b90506020020135826103969190610965565b915060010161036a565b506040516323b872dd60e01b8152336004820152306024820152604481018290525f906001600160a01b038416906323b872dd906064016020604051808303815f875af11580156103f3573d5f803e3d5ffd5b505050506040513d601f19601f82011682018060405250810190610417919061098a565b905080610437576040516312171d8360e31b815260040160405180910390fd5b604051631834867b60e31b81526024602160991b01600482015230602482015260448101839052606481018990526028602160991b019063c1a433d8906084016020604051808303815f875af1158015610493573d5f803e3d5ffd5b505050506040513d601f19601f820116820180604052508101906104b791906109a9565b506040805160a0602089028083018201909352608082018981525f9383928c918c918291908601908490808284375f9201919091525050509082525060408051602089810282810182019093528982529283019290918a918a9182918501908490808284375f9201829052509385525050506001600160a01b0380881660208401526040928301879052905491519293501690637056f41f908b903090819063afddb5459061056a9088906024016109fa565b60408051808303601f1901815291815260208201805160e094851b6001600160e01b03909116179052519186901b6001600160e01b03191682526105b49493925090600401610a97565b6020604051808303815f875af11580156105d0573d5f803e3d5ffd5b505050506040513d601f19601f820116820180604052508101906105f491906109a9565b5088467f28c1960b85c2cea008c0b366ad2b9887b76699b377fb5071fb56afc6c09fe3208560405161062891815260200190565b60405180910390a3505050505050505050565b634e487b7160e01b5f52604160045260245ffd5b6040516080810167ffffffffffffffff811182821017156106725761067261063b565b60405290565b604051601f8201601f1916810167ffffffffffffffff811182821017156106a1576106a161063b565b604052919050565b5f67ffffffffffffffff8211156106c2576106c261063b565b5060051b60200190565b6001600160a01b03811681146106e0575f80fd5b50565b80356106ee816106cc565b919050565b5f82601f830112610702575f80fd5b81356020610717610712836106a9565b610678565b8083825260208201915060208460051b870101935086841115610738575f80fd5b602086015b84811015610754578035835291830191830161073d565b509695505050505050565b5f6020808385031215610770575f80fd5b823567ffffffffffffffff80821115610787575f80fd5b908401906080828703121561079a575f80fd5b6107a261064f565b8235828111156107b0575f80fd5b8301601f810188136107c0575f80fd5b80356107ce610712826106a9565b81815260059190911b8201860190868101908a8311156107ec575f80fd5b928701925b82841015610813578335610804816106cc565b825292870192908701906107f1565b84525050508284013582811115610828575f80fd5b610834888286016106f3565b8583015250610845604084016106e3565b6040820152606083013560608201528094505050505092915050565b5f8083601f840112610871575f80fd5b50813567ffffffffffffffff811115610888575f80fd5b6020830191508360208260051b85010111156108a2575f80fd5b9250929050565b5f805f805f80608087890312156108be575f80fd5b86359550602087013567ffffffffffffffff808211156108dc575f80fd5b6108e88a838b01610861565b90975095506040890135915080821115610900575f80fd5b5061090d89828a01610861565b9094509250506060870135610921816106cc565b809150509295509295509295565b5f6020828403121561093f575f80fd5b815161094a816106cc565b9392505050565b634e487b7160e01b5f52603260045260245ffd5b8082018082111561098457634e487b7160e01b5f52601160045260245ffd5b92915050565b5f6020828403121561099a575f80fd5b8151801515811461094a575f80fd5b5f602082840312156109b9575f80fd5b5051919050565b5f815180845260208085019450602084015f5b838110156109ef578151875295820195908201906001016109d3565b509495945050505050565b60208082528251608083830152805160a084018190525f9291820190839060c08601905b80831015610a475783516001600160a01b03168252928401926001929092019190840190610a1e565b5092860151858403601f1901604087015292610a6381856109c0565b93505050506040840151610a8260608501826001600160a01b03169052565b50606084015160808401528091505092915050565b83815260018060a01b0383166020820152606060408201525f82518060608401528060208501608085015e5f608082850101526080601f19601f83011684010191505094935050505056fea2646970667358221220b7b3c65e7a2dac45d0a95038a419b97c0d19513d32ecc23f573450754b0a478764736f6c63430008190033",
            "nonce": "0x0",
            "chainId": "0x386"
          },
          "additionalContracts": [],
          "isFixedGasLimit": false
        }
      ],
      "receipts": [
        {
          "status": "0x1",
          "cumulativeGasUsed": "0xa8cd4",
          "logs": [],
          "logsBloom": "0x00000000000000000000000000000000000000000000000000000000000000000000000000000000000000000000000000000000000000000000000000000000000000000000000000000000000000000000000000000000000000000000000000000000000000000000000000000000000000000000000000000000000000000000000000000000000000000000000000000000000000000000000000000000000000000000000000000000000000000000000000000000000000000000000000000000000000000000000000000000000000000000000000000000000000000000000000000000000000000000000000000000000000000000000000000000",
          "type": "0x2",
          "transactionHash": "0x74547aacdd7371538ab52652cf31ad2c4c8dabb68f775e380e5db85d9bb4a719",
          "transactionIndex": "0x0",
          "blockHash": "0x59ce3d63a708c37fbd02ddc97e46b5b1648c065481b6225e28f695b48215e21e",
          "blockNumber": "0xf",
          "gasUsed": "0xa8cd4",
          "effectiveGasPrice": "0x9333490",
          "blobGasPrice": "0x1",
          "from": "0xf39fd6e51aad88f6f4ce6ab8827279cfffb92266",
          "to": "0x4e59b44847b379578588920ca78fbf26c0b4956c",
          "contractAddress": null
        }
      ],
      "libraries": [],
      "pending": [],
      "returns": {},
      "timestamp": 1734337902,
      "chain": 902,
      "commit": "08fdbae"
    },
    {
      "transactions": [
        {
          "hash": "0x0f9101594fe73327f500e469716a80b08426ea13fc009a89f0c47258f1f7ea86",
          "transactionType": "CALL",
          "contractName": null,
          "contractAddress": "0x4200000000000000000000000000000000000024",
          "function": "approve(address,uint256)",
          "arguments": [
            "0xbD51694e536310631ab0163B94e5C509b4aC8C8F",
            "3000000000000000000"
          ],
          "transaction": {
            "from": "0xf39fd6e51aad88f6f4ce6ab8827279cfffb92266",
            "to": "0x4200000000000000000000000000000000000024",
            "gas": "0x113d9",
            "value": "0x0",
            "input": "0x095ea7b3000000000000000000000000bd51694e536310631ab0163b94e5c509b4ac8c8f00000000000000000000000000000000000000000000000029a2241af62c0000",
            "nonce": "0x2",
            "chainId": "0x385"
          },
          "additionalContracts": [],
          "isFixedGasLimit": false
        },
        {
          "hash": "0x7a8f7aa7ee22a892ee34d889e6e0ec5c399b145ca075d30bf39ae0087289cb7e",
          "transactionType": "CALL",
          "contractName": "SmartDisperse",
          "contractAddress": "0xbd51694e536310631ab0163b94e5c509b4ac8c8f",
          "function": "transferTokensTo(uint256,address[],uint256[],address)",
          "arguments": [
            "902",
            "[0x70997970C51812dc3A010C7d01b50e0d17dc79C8, 0x3C44CdDdB6a900fa2b585dd299e03d12FA4293BC]",
            "[1000000000000000000, 2000000000000000000]",
            "0x4200000000000000000000000000000000000024"
          ],
          "transaction": {
            "from": "0xf39fd6e51aad88f6f4ce6ab8827279cfffb92266",
            "to": "0xbd51694e536310631ab0163b94e5c509b4ac8c8f",
            "gas": "0x30db0",
            "value": "0x0",
            "input": "0xfefea5810000000000000000000000000000000000000000000000000000000000000386000000000000000000000000000000000000000000000000000000000000008000000000000000000000000000000000000000000000000000000000000000e00000000000000000000000004200000000000000000000000000000000000024000000000000000000000000000000000000000000000000000000000000000200000000000000000000000070997970c51812dc3a010c7d01b50e0d17dc79c80000000000000000000000003c44cdddb6a900fa2b585dd299e03d12fa4293bc00000000000000000000000000000000000000000000000000000000000000020000000000000000000000000000000000000000000000000de0b6b3a76400000000000000000000000000000000000000000000000000001bc16d674ec80000",
            "nonce": "0x3",
            "chainId": "0x385"
          },
          "additionalContracts": [],
          "isFixedGasLimit": false
        }
      ],
      "receipts": [
        {
          "status": "0x1",
          "cumulativeGasUsed": "0xc7b6",
          "logs": [
            {
              "address": "0x4200000000000000000000000000000000000024",
              "topics": [
                "0x8c5be1e5ebec7d5bd14f71427d1e84f3dd0314c0f7b2291e5b200ac8c7c3b925",
                "0x000000000000000000000000f39fd6e51aad88f6f4ce6ab8827279cfffb92266",
                "0x000000000000000000000000bd51694e536310631ab0163b94e5c509b4ac8c8f"
              ],
              "data": "0x00000000000000000000000000000000000000000000000029a2241af62c0000",
              "blockHash": "0x9fdeb25637712f088ccca501a8b0543908cf771caad75b0881118ade58187595",
              "blockNumber": "0x10",
              "blockTimestamp": "0x675fe572",
              "transactionHash": "0x0f9101594fe73327f500e469716a80b08426ea13fc009a89f0c47258f1f7ea86",
              "transactionIndex": "0x0",
              "logIndex": "0x0",
              "removed": false
            }
          ],
          "logsBloom": "0x00000000000000000000000000000000000000000000000000000000000000800000000000000000000000000000000000000000000000000000000000200000000000000000000000000000000000000000000000000000000000000000000000000000000000000000000100000000000000000000000000001000000000000000000000000000020000000004000000000000080000000000000000000000020000000000000000000000000000000000000000000000000000000000000000000000000000200000000000000000000000002000000000000400000000000010000000000000000000000000000000000000000000000000000000000000",
          "type": "0x2",
          "transactionHash": "0x0f9101594fe73327f500e469716a80b08426ea13fc009a89f0c47258f1f7ea86",
          "transactionIndex": "0x0",
          "blockHash": "0x9fdeb25637712f088ccca501a8b0543908cf771caad75b0881118ade58187595",
          "blockNumber": "0x10",
          "gasUsed": "0xc7b6",
          "effectiveGasPrice": "0x81b8e5c",
          "blobGasPrice": "0x1",
          "from": "0xf39fd6e51aad88f6f4ce6ab8827279cfffb92266",
          "to": "0x4200000000000000000000000000000000000024",
          "contractAddress": null
        },
        {
          "status": "0x1",
          "cumulativeGasUsed": "0x2fda5",
          "logs": [
            {
              "address": "0x4200000000000000000000000000000000000024",
              "topics": [
                "0xddf252ad1be2c89b69c2b068fc378daa952ba7f163c4a11628f55a4df523b3ef",
                "0x000000000000000000000000f39fd6e51aad88f6f4ce6ab8827279cfffb92266",
                "0x000000000000000000000000bd51694e536310631ab0163b94e5c509b4ac8c8f"
              ],
              "data": "0x00000000000000000000000000000000000000000000000029a2241af62c0000",
              "blockHash": "0x9fdeb25637712f088ccca501a8b0543908cf771caad75b0881118ade58187595",
              "blockNumber": "0x10",
              "blockTimestamp": "0x675fe572",
              "transactionHash": "0x7a8f7aa7ee22a892ee34d889e6e0ec5c399b145ca075d30bf39ae0087289cb7e",
              "transactionIndex": "0x1",
              "logIndex": "0x1",
              "removed": false
            },
            {
              "address": "0x4200000000000000000000000000000000000024",
              "topics": [
                "0xddf252ad1be2c89b69c2b068fc378daa952ba7f163c4a11628f55a4df523b3ef",
                "0x000000000000000000000000bd51694e536310631ab0163b94e5c509b4ac8c8f",
                "0x0000000000000000000000000000000000000000000000000000000000000000"
              ],
              "data": "0x00000000000000000000000000000000000000000000000029a2241af62c0000",
              "blockHash": "0x9fdeb25637712f088ccca501a8b0543908cf771caad75b0881118ade58187595",
              "blockNumber": "0x10",
              "blockTimestamp": "0x675fe572",
              "transactionHash": "0x7a8f7aa7ee22a892ee34d889e6e0ec5c399b145ca075d30bf39ae0087289cb7e",
              "transactionIndex": "0x1",
              "logIndex": "0x2",
              "removed": false
            },
            {
              "address": "0x4200000000000000000000000000000000000025",
              "topics": [
                "0x875e07afd7ce17c6531b1a6b7b34829dcd8b7e6639448afbd6a8e29fa1422b82",
                "0x0000000000000000000000004200000000000000000000000000000000000024"
              ],
              "data": "0x00000000000000000000000000000000000000000000000029a2241af62c0000",
              "blockHash": "0x9fdeb25637712f088ccca501a8b0543908cf771caad75b0881118ade58187595",
              "blockNumber": "0x10",
              "blockTimestamp": "0x675fe572",
              "transactionHash": "0x7a8f7aa7ee22a892ee34d889e6e0ec5c399b145ca075d30bf39ae0087289cb7e",
              "transactionIndex": "0x1",
              "logIndex": "0x3",
              "removed": false
            },
            {
              "address": "0x4200000000000000000000000000000000000024",
              "topics": [
                "0xb90795a66650155983e242cac3e1ac1a4dc26f8ed2987f3ce416a34e00111fd4",
                "0x000000000000000000000000bd51694e536310631ab0163b94e5c509b4ac8c8f",
                "0x0000000000000000000000004200000000000000000000000000000000000028"
              ],
              "data": "0x00000000000000000000000000000000000000000000000029a2241af62c0000",
              "blockHash": "0x9fdeb25637712f088ccca501a8b0543908cf771caad75b0881118ade58187595",
              "blockNumber": "0x10",
              "blockTimestamp": "0x675fe572",
              "transactionHash": "0x7a8f7aa7ee22a892ee34d889e6e0ec5c399b145ca075d30bf39ae0087289cb7e",
              "transactionIndex": "0x1",
              "logIndex": "0x4",
              "removed": false
            },
            {
              "address": "0x4200000000000000000000000000000000000023",
              "topics": [
                "0x382409ac69001e11931a28435afef442cbfd20d9891907e8fa373ba7d351f320",
                "0x0000000000000000000000000000000000000000000000000000000000000386",
                "0x0000000000000000000000004200000000000000000000000000000000000028",
                "0x0000000000000000000000000000000000000000000000000000000000000000"
              ],
              "data": "0x0000000000000000000000004200000000000000000000000000000000000028000000000000000000000000000000000000000000000000000000000000004000000000000000000000000000000000000000000000000000000000000000847cfd6dbc0000000000000000000000004200000000000000000000000000000000000024000000000000000000000000bd51694e536310631ab0163b94e5c509b4ac8c8f000000000000000000000000bd51694e536310631ab0163b94e5c509b4ac8c8f00000000000000000000000000000000000000000000000029a2241af62c000000000000000000000000000000000000000000000000000000000000",
              "blockHash": "0x9fdeb25637712f088ccca501a8b0543908cf771caad75b0881118ade58187595",
              "blockNumber": "0x10",
              "blockTimestamp": "0x675fe572",
              "transactionHash": "0x7a8f7aa7ee22a892ee34d889e6e0ec5c399b145ca075d30bf39ae0087289cb7e",
              "transactionIndex": "0x1",
              "logIndex": "0x5",
              "removed": false
            },
            {
              "address": "0x4200000000000000000000000000000000000028",
              "topics": [
                "0x0247bfe63a1aaa59e073e20b172889babfda8d3273b5798e0e9ac4388e6dd11c",
                "0x0000000000000000000000004200000000000000000000000000000000000024",
                "0x000000000000000000000000bd51694e536310631ab0163b94e5c509b4ac8c8f",
                "0x000000000000000000000000bd51694e536310631ab0163b94e5c509b4ac8c8f"
              ],
              "data": "0x00000000000000000000000000000000000000000000000029a2241af62c00000000000000000000000000000000000000000000000000000000000000000386",
              "blockHash": "0x9fdeb25637712f088ccca501a8b0543908cf771caad75b0881118ade58187595",
              "blockNumber": "0x10",
              "blockTimestamp": "0x675fe572",
              "transactionHash": "0x7a8f7aa7ee22a892ee34d889e6e0ec5c399b145ca075d30bf39ae0087289cb7e",
              "transactionIndex": "0x1",
              "logIndex": "0x6",
              "removed": false
            },
            {
              "address": "0x4200000000000000000000000000000000000023",
              "topics": [
                "0x382409ac69001e11931a28435afef442cbfd20d9891907e8fa373ba7d351f320",
                "0x0000000000000000000000000000000000000000000000000000000000000386",
                "0x000000000000000000000000bd51694e536310631ab0163b94e5c509b4ac8c8f",
                "0x0000000000000000000000000000000000000000000000000000000000000001"
              ],
              "data": "0x000000000000000000000000bd51694e536310631ab0163b94e5c509b4ac8c8f00000000000000000000000000000000000000000000000000000000000000400000000000000000000000000000000000000000000000000000000000000164afddb5450000000000000000000000000000000000000000000000000000000000000020000000000000000000000000000000000000000000000000000000000000008000000000000000000000000000000000000000000000000000000000000000e0000000000000000000000000420000000000000000000000000000000000002400000000000000000000000000000000000000000000000029a2241af62c0000000000000000000000000000000000000000000000000000000000000000000200000000000000000000000070997970c51812dc3a010c7d01b50e0d17dc79c80000000000000000000000003c44cdddb6a900fa2b585dd299e03d12fa4293bc00000000000000000000000000000000000000000000000000000000000000020000000000000000000000000000000000000000000000000de0b6b3a76400000000000000000000000000000000000000000000000000001bc16d674ec8000000000000000000000000000000000000000000000000000000000000",
              "blockHash": "0x9fdeb25637712f088ccca501a8b0543908cf771caad75b0881118ade58187595",
              "blockNumber": "0x10",
              "blockTimestamp": "0x675fe572",
              "transactionHash": "0x7a8f7aa7ee22a892ee34d889e6e0ec5c399b145ca075d30bf39ae0087289cb7e",
              "transactionIndex": "0x1",
              "logIndex": "0x7",
              "removed": false
            },
            {
              "address": "0xbd51694e536310631ab0163b94e5c509b4ac8c8f",
              "topics": [
                "0x28c1960b85c2cea008c0b366ad2b9887b76699b377fb5071fb56afc6c09fe320",
                "0x0000000000000000000000000000000000000000000000000000000000000385",
                "0x0000000000000000000000000000000000000000000000000000000000000386"
              ],
              "data": "0x00000000000000000000000000000000000000000000000029a2241af62c0000",
              "blockHash": "0x9fdeb25637712f088ccca501a8b0543908cf771caad75b0881118ade58187595",
              "blockNumber": "0x10",
              "blockTimestamp": "0x675fe572",
              "transactionHash": "0x7a8f7aa7ee22a892ee34d889e6e0ec5c399b145ca075d30bf39ae0087289cb7e",
              "transactionIndex": "0x1",
              "logIndex": "0x8",
              "removed": false
            }
          ],
          "logsBloom": "0x20008002000800020000000000000000000000000000000000000000000200800000000000000000000000000000000000000000000040008008000000040000000000000000000002000008000000000000000000040104000000000000000000002208020000000040000100000800000000002000080041001010000000108000800000000000020000000004000000000000080000000000011000000000040000000000000000000002000000000000010000010000000000000000000800000002000008200000000000000000000000102000000010000400000060020000008000080000000000001800000000010000000000000000000000000000",
          "type": "0x2",
          "transactionHash": "0x7a8f7aa7ee22a892ee34d889e6e0ec5c399b145ca075d30bf39ae0087289cb7e",
          "transactionIndex": "0x1",
          "blockHash": "0x9fdeb25637712f088ccca501a8b0543908cf771caad75b0881118ade58187595",
          "blockNumber": "0x10",
          "gasUsed": "0x235ef",
          "effectiveGasPrice": "0x81b8e5c",
          "blobGasPrice": "0x1",
          "from": "0xf39fd6e51aad88f6f4ce6ab8827279cfffb92266",
          "to": "0xbd51694e536310631ab0163b94e5c509b4ac8c8f",
          "contractAddress": null
        }
      ],
      "libraries": [],
      "pending": [],
      "returns": {},
      "timestamp": 1734337902,
      "chain": 901,
      "commit": "08fdbae"
    }
  ],
  "timestamp": 1734337906
}