{
  "deployments": [
    {
      "transactions": [
        {
          "hash": "0xd0fd18bc5a79f487e66e996ffbabf3fdca8964ee5946b1db85de9366daaeab3a",
          "transactionType": "CREATE",
          "contractName": "SmartDisperse",
          "contractAddress": "0x99bba657f2bbc93c02d617f8ba121cb8fc104acf",
          "function": null,
          "arguments": null,
          "transaction": {
            "from": "0xf39fd6e51aad88f6f4ce6ab8827279cfffb92266",
            "gas": "0xb7a46",
            "value": "0x0",
            "input": "0x60806040525f80546001600160a01b0319167342000000000000000000000000000000000000231790553480156033575f80fd5b50610915806100415f395ff3fe608060405234801561000f575f80fd5b5060043610610034575f3560e01c8063afddb54514610038578063fefea5811461004d575b5f80fd5b61004b6100463660046105af565b610060565b005b61004b61005b36600461064c565b610310565b5f546001600160a01b03163314610089576040516265d51560e41b815260040160405180910390fd5b5f546040805163071ffbc360e31b8152905130926001600160a01b0316916338ffde189160048083019260209291908290030181865afa1580156100cf573d5f803e3d5ffd5b505050506040513d601f19601f820116820180604052508101906100f391906106d2565b6001600160a01b03161461011a57604051635e11715560e11b815260040160405180910390fd5b5f805b61012783806106ed565b905081101561026a5761013d60208401846106ed565b8281811061014d5761014d610733565b905060200201358261015f9190610747565b91505f610172606085016040860161076c565b6001600160a01b031663a9059cbb61018a86806106ed565b8581811061019a5761019a610733565b90506020020160208101906101af919061076c565b6101bc60208801886106ed565b868181106101cc576101cc610733565b6040516001600160e01b031960e087901b1681526001600160a01b03909416600485015260200291909101356024830152506044016020604051808303815f875af115801561021d573d5f803e3d5ffd5b505050506040513d601f19601f820116820180604052508101906102419190610787565b905080610261576040516312171d8360e31b815260040160405180910390fd5b5060010161011d565b505f546040805163123ca23160e11b8152905146926001600160a01b03169163247944629160048083019260209291908290030181865afa1580156102b1573d5f803e3d5ffd5b505050506040513d601f19601f820116820180604052508101906102d591906107a6565b604051606085013581527f8d2fa7456103cc6e98a7598c430974c51363c67c6688f6b78e1b152a56f56e399060200160405180910390a35050565b83821461035c5760405162461bcd60e51b8152602060048201526016602482015275082e4e4c2f2e640d8cadccee8d040dad2e6dac2e8c6d60531b604482015260640160405180910390fd5b5f805b838110156103955784848281811061037957610379610733565b905060200201358261038b9190610747565b915060010161035f565b506040516323b872dd60e01b8152336004820152306024820152604481018290525f906001600160a01b038416906323b872dd906064016020604051808303815f875af11580156103e8573d5f803e3d5ffd5b505050506040513d601f19601f8201168201806040525081019061040c9190610787565b90508061042c576040516312171d8360e31b815260040160405180910390fd5b6040805160a0602089028083018201909352608082018981525f9383928c918c918291908601908490808284375f9201919091525050509082525060408051602089810282810182019093528982529283019290918a918a9182918501908490808284375f9201829052509385525050506001600160a01b0380881660208401526040928301879052905491519293501690637056f41f908b903090819063afddb545906104de9088906024016107f7565b60408051808303601f1901815291815260208201805160e094851b6001600160e01b03909116179052519186901b6001600160e01b03191682526105289493925090600401610894565b6020604051808303815f875af1158015610544573d5f803e3d5ffd5b505050506040513d601f19601f8201168201806040525081019061056891906107a6565b5088467f28c1960b85c2cea008c0b366ad2b9887b76699b377fb5071fb56afc6c09fe3208560405161059c91815260200190565b60405180910390a3505050505050505050565b5f602082840312156105bf575f80fd5b813567ffffffffffffffff8111156105d5575f80fd5b8201608081850312156105e6575f80fd5b9392505050565b5f8083601f8401126105fd575f80fd5b50813567ffffffffffffffff811115610614575f80fd5b6020830191508360208260051b850101111561062e575f80fd5b9250929050565b6001600160a01b0381168114610649575f80fd5b50565b5f805f805f8060808789031215610661575f80fd5b86359550602087013567ffffffffffffffff8082111561067f575f80fd5b61068b8a838b016105ed565b909750955060408901359150808211156106a3575f80fd5b506106b089828a016105ed565b90945092505060608701356106c481610635565b809150509295509295509295565b5f602082840312156106e2575f80fd5b81516105e681610635565b5f808335601e19843603018112610702575f80fd5b83018035915067ffffffffffffffff82111561071c575f80fd5b6020019150600581901b360382131561062e575f80fd5b634e487b7160e01b5f52603260045260245ffd5b8082018082111561076657634e487b7160e01b5f52601160045260245ffd5b92915050565b5f6020828403121561077c575f80fd5b81356105e681610635565b5f60208284031215610797575f80fd5b815180151581146105e6575f80fd5b5f602082840312156107b6575f80fd5b5051919050565b5f815180845260208085019450602084015f5b838110156107ec578151875295820195908201906001016107d0565b509495945050505050565b60208082528251608083830152805160a084018190525f9291820190839060c08601905b808310156108445783516001600160a01b0316825292840192600192909201919084019061081b565b5092860151858403601f190160408701529261086081856107bd565b9350505050604084015161087f60608501826001600160a01b03169052565b50606084015160808401528091505092915050565b83815260018060a01b0383166020820152606060408201525f82518060608401528060208501608085015e5f608082850101526080601f19601f83011684010191505094935050505056fea2646970667358221220a4104714e53a7046481ecedb308b5cf9a98e38f1206a85f8f0f9e4f8b28e50f964736f6c63430008190033",
            "nonce": "0x2a",
            "chainId": "0x385"
          },
          "additionalContracts": [],
          "isFixedGasLimit": false
        },
        {
          "hash": "0x7ae7fdfb57b9b9ca1457d8a0278fd5d521df946b88b93f1aea7415647e7049bd",
          "transactionType": "CALL",
          "contractName": null,
          "contractAddress": "0x4200000000000000000000000000000000000024",
          "function": null,
          "arguments": null,
          "transaction": {
            "from": "0xf39fd6e51aad88f6f4ce6ab8827279cfffb92266",
            "to": "0x4200000000000000000000000000000000000024",
            "gas": "0xe878",
            "value": "0x8ac7230489e80000",
            "input": "0x",
            "nonce": "0x2b",
            "chainId": "0x385"
          },
          "additionalContracts": [],
          "isFixedGasLimit": false
        }
      ],
      "receipts": [
        {
          "status": "0x1",
          "cumulativeGasUsed": "0x8d436",
          "logs": [],
          "logsBloom": "0x00000000000000000000000000000000000000000000000000000000000000000000000000000000000000000000000000000000000000000000000000000000000000000000000000000000000000000000000000000000000000000000000000000000000000000000000000000000000000000000000000000000000000000000000000000000000000000000000000000000000000000000000000000000000000000000000000000000000000000000000000000000000000000000000000000000000000000000000000000000000000000000000000000000000000000000000000000000000000000000000000000000000000000000000000000000",
          "type": "0x2",
          "transactionHash": "0xd0fd18bc5a79f487e66e996ffbabf3fdca8964ee5946b1db85de9366daaeab3a",
          "transactionIndex": "0x0",
          "blockHash": "0x7a774e90d8c13ab48bda522d3efd04b55c486ae55b4ce89b79990eb86a779781",
          "blockNumber": "0x96e",
          "gasUsed": "0x8d436",
          "effectiveGasPrice": "0x8",
          "blobGasPrice": "0x1",
          "from": "0xf39fd6e51aad88f6f4ce6ab8827279cfffb92266",
          "to": null,
          "contractAddress": "0x99bba657f2bbc93c02d617f8ba121cb8fc104acf"
        },
        {
          "status": "0x1",
          "cumulativeGasUsed": "0x97c85",
          "logs": [
            {
              "address": "0x4200000000000000000000000000000000000024",
              "topics": [
                "0xe1fffcc4923d04b559f4d29a8bfc6cda04eb5b0d3c460751c2402c5c5cc9109c",
                "0x000000000000000000000000f39fd6e51aad88f6f4ce6ab8827279cfffb92266"
              ],
              "data": "0x0000000000000000000000000000000000000000000000008ac7230489e80000",
              "blockHash": "0x7a774e90d8c13ab48bda522d3efd04b55c486ae55b4ce89b79990eb86a779781",
              "blockNumber": "0x96e",
              "blockTimestamp": "0x6746ff80",
              "transactionHash": "0x7ae7fdfb57b9b9ca1457d8a0278fd5d521df946b88b93f1aea7415647e7049bd",
              "transactionIndex": "0x1",
              "logIndex": "0x0",
              "removed": false
            }
          ],
          "logsBloom": "0x00000000000000000000000000000000000000000000000000000000000000800000000000000000000000000000000000000000000000000000000000000000000000000000000000000000000000000000000000000000000000008000000000000000000000000000000100000000000000000000000000000000000000000000000000000000020000000004000000000001000000000000000000000000000000000000000000000000000000000000000000000000000000000000000000000000000000200000000000000000000000002000000000000000000000000000000000000000000000000000000000000000000000400000000000000000",
          "type": "0x2",
          "transactionHash": "0x7ae7fdfb57b9b9ca1457d8a0278fd5d521df946b88b93f1aea7415647e7049bd",
          "transactionIndex": "0x1",
          "blockHash": "0x7a774e90d8c13ab48bda522d3efd04b55c486ae55b4ce89b79990eb86a779781",
          "blockNumber": "0x96e",
          "gasUsed": "0xa84f",
          "effectiveGasPrice": "0x8",
          "blobGasPrice": "0x1",
          "from": "0xf39fd6e51aad88f6f4ce6ab8827279cfffb92266",
          "to": "0x4200000000000000000000000000000000000024",
          "contractAddress": null
        }
      ],
      "libraries": [],
      "pending": [],
      "returns": {},
      "timestamp": 1732706174,
      "chain": 901,
      "commit": "8a335fb"
    },
    {
      "transactions": [
        {
          "hash": "0xa5e485a03160ef5d2616fa51d576da2e2036243059779963040e19ef100ffe71",
          "transactionType": "CREATE",
          "contractName": "SmartDisperse",
          "contractAddress": "0x610178da211fef7d417bc0e6fed39f05609ad788",
          "function": null,
          "arguments": null,
          "transaction": {
            "from": "0xf39fd6e51aad88f6f4ce6ab8827279cfffb92266",
            "gas": "0xb7a46",
            "value": "0x0",
            "input": "0x60806040525f80546001600160a01b0319167342000000000000000000000000000000000000231790553480156033575f80fd5b50610915806100415f395ff3fe608060405234801561000f575f80fd5b5060043610610034575f3560e01c8063afddb54514610038578063fefea5811461004d575b5f80fd5b61004b6100463660046105af565b610060565b005b61004b61005b36600461064c565b610310565b5f546001600160a01b03163314610089576040516265d51560e41b815260040160405180910390fd5b5f546040805163071ffbc360e31b8152905130926001600160a01b0316916338ffde189160048083019260209291908290030181865afa1580156100cf573d5f803e3d5ffd5b505050506040513d601f19601f820116820180604052508101906100f391906106d2565b6001600160a01b03161461011a57604051635e11715560e11b815260040160405180910390fd5b5f805b61012783806106ed565b905081101561026a5761013d60208401846106ed565b8281811061014d5761014d610733565b905060200201358261015f9190610747565b91505f610172606085016040860161076c565b6001600160a01b031663a9059cbb61018a86806106ed565b8581811061019a5761019a610733565b90506020020160208101906101af919061076c565b6101bc60208801886106ed565b868181106101cc576101cc610733565b6040516001600160e01b031960e087901b1681526001600160a01b03909416600485015260200291909101356024830152506044016020604051808303815f875af115801561021d573d5f803e3d5ffd5b505050506040513d601f19601f820116820180604052508101906102419190610787565b905080610261576040516312171d8360e31b815260040160405180910390fd5b5060010161011d565b505f546040805163123ca23160e11b8152905146926001600160a01b03169163247944629160048083019260209291908290030181865afa1580156102b1573d5f803e3d5ffd5b505050506040513d601f19601f820116820180604052508101906102d591906107a6565b604051606085013581527f8d2fa7456103cc6e98a7598c430974c51363c67c6688f6b78e1b152a56f56e399060200160405180910390a35050565b83821461035c5760405162461bcd60e51b8152602060048201526016602482015275082e4e4c2f2e640d8cadccee8d040dad2e6dac2e8c6d60531b604482015260640160405180910390fd5b5f805b838110156103955784848281811061037957610379610733565b905060200201358261038b9190610747565b915060010161035f565b506040516323b872dd60e01b8152336004820152306024820152604481018290525f906001600160a01b038416906323b872dd906064016020604051808303815f875af11580156103e8573d5f803e3d5ffd5b505050506040513d601f19601f8201168201806040525081019061040c9190610787565b90508061042c576040516312171d8360e31b815260040160405180910390fd5b6040805160a0602089028083018201909352608082018981525f9383928c918c918291908601908490808284375f9201919091525050509082525060408051602089810282810182019093528982529283019290918a918a9182918501908490808284375f9201829052509385525050506001600160a01b0380881660208401526040928301879052905491519293501690637056f41f908b903090819063afddb545906104de9088906024016107f7565b60408051808303601f1901815291815260208201805160e094851b6001600160e01b03909116179052519186901b6001600160e01b03191682526105289493925090600401610894565b6020604051808303815f875af1158015610544573d5f803e3d5ffd5b505050506040513d601f19601f8201168201806040525081019061056891906107a6565b5088467f28c1960b85c2cea008c0b366ad2b9887b76699b377fb5071fb56afc6c09fe3208560405161059c91815260200190565b60405180910390a3505050505050505050565b5f602082840312156105bf575f80fd5b813567ffffffffffffffff8111156105d5575f80fd5b8201608081850312156105e6575f80fd5b9392505050565b5f8083601f8401126105fd575f80fd5b50813567ffffffffffffffff811115610614575f80fd5b6020830191508360208260051b850101111561062e575f80fd5b9250929050565b6001600160a01b0381168114610649575f80fd5b50565b5f805f805f8060808789031215610661575f80fd5b86359550602087013567ffffffffffffffff8082111561067f575f80fd5b61068b8a838b016105ed565b909750955060408901359150808211156106a3575f80fd5b506106b089828a016105ed565b90945092505060608701356106c481610635565b809150509295509295509295565b5f602082840312156106e2575f80fd5b81516105e681610635565b5f808335601e19843603018112610702575f80fd5b83018035915067ffffffffffffffff82111561071c575f80fd5b6020019150600581901b360382131561062e575f80fd5b634e487b7160e01b5f52603260045260245ffd5b8082018082111561076657634e487b7160e01b5f52601160045260245ffd5b92915050565b5f6020828403121561077c575f80fd5b81356105e681610635565b5f60208284031215610797575f80fd5b815180151581146105e6575f80fd5b5f602082840312156107b6575f80fd5b5051919050565b5f815180845260208085019450602084015f5b838110156107ec578151875295820195908201906001016107d0565b509495945050505050565b60208082528251608083830152805160a084018190525f9291820190839060c08601905b808310156108445783516001600160a01b0316825292840192600192909201919084019061081b565b5092860151858403601f190160408701529261086081856107bd565b9350505050604084015161087f60608501826001600160a01b03169052565b50606084015160808401528091505092915050565b83815260018060a01b0383166020820152606060408201525f82518060608401528060208501608085015e5f608082850101526080601f19601f83011684010191505094935050505056fea2646970667358221220a4104714e53a7046481ecedb308b5cf9a98e38f1206a85f8f0f9e4f8b28e50f964736f6c63430008190033",
            "nonce": "0xa",
            "chainId": "0x386"
          },
          "additionalContracts": [],
          "isFixedGasLimit": false
        }
      ],
      "receipts": [
        {
          "status": "0x1",
          "cumulativeGasUsed": "0x8d436",
          "logs": [],
          "logsBloom": "0x00000000000000000000000000000000000000000000000000000000000000000000000000000000000000000000000000000000000000000000000000000000000000000000000000000000000000000000000000000000000000000000000000000000000000000000000000000000000000000000000000000000000000000000000000000000000000000000000000000000000000000000000000000000000000000000000000000000000000000000000000000000000000000000000000000000000000000000000000000000000000000000000000000000000000000000000000000000000000000000000000000000000000000000000000000000",
          "type": "0x2",
          "transactionHash": "0xa5e485a03160ef5d2616fa51d576da2e2036243059779963040e19ef100ffe71",
          "transactionIndex": "0x0",
          "blockHash": "0x6e726da0d6b43813b815335ee703e7e1169c9ec11d9428c3271cd17b5fa4a86e",
          "blockNumber": "0x96f",
          "gasUsed": "0x8d436",
          "effectiveGasPrice": "0x8",
          "blobGasPrice": "0x1",
          "from": "0xf39fd6e51aad88f6f4ce6ab8827279cfffb92266",
          "to": null,
          "contractAddress": "0x610178da211fef7d417bc0e6fed39f05609ad788"
        }
      ],
      "libraries": [],
      "pending": [],
      "returns": {},
      "timestamp": 1732706174,
      "chain": 902,
      "commit": "8a335fb"
    },
    {
      "transactions": [
        {
          "hash": "0xca660705d17fe51cf10a1850f28fe5e77ad552c85ab3700cfca66a478dc1888a",
          "transactionType": "CALL",
          "contractName": null,
          "contractAddress": "0x4200000000000000000000000000000000000024",
          "function": "approve(address,uint256)",
          "arguments": [
            "0x99bbA657f2BbC93c02D617f8bA121cB8Fc104Acf",
            "3000000000000000000"
          ],
          "transaction": {
            "from": "0xf39fd6e51aad88f6f4ce6ab8827279cfffb92266",
            "to": "0x4200000000000000000000000000000000000024",
            "gas": "0x1240c",
            "value": "0x0",
            "input": "0x095ea7b300000000000000000000000099bba657f2bbc93c02d617f8ba121cb8fc104acf00000000000000000000000000000000000000000000000029a2241af62c0000",
            "nonce": "0x2c",
            "chainId": "0x385"
          },
          "additionalContracts": [],
          "isFixedGasLimit": false
        },
        {
          "hash": "0xd7ff77219853dbb8a8b57274ea2d1d26f1a9dcf6052af2a225d54f956feba43e",
          "transactionType": "CALL",
          "contractName": "SmartDisperse",
          "contractAddress": "0x99bba657f2bbc93c02d617f8ba121cb8fc104acf",
          "function": "transferTokensTo(uint256,address[],uint256[],address)",
          "arguments": [
            "902",
            "[0x70997970C51812dc3A010C7d01b50e0d17dc79C8, 0x3C44CdDdB6a900fa2b585dd299e03d12FA4293BC]",
            "[1000000000000000000, 2000000000000000000]",
            "0x4200000000000000000000000000000000000024"
          ],
          "transaction": {
            "from": "0xf39fd6e51aad88f6f4ce6ab8827279cfffb92266",
            "to": "0x99bba657f2bbc93c02d617f8ba121cb8fc104acf",
            "gas": "0x1e488",
            "value": "0x0",
            "input": "0xfefea5810000000000000000000000000000000000000000000000000000000000000386000000000000000000000000000000000000000000000000000000000000008000000000000000000000000000000000000000000000000000000000000000e00000000000000000000000004200000000000000000000000000000000000024000000000000000000000000000000000000000000000000000000000000000200000000000000000000000070997970c51812dc3a010c7d01b50e0d17dc79c80000000000000000000000003c44cdddb6a900fa2b585dd299e03d12fa4293bc00000000000000000000000000000000000000000000000000000000000000020000000000000000000000000000000000000000000000000de0b6b3a76400000000000000000000000000000000000000000000000000001bc16d674ec80000",
            "nonce": "0x2d",
            "chainId": "0x385"
          },
          "additionalContracts": [],
          "isFixedGasLimit": false
        }
      ],
      "receipts": [
        {
          "status": "0x1",
          "cumulativeGasUsed": "0xc7b1",
          "logs": [
            {
              "address": "0x4200000000000000000000000000000000000024",
              "topics": [
                "0x8c5be1e5ebec7d5bd14f71427d1e84f3dd0314c0f7b2291e5b200ac8c7c3b925",
                "0x000000000000000000000000f39fd6e51aad88f6f4ce6ab8827279cfffb92266",
                "0x00000000000000000000000099bba657f2bbc93c02d617f8ba121cb8fc104acf"
              ],
              "data": "0x00000000000000000000000000000000000000000000000029a2241af62c0000",
              "blockHash": "0xfb0ff5d743e743848c0d5bcc5d4836878e14ab7aeac324b96974ff218fc00b09",
              "blockNumber": "0x970",
              "blockTimestamp": "0x6746ff84",
              "transactionHash": "0xca660705d17fe51cf10a1850f28fe5e77ad552c85ab3700cfca66a478dc1888a",
              "transactionIndex": "0x0",
              "logIndex": "0x0",
              "removed": false
            }
          ],
          "logsBloom": "0x00000000000000000000000000000000000000000000000000000000000000800000000000000000000000000000000000000000010000000000000000200000000000000000000000000000000000000000000000000000000000000000000000000000000000000000000100000000000000000000000000000000000000000000000000000000120000000004000000000000000000000000000000000000020000000000000000000000000000000000000000000000000000000000000000000000200000200000000000000000000000002000000000000000000000000010000000000000000000000000000000000000000000000000000000000000",
          "type": "0x2",
          "transactionHash": "0xca660705d17fe51cf10a1850f28fe5e77ad552c85ab3700cfca66a478dc1888a",
          "transactionIndex": "0x0",
          "blockHash": "0xfb0ff5d743e743848c0d5bcc5d4836878e14ab7aeac324b96974ff218fc00b09",
          "blockNumber": "0x970",
          "gasUsed": "0xc7b1",
          "effectiveGasPrice": "0x8",
          "blobGasPrice": "0x1",
          "from": "0xf39fd6e51aad88f6f4ce6ab8827279cfffb92266",
          "to": "0x4200000000000000000000000000000000000024",
          "contractAddress": null
        },
        {
          "status": "0x1",
          "cumulativeGasUsed": "0x2267d",
          "logs": [
            {
              "address": "0x4200000000000000000000000000000000000024",
              "topics": [
                "0xddf252ad1be2c89b69c2b068fc378daa952ba7f163c4a11628f55a4df523b3ef",
                "0x000000000000000000000000f39fd6e51aad88f6f4ce6ab8827279cfffb92266",
                "0x00000000000000000000000099bba657f2bbc93c02d617f8ba121cb8fc104acf"
              ],
              "data": "0x00000000000000000000000000000000000000000000000029a2241af62c0000",
              "blockHash": "0xfb0ff5d743e743848c0d5bcc5d4836878e14ab7aeac324b96974ff218fc00b09",
              "blockNumber": "0x970",
              "blockTimestamp": "0x6746ff84",
              "transactionHash": "0xd7ff77219853dbb8a8b57274ea2d1d26f1a9dcf6052af2a225d54f956feba43e",
              "transactionIndex": "0x1",
              "logIndex": "0x1",
              "removed": false
            },
            {
              "address": "0x4200000000000000000000000000000000000023",
              "topics": [
                "0x382409ac69001e11931a28435afef442cbfd20d9891907e8fa373ba7d351f320",
                "0x0000000000000000000000000000000000000000000000000000000000000386",
                "0x00000000000000000000000099bba657f2bbc93c02d617f8ba121cb8fc104acf",
                "0x000000000000000000000000000000000000000000000000000000000000000b"
              ],
              "data": "0x00000000000000000000000099bba657f2bbc93c02d617f8ba121cb8fc104acf00000000000000000000000000000000000000000000000000000000000000400000000000000000000000000000000000000000000000000000000000000164afddb5450000000000000000000000000000000000000000000000000000000000000020000000000000000000000000000000000000000000000000000000000000008000000000000000000000000000000000000000000000000000000000000000e0000000000000000000000000420000000000000000000000000000000000002400000000000000000000000000000000000000000000000029a2241af62c0000000000000000000000000000000000000000000000000000000000000000000200000000000000000000000070997970c51812dc3a010c7d01b50e0d17dc79c80000000000000000000000003c44cdddb6a900fa2b585dd299e03d12fa4293bc00000000000000000000000000000000000000000000000000000000000000020000000000000000000000000000000000000000000000000de0b6b3a76400000000000000000000000000000000000000000000000000001bc16d674ec8000000000000000000000000000000000000000000000000000000000000",
              "blockHash": "0xfb0ff5d743e743848c0d5bcc5d4836878e14ab7aeac324b96974ff218fc00b09",
              "blockNumber": "0x970",
              "blockTimestamp": "0x6746ff84",
              "transactionHash": "0xd7ff77219853dbb8a8b57274ea2d1d26f1a9dcf6052af2a225d54f956feba43e",
              "transactionIndex": "0x1",
              "logIndex": "0x2",
              "removed": false
            },
            {
              "address": "0x99bba657f2bbc93c02d617f8ba121cb8fc104acf",
              "topics": [
                "0x28c1960b85c2cea008c0b366ad2b9887b76699b377fb5071fb56afc6c09fe320",
                "0x0000000000000000000000000000000000000000000000000000000000000385",
                "0x0000000000000000000000000000000000000000000000000000000000000386"
              ],
              "data": "0x00000000000000000000000000000000000000000000000029a2241af62c0000",
              "blockHash": "0xfb0ff5d743e743848c0d5bcc5d4836878e14ab7aeac324b96974ff218fc00b09",
              "blockNumber": "0x970",
              "blockTimestamp": "0x6746ff84",
              "transactionHash": "0xd7ff77219853dbb8a8b57274ea2d1d26f1a9dcf6052af2a225d54f956feba43e",
              "transactionIndex": "0x1",
              "logIndex": "0x3",
              "removed": false
            }
          ],
          "logsBloom": "0x20000000000000020000004000000000000000000000000000000000000000800000000000000000000000000000000000000000010040000008000000000000000000000000000002000008000000000000000000000100000000000000000000000100000000000040000100000000000000080000000000000010000000000000800000000000120000000004000000000000000000000000001000000000040000000000000000000002000000000000010000000000000000000000000000000002200000200000000000000000002000102000000000100000000000000000000000000000000000001800000000000000000000040000000000000000",
          "type": "0x2",
          "transactionHash": "0xd7ff77219853dbb8a8b57274ea2d1d26f1a9dcf6052af2a225d54f956feba43e",
          "transactionIndex": "0x1",
          "blockHash": "0xfb0ff5d743e743848c0d5bcc5d4836878e14ab7aeac324b96974ff218fc00b09",
          "blockNumber": "0x970",
          "gasUsed": "0x15ecc",
          "effectiveGasPrice": "0x8",
          "blobGasPrice": "0x1",
          "from": "0xf39fd6e51aad88f6f4ce6ab8827279cfffb92266",
          "to": "0x99bba657f2bbc93c02d617f8ba121cb8fc104acf",
          "contractAddress": null
        }
      ],
      "libraries": [],
      "pending": [],
      "returns": {},
      "timestamp": 1732706174,
      "chain": 901,
      "commit": "8a335fb"
    }
  ],
  "timestamp": 1732706180
}