{
  "transactions": [
    {
      "hash": "0x058e90a6ecc1084d7f2cd2b27d4b57f3dc2551d84eed2c633b83f6c4af5c84a9",
      "transactionType": "CALL",
      "contractName": null,
      "contractAddress": "0x4200000000000000000000000000000000000024",
      "function": null,
      "arguments": null,
      "transaction": {
        "from": "0xf39fd6e51aad88f6f4ce6ab8827279cfffb92266",
        "to": "0x4200000000000000000000000000000000000024",
        "gas": "0xe878",
        "value": "0xde0b6b3a7640000",
        "input": "0x",
        "nonce": "0x6",
        "chainId": "0x385"
      },
      "additionalContracts": [],
      "isFixedGasLimit": false
    },
    {
      "hash": "0x36b04b858296b5d42a945dc4653314c7387ae8ec9b5fde8801c547682c6de924",
      "transactionType": "CALL",
      "contractName": null,
      "contractAddress": "0x4200000000000000000000000000000000000028",
      "function": "sendERC20(address,address,uint256,uint256)",
      "arguments": [
        "0x4200000000000000000000000000000000000024",
        "0xf39Fd6e51aad88F6F4ce6aB8827279cffFb92266",
        "1000000000000000000",
        "902"
      ],
      "transaction": {
        "from": "0xf39fd6e51aad88f6f4ce6ab8827279cfffb92266",
        "to": "0x4200000000000000000000000000000000000028",
        "gas": "0x21990",
        "value": "0x0",
        "input": "0xc1a433d80000000000000000000000004200000000000000000000000000000000000024000000000000000000000000f39fd6e51aad88f6f4ce6ab8827279cfffb922660000000000000000000000000000000000000000000000000de0b6b3a76400000000000000000000000000000000000000000000000000000000000000000386",
        "nonce": "0x7",
        "chainId": "0x385"
      },
      "additionalContracts": [],
      "isFixedGasLimit": false
    }
  ],
  "receipts": [
    {
      "status": "0x1",
      "cumulativeGasUsed": "0xa84f",
      "logs": [
        {
          "address": "0x4200000000000000000000000000000000000024",
          "topics": [
            "0xe1fffcc4923d04b559f4d29a8bfc6cda04eb5b0d3c460751c2402c5c5cc9109c",
            "0x000000000000000000000000f39fd6e51aad88f6f4ce6ab8827279cfffb92266"
          ],
          "data": "0x0000000000000000000000000000000000000000000000000de0b6b3a7640000",
          "blockHash": "0x70d40a8bd50f313d9826c18fd83b08590a2d82e43c92715ce4546aa4266daaa8",
          "blockNumber": "0x237",
          "blockTimestamp": "0x6746f112",
          "transactionHash": "0x058e90a6ecc1084d7f2cd2b27d4b57f3dc2551d84eed2c633b83f6c4af5c84a9",
          "transactionIndex": "0x0",
          "logIndex": "0x0",
          "removed": false
        }
      ],
      "logsBloom": "0x00000000000000000000000000000000000000000000000000000000000000800000000000000000000000000000000000000000000000000000000000000000000000000000000000000000000000000000000000000000000000008000000000000000000000000000000100000000000000000000000000000000000000000000000000000000020000000004000000000001000000000000000000000000000000000000000000000000000000000000000000000000000000000000000000000000000000200000000000000000000000002000000000000000000000000000000000000000000000000000000000000000000000400000000000000000",
      "type": "0x2",
      "transactionHash": "0x058e90a6ecc1084d7f2cd2b27d4b57f3dc2551d84eed2c633b83f6c4af5c84a9",
      "transactionIndex": "0x0",
      "blockHash": "0x70d40a8bd50f313d9826c18fd83b08590a2d82e43c92715ce4546aa4266daaa8",
      "blockNumber": "0x237",
      "gasUsed": "0xa84f",
      "effectiveGasPrice": "0x8",
      "blobGasPrice": "0x1",
      "from": "0xf39fd6e51aad88f6f4ce6ab8827279cfffb92266",
      "to": "0x4200000000000000000000000000000000000024",
      "contractAddress": null
    },
    {
      "status": "0x1",
      "cumulativeGasUsed": "0x217e0",
      "logs": [
        {
          "address": "0x4200000000000000000000000000000000000024",
          "topics": [
            "0xddf252ad1be2c89b69c2b068fc378daa952ba7f163c4a11628f55a4df523b3ef",
            "0x000000000000000000000000f39fd6e51aad88f6f4ce6ab8827279cfffb92266",
            "0x0000000000000000000000000000000000000000000000000000000000000000"
          ],
          "data": "0x0000000000000000000000000000000000000000000000000de0b6b3a7640000",
          "blockHash": "0x70d40a8bd50f313d9826c18fd83b08590a2d82e43c92715ce4546aa4266daaa8",
          "blockNumber": "0x237",
          "blockTimestamp": "0x6746f112",
          "transactionHash": "0x36b04b858296b5d42a945dc4653314c7387ae8ec9b5fde8801c547682c6de924",
          "transactionIndex": "0x1",
          "logIndex": "0x1",
          "removed": false
        },
        {
          "address": "0x4200000000000000000000000000000000000025",
          "topics": [
            "0x875e07afd7ce17c6531b1a6b7b34829dcd8b7e6639448afbd6a8e29fa1422b82",
            "0x0000000000000000000000004200000000000000000000000000000000000024"
          ],
          "data": "0x0000000000000000000000000000000000000000000000000de0b6b3a7640000",
          "blockHash": "0x70d40a8bd50f313d9826c18fd83b08590a2d82e43c92715ce4546aa4266daaa8",
          "blockNumber": "0x237",
          "blockTimestamp": "0x6746f112",
          "transactionHash": "0x36b04b858296b5d42a945dc4653314c7387ae8ec9b5fde8801c547682c6de924",
          "transactionIndex": "0x1",
          "logIndex": "0x2",
          "removed": false
        },
        {
          "address": "0x4200000000000000000000000000000000000024",
          "topics": [
            "0x017c33ab728c93e2be949ec7e4a35b76d607957c5fac4253f5d623b4a3b13036",
            "0x000000000000000000000000f39fd6e51aad88f6f4ce6ab8827279cfffb92266"
          ],
          "data": "0x0000000000000000000000000000000000000000000000000de0b6b3a7640000",
          "blockHash": "0x70d40a8bd50f313d9826c18fd83b08590a2d82e43c92715ce4546aa4266daaa8",
          "blockNumber": "0x237",
          "blockTimestamp": "0x6746f112",
          "transactionHash": "0x36b04b858296b5d42a945dc4653314c7387ae8ec9b5fde8801c547682c6de924",
          "transactionIndex": "0x1",
          "logIndex": "0x3",
          "removed": false
        },
        {
          "address": "0x4200000000000000000000000000000000000023",
          "topics": [
            "0x382409ac69001e11931a28435afef442cbfd20d9891907e8fa373ba7d351f320",
            "0x0000000000000000000000000000000000000000000000000000000000000386",
            "0x0000000000000000000000004200000000000000000000000000000000000028",
            "0x0000000000000000000000000000000000000000000000000000000000000001"
          ],
          "data": "0x0000000000000000000000004200000000000000000000000000000000000028000000000000000000000000000000000000000000000000000000000000004000000000000000000000000000000000000000000000000000000000000000847cfd6dbc0000000000000000000000004200000000000000000000000000000000000024000000000000000000000000f39fd6e51aad88f6f4ce6ab8827279cfffb92266000000000000000000000000f39fd6e51aad88f6f4ce6ab8827279cfffb922660000000000000000000000000000000000000000000000000de0b6b3a764000000000000000000000000000000000000000000000000000000000000",
          "blockHash": "0x70d40a8bd50f313d9826c18fd83b08590a2d82e43c92715ce4546aa4266daaa8",
          "blockNumber": "0x237",
          "blockTimestamp": "0x6746f112",
          "transactionHash": "0x36b04b858296b5d42a945dc4653314c7387ae8ec9b5fde8801c547682c6de924",
          "transactionIndex": "0x1",
          "logIndex": "0x4",
          "removed": false
        },
        {
          "address": "0x4200000000000000000000000000000000000028",
          "topics": [
            "0x0247bfe63a1aaa59e073e20b172889babfda8d3273b5798e0e9ac4388e6dd11c",
            "0x0000000000000000000000004200000000000000000000000000000000000024",
            "0x000000000000000000000000f39fd6e51aad88f6f4ce6ab8827279cfffb92266",
            "0x000000000000000000000000f39fd6e51aad88f6f4ce6ab8827279cfffb92266"
          ],
          "data": "0x0000000000000000000000000000000000000000000000000de0b6b3a76400000000000000000000000000000000000000000000000000000000000000000386",
          "blockHash": "0x70d40a8bd50f313d9826c18fd83b08590a2d82e43c92715ce4546aa4266daaa8",
          "blockNumber": "0x237",
          "blockTimestamp": "0x6746f112",
          "transactionHash": "0x36b04b858296b5d42a945dc4653314c7387ae8ec9b5fde8801c547682c6de924",
          "transactionIndex": "0x1",
          "logIndex": "0x5",
          "removed": false
        }
      ],
      "logsBloom": "0x20408000000000020000000000000000000000000000000000000000000200a00000000000000000000000000000000000000000000000008008000000040000000000000000000002000008000000000000000000040104000000000000000000002208020000000040000100000800000000002000080001000010000000100000000000000000020000000004000000000000000000000000010000000000040000000000000000000000000000000000010000000000000000010000000800000002000008200000000000000000000000102000000010000000000060020000008000080000000000000000000000000000000000000000000000000000",
      "type": "0x2",
      "transactionHash": "0x36b04b858296b5d42a945dc4653314c7387ae8ec9b5fde8801c547682c6de924",
      "transactionIndex": "0x1",
      "blockHash": "0x70d40a8bd50f313d9826c18fd83b08590a2d82e43c92715ce4546aa4266daaa8",
      "blockNumber": "0x237",
      "gasUsed": "0x16f91",
      "effectiveGasPrice": "0x8",
      "blobGasPrice": "0x1",
      "from": "0xf39fd6e51aad88f6f4ce6ab8827279cfffb92266",
      "to": "0x4200000000000000000000000000000000000028",
      "contractAddress": null
    }
  ],
  "libraries": [],
  "pending": [],
  "returns": {},
  "timestamp": 1732702482,
  "chain": 901,
  "commit": "8a335fb"
}