{
  "deployments": [
    {
      "transactions": [
        {
          "hash": "0xae347658c5dd6145678cd5b679513727d6b954429c2a06cb0035006a7138561d",
          "transactionType": "CREATE",
          "contractName": "SmartDisperse",
          "contractAddress": "0x1291be112d480055dafd8a610b7d1e203891c274",
          "function": null,
          "arguments": null,
          "transaction": {
            "from": "0xf39fd6e51aad88f6f4ce6ab8827279cfffb92266",
            "gas": "0xe9f42",
            "value": "0x0",
            "input": "0x60806040525f80546001600160a01b0319167342000000000000000000000000000000000000231790553480156033575f80fd5b50610bf2806100415f395ff3fe608060405234801561000f575f80fd5b5060043610610033575f3560e01c80628a403e14610037578063fefea5811461004c575b5f80fd5b61004a610045366004610664565b61005f565b005b61004a61005a36600461073c565b610330565b5f546001600160a01b03163314610088576040516265d51560e41b815260040160405180910390fd5b5f546040805163071ffbc360e31b8152905130926001600160a01b0316916338ffde189160048083019260209291908290030181865afa1580156100ce573d5f803e3d5ffd5b505050506040513d601f19601f820116820180604052508101906100f291906107c2565b6001600160a01b03161461011957604051635e11715560e11b815260040160405180910390fd5b5f80610127838501856108e1565b90506101626040518060400160405280601381526020017202932b1b2b4bb32b21036b2b9b9b0b3b2901d1606d1b81525082606001516105f0565b5f5b8151518110156102825781602001518181518110610184576101846109e3565b60200260200101518361019791906109f7565b92505f82604001516001600160a01b031663a9059cbb845f015184815181106101c2576101c26109e3565b6020026020010151856020015185815181106101e0576101e06109e3565b60200260200101516040518363ffffffff1660e01b81526004016102199291906001600160a01b03929092168252602082015260400190565b6020604051808303815f875af1158015610235573d5f803e3d5ffd5b505050506040513d601f19601f820116820180604052508101906102599190610a1c565b905080610279576040516312171d8360e31b815260040160405180910390fd5b50600101610164565b505f546040805163123ca23160e11b8152905146926001600160a01b03169163247944629160048083019260209291908290030181865afa1580156102c9573d5f803e3d5ffd5b505050506040513d601f19601f820116820180604052508101906102ed9190610a3b565b7f8d2fa7456103cc6e98a7598c430974c51363c67c6688f6b78e1b152a56f56e39836060015160405161032291815260200190565b60405180910390a350505050565b83821461037c5760405162461bcd60e51b8152602060048201526016602482015275082e4e4c2f2e640d8cadccee8d040dad2e6dac2e8c6d60531b604482015260640160405180910390fd5b5f805b838110156103b557848482818110610399576103996109e3565b90506020020135826103ab91906109f7565b915060010161037f565b506040516323b872dd60e01b8152336004820152306024820152604481018290525f906001600160a01b038416906323b872dd906064016020604051808303815f875af1158015610408573d5f803e3d5ffd5b505050506040513d601f19601f8201168201806040525081019061042c9190610a1c565b90508061044c576040516312171d8360e31b815260040160405180910390fd5b6040805160a0602089028083018201909352608082018981525f9383928c918c918291908601908490808284375f9201919091525050509082525060408051602089810282810182019093528982529283019290918a918a9182918501908490808284375f9201829052509385525050506001600160a01b038088166020808501919091526040938401889052915492519394509190911691637056f41f918c9130918291628a403e9161050291899101610a8c565b60408051601f198184030181529082905261051f91602401610b57565b60408051808303601f1901815291815260208201805160e094851b6001600160e01b03909116179052519186901b6001600160e01b03191682526105699493925090600401610b69565b6020604051808303815f875af1158015610585573d5f803e3d5ffd5b505050506040513d601f19601f820116820180604052508101906105a99190610a3b565b5088467f28c1960b85c2cea008c0b366ad2b9887b76699b377fb5071fb56afc6c09fe320856040516105dd91815260200190565b60405180910390a3505050505050505050565b6106358282604051602401610606929190610b9b565b60408051601f198184030181529190526020810180516001600160e01b0316632d839cb360e21b179052610639565b5050565b61064281610645565b50565b5f6a636f6e736f6c652e6c6f6790505f80835160208501845afa505050565b5f8060208385031215610675575f80fd5b823567ffffffffffffffff8082111561068c575f80fd5b818501915085601f83011261069f575f80fd5b8135818111156106ad575f80fd5b8660208285010111156106be575f80fd5b60209290920196919550909350505050565b5f8083601f8401126106e0575f80fd5b50813567ffffffffffffffff8111156106f7575f80fd5b6020830191508360208260051b8501011115610711575f80fd5b9250929050565b6001600160a01b0381168114610642575f80fd5b803561073781610718565b919050565b5f805f805f8060808789031215610751575f80fd5b86359550602087013567ffffffffffffffff8082111561076f575f80fd5b61077b8a838b016106d0565b90975095506040890135915080821115610793575f80fd5b506107a089828a016106d0565b90945092505060608701356107b481610718565b809150509295509295509295565b5f602082840312156107d2575f80fd5b81516107dd81610718565b9392505050565b634e487b7160e01b5f52604160045260245ffd5b6040516080810167ffffffffffffffff8111828210171561081b5761081b6107e4565b60405290565b604051601f8201601f1916810167ffffffffffffffff8111828210171561084a5761084a6107e4565b604052919050565b5f67ffffffffffffffff82111561086b5761086b6107e4565b5060051b60200190565b5f82601f830112610884575f80fd5b8135602061089961089483610852565b610821565b8083825260208201915060208460051b8701019350868411156108ba575f80fd5b602086015b848110156108d657803583529183019183016108bf565b509695505050505050565b5f60208083850312156108f2575f80fd5b823567ffffffffffffffff80821115610909575f80fd5b908401906080828703121561091c575f80fd5b6109246107f8565b823582811115610932575f80fd5b8301601f81018813610942575f80fd5b803561095061089482610852565b81815260059190911b8201860190868101908a83111561096e575f80fd5b928701925b8284101561099557833561098681610718565b82529287019290870190610973565b845250505082840135828111156109aa575f80fd5b6109b688828601610875565b85830152506109c76040840161072c565b6040820152606083013560608201528094505050505092915050565b634e487b7160e01b5f52603260045260245ffd5b80820180821115610a1657634e487b7160e01b5f52601160045260245ffd5b92915050565b5f60208284031215610a2c575f80fd5b815180151581146107dd575f80fd5b5f60208284031215610a4b575f80fd5b5051919050565b5f815180845260208085019450602084015f5b83811015610a8157815187529582019590820190600101610a65565b509495945050505050565b60208082528251608083830152805160a084018190525f9291820190839060c08601905b80831015610ad95783516001600160a01b03168252928401926001929092019190840190610ab0565b5092860151858403601f1901604087015292610af58185610a52565b93505050506040840151610b1460608501826001600160a01b03169052565b50606084015160808401528091505092915050565b5f81518084528060208401602086015e5f602082860101526020601f19601f83011685010191505092915050565b602081525f6107dd6020830184610b29565b8381526001600160a01b03831660208201526060604082018190525f90610b9290830184610b29565b95945050505050565b604081525f610bad6040830185610b29565b9050826020830152939250505056fea26469706673582212208436a5fdfecc948d5aa0f1242b5e7b988ab740f92993f28528156948ff6c874864736f6c63430008190033",
            "nonce": "0x32",
            "chainId": "0x385"
          },
          "additionalContracts": [],
          "isFixedGasLimit": false
        },
        {
          "hash": "0x07ad52c1a2abe95f8398f2c961d2b90b55ba6a9a1a29553e505ccc20f4c3d9a9",
          "transactionType": "CALL",
          "contractName": null,
          "contractAddress": "0x4200000000000000000000000000000000000024",
          "function": null,
          "arguments": null,
          "transaction": {
            "from": "0xf39fd6e51aad88f6f4ce6ab8827279cfffb92266",
            "to": "0x4200000000000000000000000000000000000024",
            "gas": "0xe878",
            "value": "0x8ac7230489e80000",
            "input": "0x",
            "nonce": "0x33",
            "chainId": "0x385"
          },
          "additionalContracts": [],
          "isFixedGasLimit": false
        }
      ],
      "receipts": [
        {
          "status": "0x1",
          "cumulativeGasUsed": "0xb3f6e",
          "logs": [],
          "logsBloom": "0x00000000000000000000000000000000000000000000000000000000000000000000000000000000000000000000000000000000000000000000000000000000000000000000000000000000000000000000000000000000000000000000000000000000000000000000000000000000000000000000000000000000000000000000000000000000000000000000000000000000000000000000000000000000000000000000000000000000000000000000000000000000000000000000000000000000000000000000000000000000000000000000000000000000000000000000000000000000000000000000000000000000000000000000000000000000",
          "type": "0x2",
          "transactionHash": "0xae347658c5dd6145678cd5b679513727d6b954429c2a06cb0035006a7138561d",
          "transactionIndex": "0x0",
          "blockHash": "0xfb6cae7aa3b282744627aca7c412a77550a5e08bc04993eba0f7b17fa85c5a2c",
          "blockNumber": "0xa30",
          "gasUsed": "0xb3f6e",
          "effectiveGasPrice": "0x8",
          "blobGasPrice": "0x1",
          "from": "0xf39fd6e51aad88f6f4ce6ab8827279cfffb92266",
          "to": null,
          "contractAddress": "0x1291be112d480055dafd8a610b7d1e203891c274"
        },
        {
          "status": "0x1",
          "cumulativeGasUsed": "0xbe7bd",
          "logs": [
            {
              "address": "0x4200000000000000000000000000000000000024",
              "topics": [
                "0xe1fffcc4923d04b559f4d29a8bfc6cda04eb5b0d3c460751c2402c5c5cc9109c",
                "0x000000000000000000000000f39fd6e51aad88f6f4ce6ab8827279cfffb92266"
              ],
              "data": "0x0000000000000000000000000000000000000000000000008ac7230489e80000",
              "blockHash": "0xfb6cae7aa3b282744627aca7c412a77550a5e08bc04993eba0f7b17fa85c5a2c",
              "blockNumber": "0xa30",
              "blockTimestamp": "0x67470104",
              "transactionHash": "0x07ad52c1a2abe95f8398f2c961d2b90b55ba6a9a1a29553e505ccc20f4c3d9a9",
              "transactionIndex": "0x1",
              "logIndex": "0x0",
              "removed": false
            }
          ],
          "logsBloom": "0x00000000000000000000000000000000000000000000000000000000000000800000000000000000000000000000000000000000000000000000000000000000000000000000000000000000000000000000000000000000000000008000000000000000000000000000000100000000000000000000000000000000000000000000000000000000020000000004000000000001000000000000000000000000000000000000000000000000000000000000000000000000000000000000000000000000000000200000000000000000000000002000000000000000000000000000000000000000000000000000000000000000000000400000000000000000",
          "type": "0x2",
          "transactionHash": "0x07ad52c1a2abe95f8398f2c961d2b90b55ba6a9a1a29553e505ccc20f4c3d9a9",
          "transactionIndex": "0x1",
          "blockHash": "0xfb6cae7aa3b282744627aca7c412a77550a5e08bc04993eba0f7b17fa85c5a2c",
          "blockNumber": "0xa30",
          "gasUsed": "0xa84f",
          "effectiveGasPrice": "0x8",
          "blobGasPrice": "0x1",
          "from": "0xf39fd6e51aad88f6f4ce6ab8827279cfffb92266",
          "to": "0x4200000000000000000000000000000000000024",
          "contractAddress": null
        }
      ],
      "libraries": [],
      "pending": [],
      "returns": {},
      "timestamp": 1732706563,
      "chain": 901,
      "commit": "8a335fb"
    },
    {
      "transactions": [
        {
          "hash": "0x28972514bf97db283695e58da3556f569bbaa7f0ac599724a8ce6da8225330a1",
          "transactionType": "CREATE",
          "contractName": "SmartDisperse",
          "contractAddress": "0xa51c1fc2f0d1a1b8494ed1fe312d7c3a78ed91c0",
          "function": null,
          "arguments": null,
          "transaction": {
            "from": "0xf39fd6e51aad88f6f4ce6ab8827279cfffb92266",
            "gas": "0xe9f42",
            "value": "0x0",
            "input": "0x60806040525f80546001600160a01b0319167342000000000000000000000000000000000000231790553480156033575f80fd5b50610bf2806100415f395ff3fe608060405234801561000f575f80fd5b5060043610610033575f3560e01c80628a403e14610037578063fefea5811461004c575b5f80fd5b61004a610045366004610664565b61005f565b005b61004a61005a36600461073c565b610330565b5f546001600160a01b03163314610088576040516265d51560e41b815260040160405180910390fd5b5f546040805163071ffbc360e31b8152905130926001600160a01b0316916338ffde189160048083019260209291908290030181865afa1580156100ce573d5f803e3d5ffd5b505050506040513d601f19601f820116820180604052508101906100f291906107c2565b6001600160a01b03161461011957604051635e11715560e11b815260040160405180910390fd5b5f80610127838501856108e1565b90506101626040518060400160405280601381526020017202932b1b2b4bb32b21036b2b9b9b0b3b2901d1606d1b81525082606001516105f0565b5f5b8151518110156102825781602001518181518110610184576101846109e3565b60200260200101518361019791906109f7565b92505f82604001516001600160a01b031663a9059cbb845f015184815181106101c2576101c26109e3565b6020026020010151856020015185815181106101e0576101e06109e3565b60200260200101516040518363ffffffff1660e01b81526004016102199291906001600160a01b03929092168252602082015260400190565b6020604051808303815f875af1158015610235573d5f803e3d5ffd5b505050506040513d601f19601f820116820180604052508101906102599190610a1c565b905080610279576040516312171d8360e31b815260040160405180910390fd5b50600101610164565b505f546040805163123ca23160e11b8152905146926001600160a01b03169163247944629160048083019260209291908290030181865afa1580156102c9573d5f803e3d5ffd5b505050506040513d601f19601f820116820180604052508101906102ed9190610a3b565b7f8d2fa7456103cc6e98a7598c430974c51363c67c6688f6b78e1b152a56f56e39836060015160405161032291815260200190565b60405180910390a350505050565b83821461037c5760405162461bcd60e51b8152602060048201526016602482015275082e4e4c2f2e640d8cadccee8d040dad2e6dac2e8c6d60531b604482015260640160405180910390fd5b5f805b838110156103b557848482818110610399576103996109e3565b90506020020135826103ab91906109f7565b915060010161037f565b506040516323b872dd60e01b8152336004820152306024820152604481018290525f906001600160a01b038416906323b872dd906064016020604051808303815f875af1158015610408573d5f803e3d5ffd5b505050506040513d601f19601f8201168201806040525081019061042c9190610a1c565b90508061044c576040516312171d8360e31b815260040160405180910390fd5b6040805160a0602089028083018201909352608082018981525f9383928c918c918291908601908490808284375f9201919091525050509082525060408051602089810282810182019093528982529283019290918a918a9182918501908490808284375f9201829052509385525050506001600160a01b038088166020808501919091526040938401889052915492519394509190911691637056f41f918c9130918291628a403e9161050291899101610a8c565b60408051601f198184030181529082905261051f91602401610b57565b60408051808303601f1901815291815260208201805160e094851b6001600160e01b03909116179052519186901b6001600160e01b03191682526105699493925090600401610b69565b6020604051808303815f875af1158015610585573d5f803e3d5ffd5b505050506040513d601f19601f820116820180604052508101906105a99190610a3b565b5088467f28c1960b85c2cea008c0b366ad2b9887b76699b377fb5071fb56afc6c09fe320856040516105dd91815260200190565b60405180910390a3505050505050505050565b6106358282604051602401610606929190610b9b565b60408051601f198184030181529190526020810180516001600160e01b0316632d839cb360e21b179052610639565b5050565b61064281610645565b50565b5f6a636f6e736f6c652e6c6f6790505f80835160208501845afa505050565b5f8060208385031215610675575f80fd5b823567ffffffffffffffff8082111561068c575f80fd5b818501915085601f83011261069f575f80fd5b8135818111156106ad575f80fd5b8660208285010111156106be575f80fd5b60209290920196919550909350505050565b5f8083601f8401126106e0575f80fd5b50813567ffffffffffffffff8111156106f7575f80fd5b6020830191508360208260051b8501011115610711575f80fd5b9250929050565b6001600160a01b0381168114610642575f80fd5b803561073781610718565b919050565b5f805f805f8060808789031215610751575f80fd5b86359550602087013567ffffffffffffffff8082111561076f575f80fd5b61077b8a838b016106d0565b90975095506040890135915080821115610793575f80fd5b506107a089828a016106d0565b90945092505060608701356107b481610718565b809150509295509295509295565b5f602082840312156107d2575f80fd5b81516107dd81610718565b9392505050565b634e487b7160e01b5f52604160045260245ffd5b6040516080810167ffffffffffffffff8111828210171561081b5761081b6107e4565b60405290565b604051601f8201601f1916810167ffffffffffffffff8111828210171561084a5761084a6107e4565b604052919050565b5f67ffffffffffffffff82111561086b5761086b6107e4565b5060051b60200190565b5f82601f830112610884575f80fd5b8135602061089961089483610852565b610821565b8083825260208201915060208460051b8701019350868411156108ba575f80fd5b602086015b848110156108d657803583529183019183016108bf565b509695505050505050565b5f60208083850312156108f2575f80fd5b823567ffffffffffffffff80821115610909575f80fd5b908401906080828703121561091c575f80fd5b6109246107f8565b823582811115610932575f80fd5b8301601f81018813610942575f80fd5b803561095061089482610852565b81815260059190911b8201860190868101908a83111561096e575f80fd5b928701925b8284101561099557833561098681610718565b82529287019290870190610973565b845250505082840135828111156109aa575f80fd5b6109b688828601610875565b85830152506109c76040840161072c565b6040820152606083013560608201528094505050505092915050565b634e487b7160e01b5f52603260045260245ffd5b80820180821115610a1657634e487b7160e01b5f52601160045260245ffd5b92915050565b5f60208284031215610a2c575f80fd5b815180151581146107dd575f80fd5b5f60208284031215610a4b575f80fd5b5051919050565b5f815180845260208085019450602084015f5b83811015610a8157815187529582019590820190600101610a65565b509495945050505050565b60208082528251608083830152805160a084018190525f9291820190839060c08601905b80831015610ad95783516001600160a01b03168252928401926001929092019190840190610ab0565b5092860151858403601f1901604087015292610af58185610a52565b93505050506040840151610b1460608501826001600160a01b03169052565b50606084015160808401528091505092915050565b5f81518084528060208401602086015e5f602082860101526020601f19601f83011685010191505092915050565b602081525f6107dd6020830184610b29565b8381526001600160a01b03831660208201526060604082018190525f90610b9290830184610b29565b95945050505050565b604081525f610bad6040830185610b29565b9050826020830152939250505056fea26469706673582212208436a5fdfecc948d5aa0f1242b5e7b988ab740f92993f28528156948ff6c874864736f6c63430008190033",
            "nonce": "0xc",
            "chainId": "0x386"
          },
          "additionalContracts": [],
          "isFixedGasLimit": false
        }
      ],
      "receipts": [
        {
          "status": "0x1",
          "cumulativeGasUsed": "0xb3f6e",
          "logs": [],
          "logsBloom": "0x00000000000000000000000000000000000000000000000000000000000000000000000000000000000000000000000000000000000000000000000000000000000000000000000000000000000000000000000000000000000000000000000000000000000000000000000000000000000000000000000000000000000000000000000000000000000000000000000000000000000000000000000000000000000000000000000000000000000000000000000000000000000000000000000000000000000000000000000000000000000000000000000000000000000000000000000000000000000000000000000000000000000000000000000000000000",
          "type": "0x2",
          "transactionHash": "0x28972514bf97db283695e58da3556f569bbaa7f0ac599724a8ce6da8225330a1",
          "transactionIndex": "0x0",
          "blockHash": "0x4d9ad38d6d010202ba6840281e7bf7cf21d9e6519916685f508d21cec2fcae64",
          "blockNumber": "0xa31",
          "gasUsed": "0xb3f6e",
          "effectiveGasPrice": "0x8",
          "blobGasPrice": "0x1",
          "from": "0xf39fd6e51aad88f6f4ce6ab8827279cfffb92266",
          "to": null,
          "contractAddress": "0xa51c1fc2f0d1a1b8494ed1fe312d7c3a78ed91c0"
        }
      ],
      "libraries": [],
      "pending": [],
      "returns": {},
      "timestamp": 1732706563,
      "chain": 902,
      "commit": "8a335fb"
    },
    {
      "transactions": [
        {
          "hash": "0x2761e82f6b05dcc20c9b18db03aa0fb51d0b8b68bf7af9a2247eeba5b4313e96",
          "transactionType": "CALL",
          "contractName": null,
          "contractAddress": "0x4200000000000000000000000000000000000024",
          "function": "approve(address,uint256)",
          "arguments": [
            "0x1291Be112d480055DaFd8a610b7d1e203891C274",
            "3000000000000000000"
          ],
          "transaction": {
            "from": "0xf39fd6e51aad88f6f4ce6ab8827279cfffb92266",
            "to": "0x4200000000000000000000000000000000000024",
            "gas": "0x113c1",
            "value": "0x0",
            "input": "0x095ea7b30000000000000000000000001291be112d480055dafd8a610b7d1e203891c27400000000000000000000000000000000000000000000000029a2241af62c0000",
            "nonce": "0x34",
            "chainId": "0x385"
          },
          "additionalContracts": [],
          "isFixedGasLimit": false
        },
        {
          "hash": "0x625c0ca4773b4765ed2413ff4117e22238c5d329d55669d85e787a3c97a0d287",
          "transactionType": "CALL",
          "contractName": "SmartDisperse",
          "contractAddress": "0x1291be112d480055dafd8a610b7d1e203891c274",
          "function": "transferTokensTo(uint256,address[],uint256[],address)",
          "arguments": [
            "902",
            "[0x70997970C51812dc3A010C7d01b50e0d17dc79C8, 0x3C44CdDdB6a900fa2b585dd299e03d12FA4293BC]",
            "[1000000000000000000, 2000000000000000000]",
            "0x4200000000000000000000000000000000000024"
          ],
          "transaction": {
            "from": "0xf39fd6e51aad88f6f4ce6ab8827279cfffb92266",
            "to": "0x1291be112d480055dafd8a610b7d1e203891c274",
            "gas": "0x2069a",
            "value": "0x0",
            "input": "0xfefea5810000000000000000000000000000000000000000000000000000000000000386000000000000000000000000000000000000000000000000000000000000008000000000000000000000000000000000000000000000000000000000000000e00000000000000000000000004200000000000000000000000000000000000024000000000000000000000000000000000000000000000000000000000000000200000000000000000000000070997970c51812dc3a010c7d01b50e0d17dc79c80000000000000000000000003c44cdddb6a900fa2b585dd299e03d12fa4293bc00000000000000000000000000000000000000000000000000000000000000020000000000000000000000000000000000000000000000000de0b6b3a76400000000000000000000000000000000000000000000000000001bc16d674ec80000",
            "nonce": "0x35",
            "chainId": "0x385"
          },
          "additionalContracts": [],
          "isFixedGasLimit": false
        }
      ],
      "receipts": [
        {
          "status": "0x1",
          "cumulativeGasUsed": "0xc7a5",
          "logs": [
            {
              "address": "0x4200000000000000000000000000000000000024",
              "topics": [
                "0x8c5be1e5ebec7d5bd14f71427d1e84f3dd0314c0f7b2291e5b200ac8c7c3b925",
                "0x000000000000000000000000f39fd6e51aad88f6f4ce6ab8827279cfffb92266",
                "0x0000000000000000000000001291be112d480055dafd8a610b7d1e203891c274"
              ],
              "data": "0x00000000000000000000000000000000000000000000000029a2241af62c0000",
              "blockHash": "0x34fe231d1ef7cb3d0bcc5abad72123ec7e8d769c6241ea854a78c0e17d2068e5",
              "blockNumber": "0xa32",
              "blockTimestamp": "0x67470108",
              "transactionHash": "0x2761e82f6b05dcc20c9b18db03aa0fb51d0b8b68bf7af9a2247eeba5b4313e96",
              "transactionIndex": "0x0",
              "logIndex": "0x0",
              "removed": false
            }
          ],
          "logsBloom": "0x00000000000000000000000000000000002000000000000000000000000000800000000000000000000000000000000000000000000000000000000000200000000000000000000000000000000000000000000000000000000000000000000000000000000000000000000100002000000000000000000000000000000000000000000000000000020000000004000000000000000000000000000000000000020000000000000020000000000000000000000000000000000000000000000000000000000000200000000000000000000000002000000000000000000000000010000000000000000000000000000000000000000000000000000000000000",
          "type": "0x2",
          "transactionHash": "0x2761e82f6b05dcc20c9b18db03aa0fb51d0b8b68bf7af9a2247eeba5b4313e96",
          "transactionIndex": "0x0",
          "blockHash": "0x34fe231d1ef7cb3d0bcc5abad72123ec7e8d769c6241ea854a78c0e17d2068e5",
          "blockNumber": "0xa32",
          "gasUsed": "0xc7a5",
          "effectiveGasPrice": "0x8",
          "blobGasPrice": "0x1",
          "from": "0xf39fd6e51aad88f6f4ce6ab8827279cfffb92266",
          "to": "0x4200000000000000000000000000000000000024",
          "contractAddress": null
        },
        {
          "status": "0x1",
          "cumulativeGasUsed": "0x22a3f",
          "logs": [
            {
              "address": "0x4200000000000000000000000000000000000024",
              "topics": [
                "0xddf252ad1be2c89b69c2b068fc378daa952ba7f163c4a11628f55a4df523b3ef",
                "0x000000000000000000000000f39fd6e51aad88f6f4ce6ab8827279cfffb92266",
                "0x0000000000000000000000001291be112d480055dafd8a610b7d1e203891c274"
              ],
              "data": "0x00000000000000000000000000000000000000000000000029a2241af62c0000",
              "blockHash": "0x34fe231d1ef7cb3d0bcc5abad72123ec7e8d769c6241ea854a78c0e17d2068e5",
              "blockNumber": "0xa32",
              "blockTimestamp": "0x67470108",
              "transactionHash": "0x625c0ca4773b4765ed2413ff4117e22238c5d329d55669d85e787a3c97a0d287",
              "transactionIndex": "0x1",
              "logIndex": "0x1",
              "removed": false
            },
            {
              "address": "0x4200000000000000000000000000000000000023",
              "topics": [
                "0x382409ac69001e11931a28435afef442cbfd20d9891907e8fa373ba7d351f320",
                "0x0000000000000000000000000000000000000000000000000000000000000386",
                "0x0000000000000000000000001291be112d480055dafd8a610b7d1e203891c274",
                "0x000000000000000000000000000000000000000000000000000000000000000d"
              ],
              "data": "0x0000000000000000000000001291be112d480055dafd8a610b7d1e203891c274000000000000000000000000000000000000000000000000000000000000004000000000000000000000000000000000000000000000000000000000000001a4008a403e000000000000000000000000000000000000000000000000000000000000002000000000000000000000000000000000000000000000000000000000000001600000000000000000000000000000000000000000000000000000000000000020000000000000000000000000000000000000000000000000000000000000008000000000000000000000000000000000000000000000000000000000000000e0000000000000000000000000420000000000000000000000000000000000002400000000000000000000000000000000000000000000000029a2241af62c0000000000000000000000000000000000000000000000000000000000000000000200000000000000000000000070997970c51812dc3a010c7d01b50e0d17dc79c80000000000000000000000003c44cdddb6a900fa2b585dd299e03d12fa4293bc00000000000000000000000000000000000000000000000000000000000000020000000000000000000000000000000000000000000000000de0b6b3a76400000000000000000000000000000000000000000000000000001bc16d674ec8000000000000000000000000000000000000000000000000000000000000",
              "blockHash": "0x34fe231d1ef7cb3d0bcc5abad72123ec7e8d769c6241ea854a78c0e17d2068e5",
              "blockNumber": "0xa32",
              "blockTimestamp": "0x67470108",
              "transactionHash": "0x625c0ca4773b4765ed2413ff4117e22238c5d329d55669d85e787a3c97a0d287",
              "transactionIndex": "0x1",
              "logIndex": "0x2",
              "removed": false
            },
            {
              "address": "0x1291be112d480055dafd8a610b7d1e203891c274",
              "topics": [
                "0x28c1960b85c2cea008c0b366ad2b9887b76699b377fb5071fb56afc6c09fe320",
                "0x0000000000000000000000000000000000000000000000000000000000000385",
                "0x0000000000000000000000000000000000000000000000000000000000000386"
              ],
              "data": "0x00000000000000000000000000000000000000000000000029a2241af62c0000",
              "blockHash": "0x34fe231d1ef7cb3d0bcc5abad72123ec7e8d769c6241ea854a78c0e17d2068e5",
              "blockNumber": "0xa32",
              "blockTimestamp": "0x67470108",
              "transactionHash": "0x625c0ca4773b4765ed2413ff4117e22238c5d329d55669d85e787a3c97a0d287",
              "transactionIndex": "0x1",
              "logIndex": "0x3",
              "removed": false
            }
          ],
          "logsBloom": "0x20000000000000020040000000000000002000000000000000000000000800800000000000000000000000000000000000000000000040000008000000000000000000000000000002040008000000000002000000000100000000000000000000000000000000000040000100002000000000000000000000000010000000000000800000000000020000000004000000000000000000000000001000000000040000000000000020000002000000000000010000000000000000000000000000000002080000200000000000000000000000102000000000000000000000020000000000000000000000001800000000000000000000000000000000000000",
          "type": "0x2",
          "transactionHash": "0x625c0ca4773b4765ed2413ff4117e22238c5d329d55669d85e787a3c97a0d287",
          "transactionIndex": "0x1",
          "blockHash": "0x34fe231d1ef7cb3d0bcc5abad72123ec7e8d769c6241ea854a78c0e17d2068e5",
          "blockNumber": "0xa32",
          "gasUsed": "0x1629a",
          "effectiveGasPrice": "0x8",
          "blobGasPrice": "0x1",
          "from": "0xf39fd6e51aad88f6f4ce6ab8827279cfffb92266",
          "to": "0x1291be112d480055dafd8a610b7d1e203891c274",
          "contractAddress": null
        }
      ],
      "libraries": [],
      "pending": [],
      "returns": {},
      "timestamp": 1732706563,
      "chain": 901,
      "commit": "8a335fb"
    }
  ],
  "timestamp": 1732706568
}