{
  "deployments": [
    {
      "transactions": [
        {
          "hash": "0xdd02a07f80bae34e1ce465928895042804e8841a10f6580fe9c7c17a1fc7828f",
          "transactionType": "CREATE2",
          "contractName": "SmartDisperse",
          "contractAddress": "0x803d865a5dc9c92a17de34eaabec2258e2c574e6",
          "function": null,
          "arguments": null,
          "transaction": {
            "from": "0xf39fd6e51aad88f6f4ce6ab8827279cfffb92266",
            "to": "0x4e59b44847b379578588920ca78fbf26c0b4956c",
            "gas": "0xf2ca4",
            "value": "0x0",
            "input": "0x736d61727464697370657273650000000000000000000000000000000000000060806040525f80546001600160a01b0319167342000000000000000000000000000000000000231790553480156033575f80fd5b50610ae3806100415f395ff3fe608060405234801561000f575f80fd5b5060043610610033575f3560e01c80628a403e14610037578063fefea5811461004c575b5f80fd5b61004a61004536600461059a565b61005f565b005b61004a61005a366004610675565b61031b565b5f546001600160a01b03163314610088576040516265d51560e41b815260040160405180910390fd5b5f546040805163071ffbc360e31b8152905130926001600160a01b0316916338ffde189160048083019260209291908290030181865afa1580156100ce573d5f803e3d5ffd5b505050506040513d601f19601f820116820180604052508101906100f291906106fb565b6001600160a01b03161461011957604051635e11715560e11b815260040160405180910390fd5b5f6101268284018461081a565b90505f805b825151811015610249578260200151818151811061014b5761014b61091c565b60200260200101518261015e9190610930565b91505f83604001516001600160a01b031663a9059cbb855f015184815181106101895761018961091c565b6020026020010151866020015185815181106101a7576101a761091c565b60200260200101516040518363ffffffff1660e01b81526004016101e09291906001600160a01b03929092168252602082015260400190565b6020604051808303815f875af11580156101fc573d5f803e3d5ffd5b505050506040513d601f19601f820116820180604052508101906102209190610955565b905080610240576040516312171d8360e31b815260040160405180910390fd5b5060010161012b565b508160600151811461026e5760405163162908e360e11b815260040160405180910390fd5b5f546040805163123ca23160e11b8152905146926001600160a01b03169163247944629160048083019260209291908290030181865afa1580156102b4573d5f803e3d5ffd5b505050506040513d601f19601f820116820180604052508101906102d89190610974565b7f8d2fa7456103cc6e98a7598c430974c51363c67c6688f6b78e1b152a56f56e39846060015160405161030d91815260200190565b60405180910390a350505050565b8382146103675760405162461bcd60e51b8152602060048201526016602482015275082e4e4c2f2e640d8cadccee8d040dad2e6dac2e8c6d60531b604482015260640160405180910390fd5b5f805b838110156103a0578484828181106103845761038461091c565b90506020020135826103969190610930565b915060010161036a565b506040516323b872dd60e01b8152336004820152306024820152604481018290525f906001600160a01b038416906323b872dd906064016020604051808303815f875af11580156103f3573d5f803e3d5ffd5b505050506040513d601f19601f820116820180604052508101906104179190610955565b905080610437576040516312171d8360e31b815260040160405180910390fd5b6040805160a0602089028083018201909352608082018981525f9383928c918c918291908601908490808284375f9201919091525050509082525060408051602089810282810182019093528982529283019290918a918a9182918501908490808284375f9201829052509385525050506001600160a01b038088166020808501919091526040938401889052915492519394509190911691637056f41f918c9130916104e6918791016109c5565b6040516020818303038152906040526040518463ffffffff1660e01b815260040161051393929190610a62565b6020604051808303815f875af115801561052f573d5f803e3d5ffd5b505050506040513d601f19601f820116820180604052508101906105539190610974565b5088467f28c1960b85c2cea008c0b366ad2b9887b76699b377fb5071fb56afc6c09fe3208560405161058791815260200190565b60405180910390a3505050505050505050565b5f80602083850312156105ab575f80fd5b823567ffffffffffffffff808211156105c2575f80fd5b818501915085601f8301126105d5575f80fd5b8135818111156105e3575f80fd5b8660208285010111156105f4575f80fd5b60209290920196919550909350505050565b5f8083601f840112610616575f80fd5b50813567ffffffffffffffff81111561062d575f80fd5b6020830191508360208260051b8501011115610647575f80fd5b9250929050565b6001600160a01b0381168114610662575f80fd5b50565b80356106708161064e565b919050565b5f805f805f806080878903121561068a575f80fd5b86359550602087013567ffffffffffffffff808211156106a8575f80fd5b6106b48a838b01610606565b909750955060408901359150808211156106cc575f80fd5b506106d989828a01610606565b90945092505060608701356106ed8161064e565b809150509295509295509295565b5f6020828403121561070b575f80fd5b81516107168161064e565b9392505050565b634e487b7160e01b5f52604160045260245ffd5b6040516080810167ffffffffffffffff811182821017156107545761075461071d565b60405290565b604051601f8201601f1916810167ffffffffffffffff811182821017156107835761078361071d565b604052919050565b5f67ffffffffffffffff8211156107a4576107a461071d565b5060051b60200190565b5f82601f8301126107bd575f80fd5b813560206107d26107cd8361078b565b61075a565b8083825260208201915060208460051b8701019350868411156107f3575f80fd5b602086015b8481101561080f57803583529183019183016107f8565b509695505050505050565b5f602080838503121561082b575f80fd5b823567ffffffffffffffff80821115610842575f80fd5b9084019060808287031215610855575f80fd5b61085d610731565b82358281111561086b575f80fd5b8301601f8101881361087b575f80fd5b80356108896107cd8261078b565b81815260059190911b8201860190868101908a8311156108a7575f80fd5b928701925b828410156108ce5783356108bf8161064e565b825292870192908701906108ac565b845250505082840135828111156108e3575f80fd5b6108ef888286016107ae565b858301525061090060408401610665565b6040820152606083013560608201528094505050505092915050565b634e487b7160e01b5f52603260045260245ffd5b8082018082111561094f57634e487b7160e01b5f52601160045260245ffd5b92915050565b5f60208284031215610965575f80fd5b81518015158114610716575f80fd5b5f60208284031215610984575f80fd5b5051919050565b5f815180845260208085019450602084015f5b838110156109ba5781518752958201959082019060010161099e565b509495945050505050565b60208082528251608083830152805160a084018190525f9291820190839060c08601905b80831015610a125783516001600160a01b031682529284019260019290920191908401906109e9565b5092860151858403601f1901604087015292610a2e818561098b565b93505050506040840151610a4d60608501826001600160a01b03169052565b50606084015160808401528091505092915050565b83815260018060a01b0383166020820152606060408201525f82518060608401528060208501608085015e5f608082850101526080601f19601f83011684010191505094935050505056fea2646970667358221220998dcfbbf783da80dbeb4b9d4658d88dd064a61c43749db8127a7d54dc4bdc8b64736f6c63430008190033",
            "nonce": "0x4",
            "chainId": "0x385"
          },
          "additionalContracts": [],
          "isFixedGasLimit": false
        },
        {
          "hash": "0x093876e0d9fa7462c64edff147bdfd7f2962dfccbf43f109a190e0851d8101da",
          "transactionType": "CALL",
          "contractName": null,
          "contractAddress": "0x4200000000000000000000000000000000000024",
          "function": null,
          "arguments": null,
          "transaction": {
            "from": "0xf39fd6e51aad88f6f4ce6ab8827279cfffb92266",
            "to": "0x4200000000000000000000000000000000000024",
            "gas": "0xe878",
            "value": "0x8ac7230489e80000",
            "input": "0x",
            "nonce": "0x5",
            "chainId": "0x385"
          },
          "additionalContracts": [],
          "isFixedGasLimit": false
        }
      ],
      "receipts": [
        {
          "status": "0x1",
          "cumulativeGasUsed": "0xa602b",
          "logs": [],
          "logsBloom": "0x00000000000000000000000000000000000000000000000000000000000000000000000000000000000000000000000000000000000000000000000000000000000000000000000000000000000000000000000000000000000000000000000000000000000000000000000000000000000000000000000000000000000000000000000000000000000000000000000000000000000000000000000000000000000000000000000000000000000000000000000000000000000000000000000000000000000000000000000000000000000000000000000000000000000000000000000000000000000000000000000000000000000000000000000000000000",
          "type": "0x2",
          "transactionHash": "0xdd02a07f80bae34e1ce465928895042804e8841a10f6580fe9c7c17a1fc7828f",
          "transactionIndex": "0x0",
          "blockHash": "0xec87b930655dbf03c59df63ec95e047d4257e51e808dd20006667586e45e884d",
          "blockNumber": "0x25f",
          "gasUsed": "0xa602b",
          "effectiveGasPrice": "0x8",
          "blobGasPrice": "0x1",
          "from": "0xf39fd6e51aad88f6f4ce6ab8827279cfffb92266",
          "to": "0x4e59b44847b379578588920ca78fbf26c0b4956c",
          "contractAddress": null
        },
        {
          "status": "0x1",
          "cumulativeGasUsed": "0xb087a",
          "logs": [
            {
              "address": "0x4200000000000000000000000000000000000024",
              "topics": [
                "0xe1fffcc4923d04b559f4d29a8bfc6cda04eb5b0d3c460751c2402c5c5cc9109c",
                "0x000000000000000000000000f39fd6e51aad88f6f4ce6ab8827279cfffb92266"
              ],
              "data": "0x0000000000000000000000000000000000000000000000008ac7230489e80000",
              "blockHash": "0xec87b930655dbf03c59df63ec95e047d4257e51e808dd20006667586e45e884d",
              "blockNumber": "0x25f",
              "blockTimestamp": "0x674706b0",
              "transactionHash": "0x093876e0d9fa7462c64edff147bdfd7f2962dfccbf43f109a190e0851d8101da",
              "transactionIndex": "0x1",
              "logIndex": "0x0",
              "removed": false
            }
          ],
          "logsBloom": "0x00000000000000000000000000000000000000000000000000000000000000800000000000000000000000000000000000000000000000000000000000000000000000000000000000000000000000000000000000000000000000008000000000000000000000000000000100000000000000000000000000000000000000000000000000000000020000000004000000000001000000000000000000000000000000000000000000000000000000000000000000000000000000000000000000000000000000200000000000000000000000002000000000000000000000000000000000000000000000000000000000000000000000400000000000000000",
          "type": "0x2",
          "transactionHash": "0x093876e0d9fa7462c64edff147bdfd7f2962dfccbf43f109a190e0851d8101da",
          "transactionIndex": "0x1",
          "blockHash": "0xec87b930655dbf03c59df63ec95e047d4257e51e808dd20006667586e45e884d",
          "blockNumber": "0x25f",
          "gasUsed": "0xa84f",
          "effectiveGasPrice": "0x8",
          "blobGasPrice": "0x1",
          "from": "0xf39fd6e51aad88f6f4ce6ab8827279cfffb92266",
          "to": "0x4200000000000000000000000000000000000024",
          "contractAddress": null
        }
      ],
      "libraries": [],
      "pending": [],
      "returns": {},
      "timestamp": 1732708014,
      "chain": 901,
      "commit": "8a335fb"
    },
    {
      "transactions": [
        {
          "hash": "0xe5b64bd6a85517bfb9f4814a3967be1140e96e5b8ec2a578d4ee7c9ada6f4535",
          "transactionType": "CREATE2",
          "contractName": "SmartDisperse",
          "contractAddress": "0x803d865a5dc9c92a17de34eaabec2258e2c574e6",
          "function": null,
          "arguments": null,
          "transaction": {
            "from": "0xf39fd6e51aad88f6f4ce6ab8827279cfffb92266",
            "to": "0x4e59b44847b379578588920ca78fbf26c0b4956c",
            "gas": "0xf2ca4",
            "value": "0x0",
            "input": "0x736d61727464697370657273650000000000000000000000000000000000000060806040525f80546001600160a01b0319167342000000000000000000000000000000000000231790553480156033575f80fd5b50610ae3806100415f395ff3fe608060405234801561000f575f80fd5b5060043610610033575f3560e01c80628a403e14610037578063fefea5811461004c575b5f80fd5b61004a61004536600461059a565b61005f565b005b61004a61005a366004610675565b61031b565b5f546001600160a01b03163314610088576040516265d51560e41b815260040160405180910390fd5b5f546040805163071ffbc360e31b8152905130926001600160a01b0316916338ffde189160048083019260209291908290030181865afa1580156100ce573d5f803e3d5ffd5b505050506040513d601f19601f820116820180604052508101906100f291906106fb565b6001600160a01b03161461011957604051635e11715560e11b815260040160405180910390fd5b5f6101268284018461081a565b90505f805b825151811015610249578260200151818151811061014b5761014b61091c565b60200260200101518261015e9190610930565b91505f83604001516001600160a01b031663a9059cbb855f015184815181106101895761018961091c565b6020026020010151866020015185815181106101a7576101a761091c565b60200260200101516040518363ffffffff1660e01b81526004016101e09291906001600160a01b03929092168252602082015260400190565b6020604051808303815f875af11580156101fc573d5f803e3d5ffd5b505050506040513d601f19601f820116820180604052508101906102209190610955565b905080610240576040516312171d8360e31b815260040160405180910390fd5b5060010161012b565b508160600151811461026e5760405163162908e360e11b815260040160405180910390fd5b5f546040805163123ca23160e11b8152905146926001600160a01b03169163247944629160048083019260209291908290030181865afa1580156102b4573d5f803e3d5ffd5b505050506040513d601f19601f820116820180604052508101906102d89190610974565b7f8d2fa7456103cc6e98a7598c430974c51363c67c6688f6b78e1b152a56f56e39846060015160405161030d91815260200190565b60405180910390a350505050565b8382146103675760405162461bcd60e51b8152602060048201526016602482015275082e4e4c2f2e640d8cadccee8d040dad2e6dac2e8c6d60531b604482015260640160405180910390fd5b5f805b838110156103a0578484828181106103845761038461091c565b90506020020135826103969190610930565b915060010161036a565b506040516323b872dd60e01b8152336004820152306024820152604481018290525f906001600160a01b038416906323b872dd906064016020604051808303815f875af11580156103f3573d5f803e3d5ffd5b505050506040513d601f19601f820116820180604052508101906104179190610955565b905080610437576040516312171d8360e31b815260040160405180910390fd5b6040805160a0602089028083018201909352608082018981525f9383928c918c918291908601908490808284375f9201919091525050509082525060408051602089810282810182019093528982529283019290918a918a9182918501908490808284375f9201829052509385525050506001600160a01b038088166020808501919091526040938401889052915492519394509190911691637056f41f918c9130916104e6918791016109c5565b6040516020818303038152906040526040518463ffffffff1660e01b815260040161051393929190610a62565b6020604051808303815f875af115801561052f573d5f803e3d5ffd5b505050506040513d601f19601f820116820180604052508101906105539190610974565b5088467f28c1960b85c2cea008c0b366ad2b9887b76699b377fb5071fb56afc6c09fe3208560405161058791815260200190565b60405180910390a3505050505050505050565b5f80602083850312156105ab575f80fd5b823567ffffffffffffffff808211156105c2575f80fd5b818501915085601f8301126105d5575f80fd5b8135818111156105e3575f80fd5b8660208285010111156105f4575f80fd5b60209290920196919550909350505050565b5f8083601f840112610616575f80fd5b50813567ffffffffffffffff81111561062d575f80fd5b6020830191508360208260051b8501011115610647575f80fd5b9250929050565b6001600160a01b0381168114610662575f80fd5b50565b80356106708161064e565b919050565b5f805f805f806080878903121561068a575f80fd5b86359550602087013567ffffffffffffffff808211156106a8575f80fd5b6106b48a838b01610606565b909750955060408901359150808211156106cc575f80fd5b506106d989828a01610606565b90945092505060608701356106ed8161064e565b809150509295509295509295565b5f6020828403121561070b575f80fd5b81516107168161064e565b9392505050565b634e487b7160e01b5f52604160045260245ffd5b6040516080810167ffffffffffffffff811182821017156107545761075461071d565b60405290565b604051601f8201601f1916810167ffffffffffffffff811182821017156107835761078361071d565b604052919050565b5f67ffffffffffffffff8211156107a4576107a461071d565b5060051b60200190565b5f82601f8301126107bd575f80fd5b813560206107d26107cd8361078b565b61075a565b8083825260208201915060208460051b8701019350868411156107f3575f80fd5b602086015b8481101561080f57803583529183019183016107f8565b509695505050505050565b5f602080838503121561082b575f80fd5b823567ffffffffffffffff80821115610842575f80fd5b9084019060808287031215610855575f80fd5b61085d610731565b82358281111561086b575f80fd5b8301601f8101881361087b575f80fd5b80356108896107cd8261078b565b81815260059190911b8201860190868101908a8311156108a7575f80fd5b928701925b828410156108ce5783356108bf8161064e565b825292870192908701906108ac565b845250505082840135828111156108e3575f80fd5b6108ef888286016107ae565b858301525061090060408401610665565b6040820152606083013560608201528094505050505092915050565b634e487b7160e01b5f52603260045260245ffd5b8082018082111561094f57634e487b7160e01b5f52601160045260245ffd5b92915050565b5f60208284031215610965575f80fd5b81518015158114610716575f80fd5b5f60208284031215610984575f80fd5b5051919050565b5f815180845260208085019450602084015f5b838110156109ba5781518752958201959082019060010161099e565b509495945050505050565b60208082528251608083830152805160a084018190525f9291820190839060c08601905b80831015610a125783516001600160a01b031682529284019260019290920191908401906109e9565b5092860151858403601f1901604087015292610a2e818561098b565b93505050506040840151610a4d60608501826001600160a01b03169052565b50606084015160808401528091505092915050565b83815260018060a01b0383166020820152606060408201525f82518060608401528060208501608085015e5f608082850101526080601f19601f83011684010191505094935050505056fea2646970667358221220998dcfbbf783da80dbeb4b9d4658d88dd064a61c43749db8127a7d54dc4bdc8b64736f6c63430008190033",
            "nonce": "0x1",
            "chainId": "0x386"
          },
          "additionalContracts": [],
          "isFixedGasLimit": false
        }
      ],
      "receipts": [
        {
          "status": "0x1",
          "cumulativeGasUsed": "0xa602b",
          "logs": [],
          "logsBloom": "0x00000000000000000000000000000000000000000000000000000000000000000000000000000000000000000000000000000000000000000000000000000000000000000000000000000000000000000000000000000000000000000000000000000000000000000000000000000000000000000000000000000000000000000000000000000000000000000000000000000000000000000000000000000000000000000000000000000000000000000000000000000000000000000000000000000000000000000000000000000000000000000000000000000000000000000000000000000000000000000000000000000000000000000000000000000000",
          "type": "0x2",
          "transactionHash": "0xe5b64bd6a85517bfb9f4814a3967be1140e96e5b8ec2a578d4ee7c9ada6f4535",
          "transactionIndex": "0x0",
          "blockHash": "0x16e559c6ac670799107f86f2edf46eeb19005d592a72635e583629b269fa8cfb",
          "blockNumber": "0x260",
          "gasUsed": "0xa602b",
          "effectiveGasPrice": "0x8",
          "blobGasPrice": "0x1",
          "from": "0xf39fd6e51aad88f6f4ce6ab8827279cfffb92266",
          "to": "0x4e59b44847b379578588920ca78fbf26c0b4956c",
          "contractAddress": null
        }
      ],
      "libraries": [],
      "pending": [],
      "returns": {},
      "timestamp": 1732708015,
      "chain": 902,
      "commit": "8a335fb"
    },
    {
      "transactions": [
        {
          "hash": "0x3b0ac0f5f612d9a33dceb3a3f150da7f55b6a90adccbdb02dbd54b8e58cbefe0",
          "transactionType": "CALL",
          "contractName": null,
          "contractAddress": "0x4200000000000000000000000000000000000024",
          "function": "approve(address,uint256)",
          "arguments": [
            "0x803D865A5dC9C92A17dE34eAaBEC2258E2c574e6",
            "3000000000000000000"
          ],
          "transaction": {
            "from": "0xf39fd6e51aad88f6f4ce6ab8827279cfffb92266",
            "to": "0x4200000000000000000000000000000000000024",
            "gas": "0x1240c",
            "value": "0x0",
            "input": "0x095ea7b3000000000000000000000000803d865a5dc9c92a17de34eaabec2258e2c574e600000000000000000000000000000000000000000000000029a2241af62c0000",
            "nonce": "0x6",
            "chainId": "0x385"
          },
          "additionalContracts": [],
          "isFixedGasLimit": false
        },
        {
          "hash": "0x3187eb12e82a45a86d3d8dff5c351fca7294f4894e45d7beb79ef439a3baf55f",
          "transactionType": "CALL",
          "contractName": "SmartDisperse",
          "contractAddress": "0x803d865a5dc9c92a17de34eaabec2258e2c574e6",
          "function": "transferTokensTo(uint256,address[],uint256[],address)",
          "arguments": [
            "902",
            "[0x70997970C51812dc3A010C7d01b50e0d17dc79C8, 0x3C44CdDdB6a900fa2b585dd299e03d12FA4293BC]",
            "[1000000000000000000, 2000000000000000000]",
            "0x4200000000000000000000000000000000000024"
          ],
          "transaction": {
            "from": "0xf39fd6e51aad88f6f4ce6ab8827279cfffb92266",
            "to": "0x803d865a5dc9c92a17de34eaabec2258e2c574e6",
            "gas": "0x1fef7",
            "value": "0x0",
            "input": "0xfefea5810000000000000000000000000000000000000000000000000000000000000386000000000000000000000000000000000000000000000000000000000000008000000000000000000000000000000000000000000000000000000000000000e00000000000000000000000004200000000000000000000000000000000000024000000000000000000000000000000000000000000000000000000000000000200000000000000000000000070997970c51812dc3a010c7d01b50e0d17dc79c80000000000000000000000003c44cdddb6a900fa2b585dd299e03d12fa4293bc00000000000000000000000000000000000000000000000000000000000000020000000000000000000000000000000000000000000000000de0b6b3a76400000000000000000000000000000000000000000000000000001bc16d674ec80000",
            "nonce": "0x7",
            "chainId": "0x385"
          },
          "additionalContracts": [],
          "isFixedGasLimit": false
        }
      ],
      "receipts": [
        {
          "status": "0x1",
          "cumulativeGasUsed": "0xc7b1",
          "logs": [
            {
              "address": "0x4200000000000000000000000000000000000024",
              "topics": [
                "0x8c5be1e5ebec7d5bd14f71427d1e84f3dd0314c0f7b2291e5b200ac8c7c3b925",
                "0x000000000000000000000000f39fd6e51aad88f6f4ce6ab8827279cfffb92266",
                "0x000000000000000000000000803d865a5dc9c92a17de34eaabec2258e2c574e6"
              ],
              "data": "0x00000000000000000000000000000000000000000000000029a2241af62c0000",
              "blockHash": "0xe2601be592896e768619aecd351e5fa25f8dfedd01e5f1caf3917f1b6278791a",
              "blockNumber": "0x261",
              "blockTimestamp": "0x674706b4",
              "transactionHash": "0x3b0ac0f5f612d9a33dceb3a3f150da7f55b6a90adccbdb02dbd54b8e58cbefe0",
              "transactionIndex": "0x0",
              "logIndex": "0x0",
              "removed": false
            }
          ],
          "logsBloom": "0x00000000000000000000000000000000000000000000000000000000000000800000000000000000000000000000000000000000000000000000000000200000000000000000000000000000000000000000000000000000000000000000000000000000000040000000000100000000000000000000000000000000000000000000000000000000020000000004000000000000000000000000000000000000020000000000000000000000000000000000000000000000000000000000000000000000000000200000000000000000000000002000000000020000000000000010000000000000000000400000000000000000000000000000000000000000",
          "type": "0x2",
          "transactionHash": "0x3b0ac0f5f612d9a33dceb3a3f150da7f55b6a90adccbdb02dbd54b8e58cbefe0",
          "transactionIndex": "0x0",
          "blockHash": "0xe2601be592896e768619aecd351e5fa25f8dfedd01e5f1caf3917f1b6278791a",
          "blockNumber": "0x261",
          "gasUsed": "0xc7b1",
          "effectiveGasPrice": "0x8",
          "blobGasPrice": "0x1",
          "from": "0xf39fd6e51aad88f6f4ce6ab8827279cfffb92266",
          "to": "0x4200000000000000000000000000000000000024",
          "contractAddress": null
        },
        {
          "status": "0x1",
          "cumulativeGasUsed": "0x22512",
          "logs": [
            {
              "address": "0x4200000000000000000000000000000000000024",
              "topics": [
                "0xddf252ad1be2c89b69c2b068fc378daa952ba7f163c4a11628f55a4df523b3ef",
                "0x000000000000000000000000f39fd6e51aad88f6f4ce6ab8827279cfffb92266",
                "0x000000000000000000000000803d865a5dc9c92a17de34eaabec2258e2c574e6"
              ],
              "data": "0x00000000000000000000000000000000000000000000000029a2241af62c0000",
              "blockHash": "0xe2601be592896e768619aecd351e5fa25f8dfedd01e5f1caf3917f1b6278791a",
              "blockNumber": "0x261",
              "blockTimestamp": "0x674706b4",
              "transactionHash": "0x3187eb12e82a45a86d3d8dff5c351fca7294f4894e45d7beb79ef439a3baf55f",
              "transactionIndex": "0x1",
              "logIndex": "0x1",
              "removed": false
            },
            {
              "address": "0x4200000000000000000000000000000000000023",
              "topics": [
                "0x382409ac69001e11931a28435afef442cbfd20d9891907e8fa373ba7d351f320",
                "0x0000000000000000000000000000000000000000000000000000000000000386",
                "0x000000000000000000000000803d865a5dc9c92a17de34eaabec2258e2c574e6",
                "0x0000000000000000000000000000000000000000000000000000000000000001"
              ],
              "data": "0x000000000000000000000000803d865a5dc9c92a17de34eaabec2258e2c574e6000000000000000000000000000000000000000000000000000000000000004000000000000000000000000000000000000000000000000000000000000001600000000000000000000000000000000000000000000000000000000000000020000000000000000000000000000000000000000000000000000000000000008000000000000000000000000000000000000000000000000000000000000000e0000000000000000000000000420000000000000000000000000000000000002400000000000000000000000000000000000000000000000029a2241af62c0000000000000000000000000000000000000000000000000000000000000000000200000000000000000000000070997970c51812dc3a010c7d01b50e0d17dc79c80000000000000000000000003c44cdddb6a900fa2b585dd299e03d12fa4293bc00000000000000000000000000000000000000000000000000000000000000020000000000000000000000000000000000000000000000000de0b6b3a76400000000000000000000000000000000000000000000000000001bc16d674ec80000",
              "blockHash": "0xe2601be592896e768619aecd351e5fa25f8dfedd01e5f1caf3917f1b6278791a",
              "blockNumber": "0x261",
              "blockTimestamp": "0x674706b4",
              "transactionHash": "0x3187eb12e82a45a86d3d8dff5c351fca7294f4894e45d7beb79ef439a3baf55f",
              "transactionIndex": "0x1",
              "logIndex": "0x2",
              "removed": false
            },
            {
              "address": "0x803d865a5dc9c92a17de34eaabec2258e2c574e6",
              "topics": [
                "0x28c1960b85c2cea008c0b366ad2b9887b76699b377fb5071fb56afc6c09fe320",
                "0x0000000000000000000000000000000000000000000000000000000000000385",
                "0x0000000000000000000000000000000000000000000000000000000000000386"
              ],
              "data": "0x00000000000000000000000000000000000000000000000029a2241af62c0000",
              "blockHash": "0xe2601be592896e768619aecd351e5fa25f8dfedd01e5f1caf3917f1b6278791a",
              "blockNumber": "0x261",
              "blockTimestamp": "0x674706b4",
              "transactionHash": "0x3187eb12e82a45a86d3d8dff5c351fca7294f4894e45d7beb79ef439a3baf55f",
              "transactionIndex": "0x1",
              "logIndex": "0x3",
              "removed": false
            }
          ],
          "logsBloom": "0x20000000000000020000000000000000000000000000000000000000000000800000000001000000000000000000000000000000000040000008000000040000000000000000000002000008000000000000000000040100000000000000000000000000000040080040000100000000000000000000000000000010000000000000800000000000020000000004000000000000000000000000001000000000040000000000000000000002000000000000010000000000000000000000000000000002000000200000000000000000000000102000000000020000000040000000000000000400000000401800000000000000000000000000000000000000",
          "type": "0x2",
          "transactionHash": "0x3187eb12e82a45a86d3d8dff5c351fca7294f4894e45d7beb79ef439a3baf55f",
          "transactionIndex": "0x1",
          "blockHash": "0xe2601be592896e768619aecd351e5fa25f8dfedd01e5f1caf3917f1b6278791a",
          "blockNumber": "0x261",
          "gasUsed": "0x15d61",
          "effectiveGasPrice": "0x8",
          "blobGasPrice": "0x1",
          "from": "0xf39fd6e51aad88f6f4ce6ab8827279cfffb92266",
          "to": "0x803d865a5dc9c92a17de34eaabec2258e2c574e6",
          "contractAddress": null
        }
      ],
      "libraries": [],
      "pending": [],
      "returns": {},
      "timestamp": 1732708015,
      "chain": 901,
      "commit": "8a335fb"
    }
  ],
  "timestamp": 1732708020
}