{
  "deployments": [
    {
      "transactions": [
        {
          "hash": "0x1fd2b1de6aef428677e5686f1312672528b37a5fd21ed74dd4f4c841f441615a",
          "transactionType": "CREATE",
          "contractName": "SmartDisperse",
          "contractAddress": "0x5fbdb2315678afecb367f032d93f642f64180aa3",
          "function": null,
          "arguments": null,
          "transaction": {
            "from": "0xf39fd6e51aad88f6f4ce6ab8827279cfffb92266",
            "gas": "0xce917",
            "value": "0x0",
            "input": "0x60806040525f80546001600160a01b0319167342000000000000000000000000000000000000231790553480156033575f80fd5b50610a63806100415f395ff3fe608060405234801561000f575f80fd5b5060043610610034575f3560e01c8063afddb54514610038578063fefea5811461004d575b5f80fd5b61004b6100463660046106aa565b610060565b005b61004b61005b3660046107f4565b6102e7565b5f546001600160a01b03163314610089576040516265d51560e41b815260040160405180910390fd5b5f546040805163071ffbc360e31b8152905130926001600160a01b0316916338ffde189160048083019260209291908290030181865afa1580156100cf573d5f803e3d5ffd5b505050506040513d601f19601f820116820180604052508101906100f3919061087a565b6001600160a01b03161461011a57604051635e11715560e11b815260040160405180910390fd5b5f805b82515181101561023b578260200151818151811061013d5761013d61089c565b60200260200101518261015091906108b0565b91505f83604001516001600160a01b031663a9059cbb855f0151848151811061017b5761017b61089c565b6020026020010151866020015185815181106101995761019961089c565b60200260200101516040518363ffffffff1660e01b81526004016101d29291906001600160a01b03929092168252602082015260400190565b6020604051808303815f875af11580156101ee573d5f803e3d5ffd5b505050506040513d601f19601f8201168201806040525081019061021291906108d5565b905080610232576040516312171d8360e31b815260040160405180910390fd5b5060010161011d565b505f546040805163123ca23160e11b8152905146926001600160a01b03169163247944629160048083019260209291908290030181865afa158015610282573d5f803e3d5ffd5b505050506040513d601f19601f820116820180604052508101906102a691906108f4565b7f8d2fa7456103cc6e98a7598c430974c51363c67c6688f6b78e1b152a56f56e3984606001516040516102db91815260200190565b60405180910390a35050565b8382146103335760405162461bcd60e51b8152602060048201526016602482015275082e4e4c2f2e640d8cadccee8d040dad2e6dac2e8c6d60531b604482015260640160405180910390fd5b5f805b8381101561036c578484828181106103505761035061089c565b905060200201358261036291906108b0565b9150600101610336565b506040516323b872dd60e01b8152336004820152306024820152604481018290525f906001600160a01b038416906323b872dd906064016020604051808303815f875af11580156103bf573d5f803e3d5ffd5b505050506040513d601f19601f820116820180604052508101906103e391906108d5565b905080610403576040516312171d8360e31b815260040160405180910390fd5b6040805160a0602089028083018201909352608082018981525f9383928c918c918291908601908490808284375f9201919091525050509082525060408051602089810282810182019093528982529283019290918a918a9182918501908490808284375f9201829052509385525050506001600160a01b0380881660208401526040928301879052905491519293501690637056f41f908b903090819063afddb545906104b5908890602401610945565b60408051808303601f1901815291815260208201805160e094851b6001600160e01b03909116179052519186901b6001600160e01b03191682526104ff94939250906004016109e2565b6020604051808303815f875af115801561051b573d5f803e3d5ffd5b505050506040513d601f19601f8201168201806040525081019061053f91906108f4565b5088467f28c1960b85c2cea008c0b366ad2b9887b76699b377fb5071fb56afc6c09fe3208560405161057391815260200190565b60405180910390a3505050505050505050565b634e487b7160e01b5f52604160045260245ffd5b6040516080810167ffffffffffffffff811182821017156105bd576105bd610586565b60405290565b604051601f8201601f1916810167ffffffffffffffff811182821017156105ec576105ec610586565b604052919050565b5f67ffffffffffffffff82111561060d5761060d610586565b5060051b60200190565b6001600160a01b038116811461062b575f80fd5b50565b803561063981610617565b919050565b5f82601f83011261064d575f80fd5b8135602061066261065d836105f4565b6105c3565b8083825260208201915060208460051b870101935086841115610683575f80fd5b602086015b8481101561069f5780358352918301918301610688565b509695505050505050565b5f60208083850312156106bb575f80fd5b823567ffffffffffffffff808211156106d2575f80fd5b90840190608082870312156106e5575f80fd5b6106ed61059a565b8235828111156106fb575f80fd5b8301601f8101881361070b575f80fd5b803561071961065d826105f4565b81815260059190911b8201860190868101908a831115610737575f80fd5b928701925b8284101561075e57833561074f81610617565b8252928701929087019061073c565b84525050508284013582811115610773575f80fd5b61077f8882860161063e565b85830152506107906040840161062e565b6040820152606083013560608201528094505050505092915050565b5f8083601f8401126107bc575f80fd5b50813567ffffffffffffffff8111156107d3575f80fd5b6020830191508360208260051b85010111156107ed575f80fd5b9250929050565b5f805f805f8060808789031215610809575f80fd5b86359550602087013567ffffffffffffffff80821115610827575f80fd5b6108338a838b016107ac565b9097509550604089013591508082111561084b575f80fd5b5061085889828a016107ac565b909450925050606087013561086c81610617565b809150509295509295509295565b5f6020828403121561088a575f80fd5b815161089581610617565b9392505050565b634e487b7160e01b5f52603260045260245ffd5b808201808211156108cf57634e487b7160e01b5f52601160045260245ffd5b92915050565b5f602082840312156108e5575f80fd5b81518015158114610895575f80fd5b5f60208284031215610904575f80fd5b5051919050565b5f815180845260208085019450602084015f5b8381101561093a5781518752958201959082019060010161091e565b509495945050505050565b60208082528251608083830152805160a084018190525f9291820190839060c08601905b808310156109925783516001600160a01b03168252928401926001929092019190840190610969565b5092860151858403601f19016040870152926109ae818561090b565b935050505060408401516109cd60608501826001600160a01b03169052565b50606084015160808401528091505092915050565b83815260018060a01b0383166020820152606060408201525f82518060608401528060208501608085015e5f608082850101526080601f19601f83011684010191505094935050505056fea2646970667358221220487e1355a2e3875b1aae068c1632e7489d20813b4eb10e47eef7043b5ac4360264736f6c63430008190033",
            "nonce": "0x0",
            "chainId": "0x385"
          },
          "additionalContracts": [],
          "isFixedGasLimit": false
        },
        {
          "hash": "0x2fc1ba053218e2c9f214b7ccf11b2c38536cea69bf313150ba88c0a3e7e836ee",
          "transactionType": "CALL",
          "contractName": null,
          "contractAddress": "0x4200000000000000000000000000000000000024",
          "function": null,
          "arguments": null,
          "transaction": {
            "from": "0xf39fd6e51aad88f6f4ce6ab8827279cfffb92266",
            "to": "0x4200000000000000000000000000000000000024",
            "gas": "0x157d7",
            "value": "0x8ac7230489e80000",
            "input": "0x",
            "nonce": "0x1",
            "chainId": "0x385"
          },
          "additionalContracts": [],
          "isFixedGasLimit": false
        }
      ],
      "receipts": [
        {
          "status": "0x1",
          "cumulativeGasUsed": "0x9ee61",
          "logs": [],
          "logsBloom": "0x00000000000000000000000000000000000000000000000000000000000000000000000000000000000000000000000000000000000000000000000000000000000000000000000000000000000000000000000000000000000000000000000000000000000000000000000000000000000000000000000000000000000000000000000000000000000000000000000000000000000000000000000000000000000000000000000000000000000000000000000000000000000000000000000000000000000000000000000000000000000000000000000000000000000000000000000000000000000000000000000000000000000000000000000000000000",
          "type": "0x2",
          "transactionHash": "0x1fd2b1de6aef428677e5686f1312672528b37a5fd21ed74dd4f4c841f441615a",
          "transactionIndex": "0x0",
          "blockHash": "0xe30a22e82aa2764320d2db2c091019fbfd7a6ae49046895e0bf99a8de37dade5",
          "blockNumber": "0x7e3",
          "gasUsed": "0x9ee61",
          "effectiveGasPrice": "0x8",
          "blobGasPrice": "0x1",
          "from": "0xf39fd6e51aad88f6f4ce6ab8827279cfffb92266",
          "to": null,
          "contractAddress": "0x5fbdb2315678afecb367f032d93f642f64180aa3"
        },
        {
          "status": "0x1",
          "cumulativeGasUsed": "0xad97c",
          "logs": [
            {
              "address": "0x4200000000000000000000000000000000000024",
              "topics": [
                "0xe1fffcc4923d04b559f4d29a8bfc6cda04eb5b0d3c460751c2402c5c5cc9109c",
                "0x000000000000000000000000f39fd6e51aad88f6f4ce6ab8827279cfffb92266"
              ],
              "data": "0x0000000000000000000000000000000000000000000000008ac7230489e80000",
              "blockHash": "0xe30a22e82aa2764320d2db2c091019fbfd7a6ae49046895e0bf99a8de37dade5",
              "blockNumber": "0x7e3",
              "blockTimestamp": "0x6746ebf4",
              "transactionHash": "0x2fc1ba053218e2c9f214b7ccf11b2c38536cea69bf313150ba88c0a3e7e836ee",
              "transactionIndex": "0x1",
              "logIndex": "0x0",
              "removed": false
            }
          ],
          "logsBloom": "0x00000000000000000000000000000000000000000000000000000000000000800000000000000000000000000000000000000000000000000000000000000000000000000000000000000000000000000000000000000000000000008000000000000000000000000000000100000000000000000000000000000000000000000000000000000000020000000004000000000001000000000000000000000000000000000000000000000000000000000000000000000000000000000000000000000000000000200000000000000000000000002000000000000000000000000000000000000000000000000000000000000000000000400000000000000000",
          "type": "0x2",
          "transactionHash": "0x2fc1ba053218e2c9f214b7ccf11b2c38536cea69bf313150ba88c0a3e7e836ee",
          "transactionIndex": "0x1",
          "blockHash": "0xe30a22e82aa2764320d2db2c091019fbfd7a6ae49046895e0bf99a8de37dade5",
          "blockNumber": "0x7e3",
          "gasUsed": "0xeb1b",
          "effectiveGasPrice": "0x8",
          "blobGasPrice": "0x1",
          "from": "0xf39fd6e51aad88f6f4ce6ab8827279cfffb92266",
          "to": "0x4200000000000000000000000000000000000024",
          "contractAddress": null
        }
      ],
      "libraries": [],
      "pending": [],
      "returns": {},
      "timestamp": 1732701171,
      "chain": 901,
      "commit": "8a335fb"
    },
    {
      "transactions": [
        {
          "hash": "0x0753f3bc3b69c50d19ad14ba9e37fde9a3b684ebc80d2c3ababc31c4695b4720",
          "transactionType": "CREATE",
          "contractName": "SmartDisperse",
          "contractAddress": "0x5fbdb2315678afecb367f032d93f642f64180aa3",
          "function": null,
          "arguments": null,
          "transaction": {
            "from": "0xf39fd6e51aad88f6f4ce6ab8827279cfffb92266",
            "gas": "0xce917",
            "value": "0x0",
            "input": "0x60806040525f80546001600160a01b0319167342000000000000000000000000000000000000231790553480156033575f80fd5b50610a63806100415f395ff3fe608060405234801561000f575f80fd5b5060043610610034575f3560e01c8063afddb54514610038578063fefea5811461004d575b5f80fd5b61004b6100463660046106aa565b610060565b005b61004b61005b3660046107f4565b6102e7565b5f546001600160a01b03163314610089576040516265d51560e41b815260040160405180910390fd5b5f546040805163071ffbc360e31b8152905130926001600160a01b0316916338ffde189160048083019260209291908290030181865afa1580156100cf573d5f803e3d5ffd5b505050506040513d601f19601f820116820180604052508101906100f3919061087a565b6001600160a01b03161461011a57604051635e11715560e11b815260040160405180910390fd5b5f805b82515181101561023b578260200151818151811061013d5761013d61089c565b60200260200101518261015091906108b0565b91505f83604001516001600160a01b031663a9059cbb855f0151848151811061017b5761017b61089c565b6020026020010151866020015185815181106101995761019961089c565b60200260200101516040518363ffffffff1660e01b81526004016101d29291906001600160a01b03929092168252602082015260400190565b6020604051808303815f875af11580156101ee573d5f803e3d5ffd5b505050506040513d601f19601f8201168201806040525081019061021291906108d5565b905080610232576040516312171d8360e31b815260040160405180910390fd5b5060010161011d565b505f546040805163123ca23160e11b8152905146926001600160a01b03169163247944629160048083019260209291908290030181865afa158015610282573d5f803e3d5ffd5b505050506040513d601f19601f820116820180604052508101906102a691906108f4565b7f8d2fa7456103cc6e98a7598c430974c51363c67c6688f6b78e1b152a56f56e3984606001516040516102db91815260200190565b60405180910390a35050565b8382146103335760405162461bcd60e51b8152602060048201526016602482015275082e4e4c2f2e640d8cadccee8d040dad2e6dac2e8c6d60531b604482015260640160405180910390fd5b5f805b8381101561036c578484828181106103505761035061089c565b905060200201358261036291906108b0565b9150600101610336565b506040516323b872dd60e01b8152336004820152306024820152604481018290525f906001600160a01b038416906323b872dd906064016020604051808303815f875af11580156103bf573d5f803e3d5ffd5b505050506040513d601f19601f820116820180604052508101906103e391906108d5565b905080610403576040516312171d8360e31b815260040160405180910390fd5b6040805160a0602089028083018201909352608082018981525f9383928c918c918291908601908490808284375f9201919091525050509082525060408051602089810282810182019093528982529283019290918a918a9182918501908490808284375f9201829052509385525050506001600160a01b0380881660208401526040928301879052905491519293501690637056f41f908b903090819063afddb545906104b5908890602401610945565b60408051808303601f1901815291815260208201805160e094851b6001600160e01b03909116179052519186901b6001600160e01b03191682526104ff94939250906004016109e2565b6020604051808303815f875af115801561051b573d5f803e3d5ffd5b505050506040513d601f19601f8201168201806040525081019061053f91906108f4565b5088467f28c1960b85c2cea008c0b366ad2b9887b76699b377fb5071fb56afc6c09fe3208560405161057391815260200190565b60405180910390a3505050505050505050565b634e487b7160e01b5f52604160045260245ffd5b6040516080810167ffffffffffffffff811182821017156105bd576105bd610586565b60405290565b604051601f8201601f1916810167ffffffffffffffff811182821017156105ec576105ec610586565b604052919050565b5f67ffffffffffffffff82111561060d5761060d610586565b5060051b60200190565b6001600160a01b038116811461062b575f80fd5b50565b803561063981610617565b919050565b5f82601f83011261064d575f80fd5b8135602061066261065d836105f4565b6105c3565b8083825260208201915060208460051b870101935086841115610683575f80fd5b602086015b8481101561069f5780358352918301918301610688565b509695505050505050565b5f60208083850312156106bb575f80fd5b823567ffffffffffffffff808211156106d2575f80fd5b90840190608082870312156106e5575f80fd5b6106ed61059a565b8235828111156106fb575f80fd5b8301601f8101881361070b575f80fd5b803561071961065d826105f4565b81815260059190911b8201860190868101908a831115610737575f80fd5b928701925b8284101561075e57833561074f81610617565b8252928701929087019061073c565b84525050508284013582811115610773575f80fd5b61077f8882860161063e565b85830152506107906040840161062e565b6040820152606083013560608201528094505050505092915050565b5f8083601f8401126107bc575f80fd5b50813567ffffffffffffffff8111156107d3575f80fd5b6020830191508360208260051b85010111156107ed575f80fd5b9250929050565b5f805f805f8060808789031215610809575f80fd5b86359550602087013567ffffffffffffffff80821115610827575f80fd5b6108338a838b016107ac565b9097509550604089013591508082111561084b575f80fd5b5061085889828a016107ac565b909450925050606087013561086c81610617565b809150509295509295509295565b5f6020828403121561088a575f80fd5b815161089581610617565b9392505050565b634e487b7160e01b5f52603260045260245ffd5b808201808211156108cf57634e487b7160e01b5f52601160045260245ffd5b92915050565b5f602082840312156108e5575f80fd5b81518015158114610895575f80fd5b5f60208284031215610904575f80fd5b5051919050565b5f815180845260208085019450602084015f5b8381101561093a5781518752958201959082019060010161091e565b509495945050505050565b60208082528251608083830152805160a084018190525f9291820190839060c08601905b808310156109925783516001600160a01b03168252928401926001929092019190840190610969565b5092860151858403601f19016040870152926109ae818561090b565b935050505060408401516109cd60608501826001600160a01b03169052565b50606084015160808401528091505092915050565b83815260018060a01b0383166020820152606060408201525f82518060608401528060208501608085015e5f608082850101526080601f19601f83011684010191505094935050505056fea2646970667358221220487e1355a2e3875b1aae068c1632e7489d20813b4eb10e47eef7043b5ac4360264736f6c63430008190033",
            "nonce": "0x0",
            "chainId": "0x386"
          },
          "additionalContracts": [],
          "isFixedGasLimit": false
        }
      ],
      "receipts": [
        {
          "status": "0x1",
          "cumulativeGasUsed": "0x9ee61",
          "logs": [],
          "logsBloom": "0x00000000000000000000000000000000000000000000000000000000000000000000000000000000000000000000000000000000000000000000000000000000000000000000000000000000000000000000000000000000000000000000000000000000000000000000000000000000000000000000000000000000000000000000000000000000000000000000000000000000000000000000000000000000000000000000000000000000000000000000000000000000000000000000000000000000000000000000000000000000000000000000000000000000000000000000000000000000000000000000000000000000000000000000000000000000",
          "type": "0x2",
          "transactionHash": "0x0753f3bc3b69c50d19ad14ba9e37fde9a3b684ebc80d2c3ababc31c4695b4720",
          "transactionIndex": "0x0",
          "blockHash": "0x77ab9de0038057080094e9edf5eb07b41af2bc5c986e77e960f8e78001e55af0",
          "blockNumber": "0x7e4",
          "gasUsed": "0x9ee61",
          "effectiveGasPrice": "0x8",
          "blobGasPrice": "0x1",
          "from": "0xf39fd6e51aad88f6f4ce6ab8827279cfffb92266",
          "to": null,
          "contractAddress": "0x5fbdb2315678afecb367f032d93f642f64180aa3"
        }
      ],
      "libraries": [],
      "pending": [],
      "returns": {},
      "timestamp": 1732701171,
      "chain": 902,
      "commit": "8a335fb"
    },
    {
      "transactions": [
        {
          "hash": "0x6bb56fbe456564b3a18c71e79454f3f93963b103a713efc6e9431e1e9cf279d3",
          "transactionType": "CALL",
          "contractName": null,
          "contractAddress": "0x4200000000000000000000000000000000000024",
          "function": "approve(address,uint256)",
          "arguments": [
            "0x5FbDB2315678afecb367f032d93F642f64180aa3",
            "3000000000000000000"
          ],
          "transaction": {
            "from": "0xf39fd6e51aad88f6f4ce6ab8827279cfffb92266",
            "to": "0x4200000000000000000000000000000000000024",
            "gas": "0x1240c",
            "value": "0x0",
            "input": "0x095ea7b30000000000000000000000005fbdb2315678afecb367f032d93f642f64180aa300000000000000000000000000000000000000000000000029a2241af62c0000",
            "nonce": "0x2",
            "chainId": "0x385"
          },
          "additionalContracts": [],
          "isFixedGasLimit": false
        },
        {
          "hash": "0xb196063cf3161302f7e39e0a86582cc67960787ef08d4de8858473e9a793baca",
          "transactionType": "CALL",
          "contractName": "SmartDisperse",
          "contractAddress": "0x5fbdb2315678afecb367f032d93f642f64180aa3",
          "function": "transferTokensTo(uint256,address[],uint256[],address)",
          "arguments": [
            "902",
            "[0x70997970C51812dc3A010C7d01b50e0d17dc79C8, 0x3C44CdDdB6a900fa2b585dd299e03d12FA4293BC]",
            "[1000000000000000000, 2000000000000000000]",
            "0x4200000000000000000000000000000000000024"
          ],
          "transaction": {
            "from": "0xf39fd6e51aad88f6f4ce6ab8827279cfffb92266",
            "to": "0x5fbdb2315678afecb367f032d93f642f64180aa3",
            "gas": "0x240cc",
            "value": "0x0",
            "input": "0xfefea5810000000000000000000000000000000000000000000000000000000000000386000000000000000000000000000000000000000000000000000000000000008000000000000000000000000000000000000000000000000000000000000000e00000000000000000000000004200000000000000000000000000000000000024000000000000000000000000000000000000000000000000000000000000000200000000000000000000000070997970c51812dc3a010c7d01b50e0d17dc79c80000000000000000000000003c44cdddb6a900fa2b585dd299e03d12fa4293bc00000000000000000000000000000000000000000000000000000000000000020000000000000000000000000000000000000000000000000de0b6b3a76400000000000000000000000000000000000000000000000000001bc16d674ec80000",
            "nonce": "0x3",
            "chainId": "0x385"
          },
          "additionalContracts": [],
          "isFixedGasLimit": false
        }
      ],
      "receipts": [
        {
          "status": "0x1",
          "cumulativeGasUsed": "0xc7b1",
          "logs": [
            {
              "address": "0x4200000000000000000000000000000000000024",
              "topics": [
                "0x8c5be1e5ebec7d5bd14f71427d1e84f3dd0314c0f7b2291e5b200ac8c7c3b925",
                "0x000000000000000000000000f39fd6e51aad88f6f4ce6ab8827279cfffb92266",
                "0x0000000000000000000000005fbdb2315678afecb367f032d93f642f64180aa3"
              ],
              "data": "0x00000000000000000000000000000000000000000000000029a2241af62c0000",
              "blockHash": "0xbe4ac8896836cb2f331ca2b665327bd1247ebf24148e1dcc583ae6b482e977af",
              "blockNumber": "0x7e5",
              "blockTimestamp": "0x6746ebf8",
              "transactionHash": "0x6bb56fbe456564b3a18c71e79454f3f93963b103a713efc6e9431e1e9cf279d3",
              "transactionIndex": "0x0",
              "logIndex": "0x0",
              "removed": false
            }
          ],
          "logsBloom": "0x00000000000000000000000000000000000000000000000000000000000000800000000000000000000000000000000000000000000000000000000000200000000000000000000000000000000000000000000000000000000000000000000000000000000000000000000100800000000004000000000000000000000000000000000000000000020000000004000000000000000000000000000000000000020000000000000000000000000000000000000000000000000000000000000000000000000000200000000000000000000000002008000000000000000000000010000000000000000000000000000000000000000000000000000000000000",
          "type": "0x2",
          "transactionHash": "0x6bb56fbe456564b3a18c71e79454f3f93963b103a713efc6e9431e1e9cf279d3",
          "transactionIndex": "0x0",
          "blockHash": "0xbe4ac8896836cb2f331ca2b665327bd1247ebf24148e1dcc583ae6b482e977af",
          "blockNumber": "0x7e5",
          "gasUsed": "0xc7b1",
          "effectiveGasPrice": "0x8",
          "blobGasPrice": "0x1",
          "from": "0xf39fd6e51aad88f6f4ce6ab8827279cfffb92266",
          "to": "0x4200000000000000000000000000000000000024",
          "contractAddress": null
        },
        {
          "status": "0x1",
          "cumulativeGasUsed": "0x26949",
          "logs": [
            {
              "address": "0x4200000000000000000000000000000000000024",
              "topics": [
                "0xddf252ad1be2c89b69c2b068fc378daa952ba7f163c4a11628f55a4df523b3ef",
                "0x000000000000000000000000f39fd6e51aad88f6f4ce6ab8827279cfffb92266",
                "0x0000000000000000000000005fbdb2315678afecb367f032d93f642f64180aa3"
              ],
              "data": "0x00000000000000000000000000000000000000000000000029a2241af62c0000",
              "blockHash": "0xbe4ac8896836cb2f331ca2b665327bd1247ebf24148e1dcc583ae6b482e977af",
              "blockNumber": "0x7e5",
              "blockTimestamp": "0x6746ebf8",
              "transactionHash": "0xb196063cf3161302f7e39e0a86582cc67960787ef08d4de8858473e9a793baca",
              "transactionIndex": "0x1",
              "logIndex": "0x1",
              "removed": false
            },
            {
              "address": "0x4200000000000000000000000000000000000023",
              "topics": [
                "0x382409ac69001e11931a28435afef442cbfd20d9891907e8fa373ba7d351f320",
                "0x0000000000000000000000000000000000000000000000000000000000000386",
                "0x0000000000000000000000005fbdb2315678afecb367f032d93f642f64180aa3",
                "0x0000000000000000000000000000000000000000000000000000000000000000"
              ],
              "data": "0x0000000000000000000000005fbdb2315678afecb367f032d93f642f64180aa300000000000000000000000000000000000000000000000000000000000000400000000000000000000000000000000000000000000000000000000000000164afddb5450000000000000000000000000000000000000000000000000000000000000020000000000000000000000000000000000000000000000000000000000000008000000000000000000000000000000000000000000000000000000000000000e0000000000000000000000000420000000000000000000000000000000000002400000000000000000000000000000000000000000000000029a2241af62c0000000000000000000000000000000000000000000000000000000000000000000200000000000000000000000070997970c51812dc3a010c7d01b50e0d17dc79c80000000000000000000000003c44cdddb6a900fa2b585dd299e03d12fa4293bc00000000000000000000000000000000000000000000000000000000000000020000000000000000000000000000000000000000000000000de0b6b3a76400000000000000000000000000000000000000000000000000001bc16d674ec8000000000000000000000000000000000000000000000000000000000000",
              "blockHash": "0xbe4ac8896836cb2f331ca2b665327bd1247ebf24148e1dcc583ae6b482e977af",
              "blockNumber": "0x7e5",
              "blockTimestamp": "0x6746ebf8",
              "transactionHash": "0xb196063cf3161302f7e39e0a86582cc67960787ef08d4de8858473e9a793baca",
              "transactionIndex": "0x1",
              "logIndex": "0x2",
              "removed": false
            },
            {
              "address": "0x5fbdb2315678afecb367f032d93f642f64180aa3",
              "topics": [
                "0x28c1960b85c2cea008c0b366ad2b9887b76699b377fb5071fb56afc6c09fe320",
                "0x0000000000000000000000000000000000000000000000000000000000000385",
                "0x0000000000000000000000000000000000000000000000000000000000000386"
              ],
              "data": "0x00000000000000000000000000000000000000000000000029a2241af62c0000",
              "blockHash": "0xbe4ac8896836cb2f331ca2b665327bd1247ebf24148e1dcc583ae6b482e977af",
              "blockNumber": "0x7e5",
              "blockTimestamp": "0x6746ebf8",
              "transactionHash": "0xb196063cf3161302f7e39e0a86582cc67960787ef08d4de8858473e9a793baca",
              "transactionIndex": "0x1",
              "logIndex": "0x3",
              "removed": false
            }
          ],
          "logsBloom": "0x20000000000000020000000000000000000000000000000000000000000000800000000000000000000000000000000000000000000040000008000000000000000000000000000002000008000000000000000000000100000000000000000000000040020000000040000100800800000004000000000000000010000000000000800000000000020000000004000000000000000000000000001200000000040000000000000000000002000000000000010000000000000000000000000000000042000000200000000000000000000000102008000000000000000020000000000000000000000000001800000000000000000000000000000000000000",
          "type": "0x2",
          "transactionHash": "0xb196063cf3161302f7e39e0a86582cc67960787ef08d4de8858473e9a793baca",
          "transactionIndex": "0x1",
          "blockHash": "0xbe4ac8896836cb2f331ca2b665327bd1247ebf24148e1dcc583ae6b482e977af",
          "blockNumber": "0x7e5",
          "gasUsed": "0x1a198",
          "effectiveGasPrice": "0x8",
          "blobGasPrice": "0x1",
          "from": "0xf39fd6e51aad88f6f4ce6ab8827279cfffb92266",
          "to": "0x5fbdb2315678afecb367f032d93f642f64180aa3",
          "contractAddress": null
        }
      ],
      "libraries": [],
      "pending": [],
      "returns": {},
      "timestamp": 1732701171,
      "chain": 901,
      "commit": "8a335fb"
    }
  ],
  "timestamp": 1732701176
}