{
  "deployments": [
    {
      "transactions": [
        {
          "hash": "0x65d2dbef73ab53e8bdd8172beca9ab21dadf4be6e0fece2fb202d5e741cbcb7d",
          "transactionType": "CREATE",
          "contractName": "SmartDisperse",
          "contractAddress": "0x5eb3bc0a489c5a8288765d2336659ebca68fcd00",
          "function": null,
          "arguments": null,
          "transaction": {
            "from": "0xf39fd6e51aad88f6f4ce6ab8827279cfffb92266",
            "gas": "0xc7044",
            "value": "0x0",
            "input": "0x60806040525f80546001600160a01b0319167342000000000000000000000000000000000000231790553480156033575f80fd5b506109f5806100415f395ff3fe608060405234801561000f575f80fd5b5060043610610034575f3560e01c8063afddb54514610038578063fefea5811461004d575b5f80fd5b61004b61004636600461065c565b610060565b005b61004b61005b3660046106f6565b610349565b5f546001600160a01b03163314610089576040516265d51560e41b815260040160405180910390fd5b5f546040805163071ffbc360e31b8152905130926001600160a01b0316916338ffde189160048083019260209291908290030181865afa1580156100cf573d5f803e3d5ffd5b505050506040513d601f19601f820116820180604052508101906100f3919061077c565b6001600160a01b03161461011a57604051635e11715560e11b815260040160405180910390fd5b5f6101546040518060400160405280601381526020017202932b1b2b4bb32b21036b2b9b9b0b3b2901d1606d1b81525083606001356105e8565b5f5b6101608380610797565b90508110156102a3576101766020840184610797565b82818110610186576101866107dd565b905060200201358261019891906107f1565b91505f6101ab6060850160408601610816565b6001600160a01b031663a9059cbb6101c38680610797565b858181106101d3576101d36107dd565b90506020020160208101906101e89190610816565b6101f56020880188610797565b86818110610205576102056107dd565b6040516001600160e01b031960e087901b1681526001600160a01b03909416600485015260200291909101356024830152506044016020604051808303815f875af1158015610256573d5f803e3d5ffd5b505050506040513d601f19601f8201168201806040525081019061027a9190610831565b90508061029a576040516312171d8360e31b815260040160405180910390fd5b50600101610156565b505f546040805163123ca23160e11b8152905146926001600160a01b03169163247944629160048083019260209291908290030181865afa1580156102ea573d5f803e3d5ffd5b505050506040513d601f19601f8201168201806040525081019061030e9190610850565b604051606085013581527f8d2fa7456103cc6e98a7598c430974c51363c67c6688f6b78e1b152a56f56e399060200160405180910390a35050565b8382146103955760405162461bcd60e51b8152602060048201526016602482015275082e4e4c2f2e640d8cadccee8d040dad2e6dac2e8c6d60531b604482015260640160405180910390fd5b5f805b838110156103ce578484828181106103b2576103b26107dd565b90506020020135826103c491906107f1565b9150600101610398565b506040516323b872dd60e01b8152336004820152306024820152604481018290525f906001600160a01b038416906323b872dd906064016020604051808303815f875af1158015610421573d5f803e3d5ffd5b505050506040513d601f19601f820116820180604052508101906104459190610831565b905080610465576040516312171d8360e31b815260040160405180910390fd5b6040805160a0602089028083018201909352608082018981525f9383928c918c918291908601908490808284375f9201919091525050509082525060408051602089810282810182019093528982529283019290918a918a9182918501908490808284375f9201829052509385525050506001600160a01b0380881660208401526040928301879052905491519293501690637056f41f908b903090819063afddb545906105179088906024016108a1565b60408051808303601f1901815291815260208201805160e094851b6001600160e01b03909116179052519186901b6001600160e01b0319168252610561949392509060040161096c565b6020604051808303815f875af115801561057d573d5f803e3d5ffd5b505050506040513d601f19601f820116820180604052508101906105a19190610850565b5088467f28c1960b85c2cea008c0b366ad2b9887b76699b377fb5071fb56afc6c09fe320856040516105d591815260200190565b60405180910390a3505050505050505050565b61062d82826040516024016105fe92919061099e565b60408051601f198184030181529190526020810180516001600160e01b0316632d839cb360e21b179052610631565b5050565b61063a8161063d565b50565b5f6a636f6e736f6c652e6c6f6790505f80835160208501845afa505050565b5f6020828403121561066c575f80fd5b813567ffffffffffffffff811115610682575f80fd5b820160808185031215610693575f80fd5b9392505050565b5f8083601f8401126106aa575f80fd5b50813567ffffffffffffffff8111156106c1575f80fd5b6020830191508360208260051b85010111156106db575f80fd5b9250929050565b6001600160a01b038116811461063a575f80fd5b5f805f805f806080878903121561070b575f80fd5b86359550602087013567ffffffffffffffff80821115610729575f80fd5b6107358a838b0161069a565b9097509550604089013591508082111561074d575f80fd5b5061075a89828a0161069a565b909450925050606087013561076e816106e2565b809150509295509295509295565b5f6020828403121561078c575f80fd5b8151610693816106e2565b5f808335601e198436030181126107ac575f80fd5b83018035915067ffffffffffffffff8211156107c6575f80fd5b6020019150600581901b36038213156106db575f80fd5b634e487b7160e01b5f52603260045260245ffd5b8082018082111561081057634e487b7160e01b5f52601160045260245ffd5b92915050565b5f60208284031215610826575f80fd5b8135610693816106e2565b5f60208284031215610841575f80fd5b81518015158114610693575f80fd5b5f60208284031215610860575f80fd5b5051919050565b5f815180845260208085019450602084015f5b838110156108965781518752958201959082019060010161087a565b509495945050505050565b60208082528251608083830152805160a084018190525f9291820190839060c08601905b808310156108ee5783516001600160a01b031682529284019260019290920191908401906108c5565b5092860151858403601f190160408701529261090a8185610867565b9350505050604084015161092960608501826001600160a01b03169052565b50606084015160808401528091505092915050565b5f81518084528060208401602086015e5f602082860101526020601f19601f83011685010191505092915050565b8381526001600160a01b03831660208201526060604082018190525f906109959083018461093e565b95945050505050565b604081525f6109b0604083018561093e565b9050826020830152939250505056fea2646970667358221220194d0e706034cc4a7f84d08f8996f9d877131fc0b4dc77cfe02ead0a8d64c7e464736f6c63430008190033",
            "nonce": "0x2e",
            "chainId": "0x385"
          },
          "additionalContracts": [],
          "isFixedGasLimit": false
        },
        {
          "hash": "0x0b287b05af5ec734950b4186baec46d355918b6b7fbdace5be1a21a7130c4013",
          "transactionType": "CALL",
          "contractName": null,
          "contractAddress": "0x4200000000000000000000000000000000000024",
          "function": null,
          "arguments": null,
          "transaction": {
            "from": "0xf39fd6e51aad88f6f4ce6ab8827279cfffb92266",
            "to": "0x4200000000000000000000000000000000000024",
            "gas": "0xe878",
            "value": "0x8ac7230489e80000",
            "input": "0x",
            "nonce": "0x2f",
            "chainId": "0x385"
          },
          "additionalContracts": [],
          "isFixedGasLimit": false
        }
      ],
      "receipts": [
        {
          "status": "0x1",
          "cumulativeGasUsed": "0x99170",
          "logs": [],
          "logsBloom": "0x00000000000000000000000000000000000000000000000000000000000000000000000000000000000000000000000000000000000000000000000000000000000000000000000000000000000000000000000000000000000000000000000000000000000000000000000000000000000000000000000000000000000000000000000000000000000000000000000000000000000000000000000000000000000000000000000000000000000000000000000000000000000000000000000000000000000000000000000000000000000000000000000000000000000000000000000000000000000000000000000000000000000000000000000000000000",
          "type": "0x2",
          "transactionHash": "0x65d2dbef73ab53e8bdd8172beca9ab21dadf4be6e0fece2fb202d5e741cbcb7d",
          "transactionIndex": "0x0",
          "blockHash": "0xa6a25bb70bc35fd4b0e93c0c0d5ad307453dc909e6507636cea44039a66d269f",
          "blockNumber": "0x9b8",
          "gasUsed": "0x99170",
          "effectiveGasPrice": "0x8",
          "blobGasPrice": "0x1",
          "from": "0xf39fd6e51aad88f6f4ce6ab8827279cfffb92266",
          "to": null,
          "contractAddress": "0x5eb3bc0a489c5a8288765d2336659ebca68fcd00"
        },
        {
          "status": "0x1",
          "cumulativeGasUsed": "0xa39bf",
          "logs": [
            {
              "address": "0x4200000000000000000000000000000000000024",
              "topics": [
                "0xe1fffcc4923d04b559f4d29a8bfc6cda04eb5b0d3c460751c2402c5c5cc9109c",
                "0x000000000000000000000000f39fd6e51aad88f6f4ce6ab8827279cfffb92266"
              ],
              "data": "0x0000000000000000000000000000000000000000000000008ac7230489e80000",
              "blockHash": "0xa6a25bb70bc35fd4b0e93c0c0d5ad307453dc909e6507636cea44039a66d269f",
              "blockNumber": "0x9b8",
              "blockTimestamp": "0x67470014",
              "transactionHash": "0x0b287b05af5ec734950b4186baec46d355918b6b7fbdace5be1a21a7130c4013",
              "transactionIndex": "0x1",
              "logIndex": "0x0",
              "removed": false
            }
          ],
          "logsBloom": "0x00000000000000000000000000000000000000000000000000000000000000800000000000000000000000000000000000000000000000000000000000000000000000000000000000000000000000000000000000000000000000008000000000000000000000000000000100000000000000000000000000000000000000000000000000000000020000000004000000000001000000000000000000000000000000000000000000000000000000000000000000000000000000000000000000000000000000200000000000000000000000002000000000000000000000000000000000000000000000000000000000000000000000400000000000000000",
          "type": "0x2",
          "transactionHash": "0x0b287b05af5ec734950b4186baec46d355918b6b7fbdace5be1a21a7130c4013",
          "transactionIndex": "0x1",
          "blockHash": "0xa6a25bb70bc35fd4b0e93c0c0d5ad307453dc909e6507636cea44039a66d269f",
          "blockNumber": "0x9b8",
          "gasUsed": "0xa84f",
          "effectiveGasPrice": "0x8",
          "blobGasPrice": "0x1",
          "from": "0xf39fd6e51aad88f6f4ce6ab8827279cfffb92266",
          "to": "0x4200000000000000000000000000000000000024",
          "contractAddress": null
        }
      ],
      "libraries": [],
      "pending": [],
      "returns": {},
      "timestamp": 1732706323,
      "chain": 901,
      "commit": "8a335fb"
    },
    {
      "transactions": [
        {
          "hash": "0xb7ad59f7ff4890281d0a11c4c47e11c6efa02976d91186fcc0271de11c8bbe5b",
          "transactionType": "CREATE",
          "contractName": "SmartDisperse",
          "contractAddress": "0xb7f8bc63bbcad18155201308c8f3540b07f84f5e",
          "function": null,
          "arguments": null,
          "transaction": {
            "from": "0xf39fd6e51aad88f6f4ce6ab8827279cfffb92266",
            "gas": "0xc7044",
            "value": "0x0",
            "input": "0x60806040525f80546001600160a01b0319167342000000000000000000000000000000000000231790553480156033575f80fd5b506109f5806100415f395ff3fe608060405234801561000f575f80fd5b5060043610610034575f3560e01c8063afddb54514610038578063fefea5811461004d575b5f80fd5b61004b61004636600461065c565b610060565b005b61004b61005b3660046106f6565b610349565b5f546001600160a01b03163314610089576040516265d51560e41b815260040160405180910390fd5b5f546040805163071ffbc360e31b8152905130926001600160a01b0316916338ffde189160048083019260209291908290030181865afa1580156100cf573d5f803e3d5ffd5b505050506040513d601f19601f820116820180604052508101906100f3919061077c565b6001600160a01b03161461011a57604051635e11715560e11b815260040160405180910390fd5b5f6101546040518060400160405280601381526020017202932b1b2b4bb32b21036b2b9b9b0b3b2901d1606d1b81525083606001356105e8565b5f5b6101608380610797565b90508110156102a3576101766020840184610797565b82818110610186576101866107dd565b905060200201358261019891906107f1565b91505f6101ab6060850160408601610816565b6001600160a01b031663a9059cbb6101c38680610797565b858181106101d3576101d36107dd565b90506020020160208101906101e89190610816565b6101f56020880188610797565b86818110610205576102056107dd565b6040516001600160e01b031960e087901b1681526001600160a01b03909416600485015260200291909101356024830152506044016020604051808303815f875af1158015610256573d5f803e3d5ffd5b505050506040513d601f19601f8201168201806040525081019061027a9190610831565b90508061029a576040516312171d8360e31b815260040160405180910390fd5b50600101610156565b505f546040805163123ca23160e11b8152905146926001600160a01b03169163247944629160048083019260209291908290030181865afa1580156102ea573d5f803e3d5ffd5b505050506040513d601f19601f8201168201806040525081019061030e9190610850565b604051606085013581527f8d2fa7456103cc6e98a7598c430974c51363c67c6688f6b78e1b152a56f56e399060200160405180910390a35050565b8382146103955760405162461bcd60e51b8152602060048201526016602482015275082e4e4c2f2e640d8cadccee8d040dad2e6dac2e8c6d60531b604482015260640160405180910390fd5b5f805b838110156103ce578484828181106103b2576103b26107dd565b90506020020135826103c491906107f1565b9150600101610398565b506040516323b872dd60e01b8152336004820152306024820152604481018290525f906001600160a01b038416906323b872dd906064016020604051808303815f875af1158015610421573d5f803e3d5ffd5b505050506040513d601f19601f820116820180604052508101906104459190610831565b905080610465576040516312171d8360e31b815260040160405180910390fd5b6040805160a0602089028083018201909352608082018981525f9383928c918c918291908601908490808284375f9201919091525050509082525060408051602089810282810182019093528982529283019290918a918a9182918501908490808284375f9201829052509385525050506001600160a01b0380881660208401526040928301879052905491519293501690637056f41f908b903090819063afddb545906105179088906024016108a1565b60408051808303601f1901815291815260208201805160e094851b6001600160e01b03909116179052519186901b6001600160e01b0319168252610561949392509060040161096c565b6020604051808303815f875af115801561057d573d5f803e3d5ffd5b505050506040513d601f19601f820116820180604052508101906105a19190610850565b5088467f28c1960b85c2cea008c0b366ad2b9887b76699b377fb5071fb56afc6c09fe320856040516105d591815260200190565b60405180910390a3505050505050505050565b61062d82826040516024016105fe92919061099e565b60408051601f198184030181529190526020810180516001600160e01b0316632d839cb360e21b179052610631565b5050565b61063a8161063d565b50565b5f6a636f6e736f6c652e6c6f6790505f80835160208501845afa505050565b5f6020828403121561066c575f80fd5b813567ffffffffffffffff811115610682575f80fd5b820160808185031215610693575f80fd5b9392505050565b5f8083601f8401126106aa575f80fd5b50813567ffffffffffffffff8111156106c1575f80fd5b6020830191508360208260051b85010111156106db575f80fd5b9250929050565b6001600160a01b038116811461063a575f80fd5b5f805f805f806080878903121561070b575f80fd5b86359550602087013567ffffffffffffffff80821115610729575f80fd5b6107358a838b0161069a565b9097509550604089013591508082111561074d575f80fd5b5061075a89828a0161069a565b909450925050606087013561076e816106e2565b809150509295509295509295565b5f6020828403121561078c575f80fd5b8151610693816106e2565b5f808335601e198436030181126107ac575f80fd5b83018035915067ffffffffffffffff8211156107c6575f80fd5b6020019150600581901b36038213156106db575f80fd5b634e487b7160e01b5f52603260045260245ffd5b8082018082111561081057634e487b7160e01b5f52601160045260245ffd5b92915050565b5f60208284031215610826575f80fd5b8135610693816106e2565b5f60208284031215610841575f80fd5b81518015158114610693575f80fd5b5f60208284031215610860575f80fd5b5051919050565b5f815180845260208085019450602084015f5b838110156108965781518752958201959082019060010161087a565b509495945050505050565b60208082528251608083830152805160a084018190525f9291820190839060c08601905b808310156108ee5783516001600160a01b031682529284019260019290920191908401906108c5565b5092860151858403601f190160408701529261090a8185610867565b9350505050604084015161092960608501826001600160a01b03169052565b50606084015160808401528091505092915050565b5f81518084528060208401602086015e5f602082860101526020601f19601f83011685010191505092915050565b8381526001600160a01b03831660208201526060604082018190525f906109959083018461093e565b95945050505050565b604081525f6109b0604083018561093e565b9050826020830152939250505056fea2646970667358221220194d0e706034cc4a7f84d08f8996f9d877131fc0b4dc77cfe02ead0a8d64c7e464736f6c63430008190033",
            "nonce": "0xb",
            "chainId": "0x386"
          },
          "additionalContracts": [],
          "isFixedGasLimit": false
        }
      ],
      "receipts": [
        {
          "status": "0x1",
          "cumulativeGasUsed": "0x99170",
          "logs": [],
          "logsBloom": "0x00000000000000000000000000000000000000000000000000000000000000000000000000000000000000000000000000000000000000000000000000000000000000000000000000000000000000000000000000000000000000000000000000000000000000000000000000000000000000000000000000000000000000000000000000000000000000000000000000000000000000000000000000000000000000000000000000000000000000000000000000000000000000000000000000000000000000000000000000000000000000000000000000000000000000000000000000000000000000000000000000000000000000000000000000000000",
          "type": "0x2",
          "transactionHash": "0xb7ad59f7ff4890281d0a11c4c47e11c6efa02976d91186fcc0271de11c8bbe5b",
          "transactionIndex": "0x0",
          "blockHash": "0x9123fd43726552f8f1889ca239b3e88f25d2a928329e1946261b8d6747285dc4",
          "blockNumber": "0x9b9",
          "gasUsed": "0x99170",
          "effectiveGasPrice": "0x8",
          "blobGasPrice": "0x1",
          "from": "0xf39fd6e51aad88f6f4ce6ab8827279cfffb92266",
          "to": null,
          "contractAddress": "0xb7f8bc63bbcad18155201308c8f3540b07f84f5e"
        }
      ],
      "libraries": [],
      "pending": [],
      "returns": {},
      "timestamp": 1732706323,
      "chain": 902,
      "commit": "8a335fb"
    },
    {
      "transactions": [
        {
          "hash": "0x245f2217c1c89af9affe927cc4777f454726c05b7ccc7df726eb6d9a44f8f164",
          "transactionType": "CALL",
          "contractName": null,
          "contractAddress": "0x4200000000000000000000000000000000000024",
          "function": "approve(address,uint256)",
          "arguments": [
            "0x5eb3Bc0a489C5A8288765d2336659EbCA68FCd00",
            "3000000000000000000"
          ],
          "transaction": {
            "from": "0xf39fd6e51aad88f6f4ce6ab8827279cfffb92266",
            "to": "0x4200000000000000000000000000000000000024",
            "gas": "0x113c1",
            "value": "0x0",
            "input": "0x095ea7b30000000000000000000000005eb3bc0a489c5a8288765d2336659ebca68fcd0000000000000000000000000000000000000000000000000029a2241af62c0000",
            "nonce": "0x30",
            "chainId": "0x385"
          },
          "additionalContracts": [],
          "isFixedGasLimit": false
        },
        {
          "hash": "0x4fb4a54c9c4466a9939ea9cd1ee64fb19821818af6de8374254832266ef6c6b7",
          "transactionType": "CALL",
          "contractName": "SmartDisperse",
          "contractAddress": "0x5eb3bc0a489c5a8288765d2336659ebca68fcd00",
          "function": "transferTokensTo(uint256,address[],uint256[],address)",
          "arguments": [
            "902",
            "[0x70997970C51812dc3A010C7d01b50e0d17dc79C8, 0x3C44CdDdB6a900fa2b585dd299e03d12FA4293BC]",
            "[1000000000000000000, 2000000000000000000]",
            "0x4200000000000000000000000000000000000024"
          ],
          "transaction": {
            "from": "0xf39fd6e51aad88f6f4ce6ab8827279cfffb92266",
            "to": "0x5eb3bc0a489c5a8288765d2336659ebca68fcd00",
            "gas": "0x20157",
            "value": "0x0",
            "input": "0xfefea5810000000000000000000000000000000000000000000000000000000000000386000000000000000000000000000000000000000000000000000000000000008000000000000000000000000000000000000000000000000000000000000000e00000000000000000000000004200000000000000000000000000000000000024000000000000000000000000000000000000000000000000000000000000000200000000000000000000000070997970c51812dc3a010c7d01b50e0d17dc79c80000000000000000000000003c44cdddb6a900fa2b585dd299e03d12fa4293bc00000000000000000000000000000000000000000000000000000000000000020000000000000000000000000000000000000000000000000de0b6b3a76400000000000000000000000000000000000000000000000000001bc16d674ec80000",
            "nonce": "0x31",
            "chainId": "0x385"
          },
          "additionalContracts": [],
          "isFixedGasLimit": false
        }
      ],
      "receipts": [
        {
          "status": "0x1",
          "cumulativeGasUsed": "0xc7a5",
          "logs": [
            {
              "address": "0x4200000000000000000000000000000000000024",
              "topics": [
                "0x8c5be1e5ebec7d5bd14f71427d1e84f3dd0314c0f7b2291e5b200ac8c7c3b925",
                "0x000000000000000000000000f39fd6e51aad88f6f4ce6ab8827279cfffb92266",
                "0x0000000000000000000000005eb3bc0a489c5a8288765d2336659ebca68fcd00"
              ],
              "data": "0x00000000000000000000000000000000000000000000000029a2241af62c0000",
              "blockHash": "0x19ec4bfd8b0cc049a5dc2928e6e5241dd5dc72f2b5a23ee99a550a3ef213c7ee",
              "blockNumber": "0x9ba",
              "blockTimestamp": "0x67470018",
              "transactionHash": "0x245f2217c1c89af9affe927cc4777f454726c05b7ccc7df726eb6d9a44f8f164",
              "transactionIndex": "0x0",
              "logIndex": "0x0",
              "removed": false
            }
          ],
          "logsBloom": "0x00000000000000000000000000000000000000000000000000000000000000800000000000000000000000000000000000000000000000000000000000200000000000000000000000000000000000000000000000000000000000000000000000000000000000000000000100000000000000080000000000000000000000000000000000000000020000000004000000000000000000000000000000000000020000000000000000200000000000000000000000000000000000000000000000000000000000200000000000000000000000002000000000000000000000000010000000400000000000000000000000000000000000000000000000000000",
          "type": "0x2",
          "transactionHash": "0x245f2217c1c89af9affe927cc4777f454726c05b7ccc7df726eb6d9a44f8f164",
          "transactionIndex": "0x0",
          "blockHash": "0x19ec4bfd8b0cc049a5dc2928e6e5241dd5dc72f2b5a23ee99a550a3ef213c7ee",
          "blockNumber": "0x9ba",
          "gasUsed": "0xc7a5",
          "effectiveGasPrice": "0x8",
          "blobGasPrice": "0x1",
          "from": "0xf39fd6e51aad88f6f4ce6ab8827279cfffb92266",
          "to": "0x4200000000000000000000000000000000000024",
          "contractAddress": null
        },
        {
          "status": "0x1",
          "cumulativeGasUsed": "0x226a6",
          "logs": [
            {
              "address": "0x4200000000000000000000000000000000000024",
              "topics": [
                "0xddf252ad1be2c89b69c2b068fc378daa952ba7f163c4a11628f55a4df523b3ef",
                "0x000000000000000000000000f39fd6e51aad88f6f4ce6ab8827279cfffb92266",
                "0x0000000000000000000000005eb3bc0a489c5a8288765d2336659ebca68fcd00"
              ],
              "data": "0x00000000000000000000000000000000000000000000000029a2241af62c0000",
              "blockHash": "0x19ec4bfd8b0cc049a5dc2928e6e5241dd5dc72f2b5a23ee99a550a3ef213c7ee",
              "blockNumber": "0x9ba",
              "blockTimestamp": "0x67470018",
              "transactionHash": "0x4fb4a54c9c4466a9939ea9cd1ee64fb19821818af6de8374254832266ef6c6b7",
              "transactionIndex": "0x1",
              "logIndex": "0x1",
              "removed": false
            },
            {
              "address": "0x4200000000000000000000000000000000000023",
              "topics": [
                "0x382409ac69001e11931a28435afef442cbfd20d9891907e8fa373ba7d351f320",
                "0x0000000000000000000000000000000000000000000000000000000000000386",
                "0x0000000000000000000000005eb3bc0a489c5a8288765d2336659ebca68fcd00",
                "0x000000000000000000000000000000000000000000000000000000000000000c"
              ],
              "data": "0x0000000000000000000000005eb3bc0a489c5a8288765d2336659ebca68fcd0000000000000000000000000000000000000000000000000000000000000000400000000000000000000000000000000000000000000000000000000000000164afddb5450000000000000000000000000000000000000000000000000000000000000020000000000000000000000000000000000000000000000000000000000000008000000000000000000000000000000000000000000000000000000000000000e0000000000000000000000000420000000000000000000000000000000000002400000000000000000000000000000000000000000000000029a2241af62c0000000000000000000000000000000000000000000000000000000000000000000200000000000000000000000070997970c51812dc3a010c7d01b50e0d17dc79c80000000000000000000000003c44cdddb6a900fa2b585dd299e03d12fa4293bc00000000000000000000000000000000000000000000000000000000000000020000000000000000000000000000000000000000000000000de0b6b3a76400000000000000000000000000000000000000000000000000001bc16d674ec8000000000000000000000000000000000000000000000000000000000000",
              "blockHash": "0x19ec4bfd8b0cc049a5dc2928e6e5241dd5dc72f2b5a23ee99a550a3ef213c7ee",
              "blockNumber": "0x9ba",
              "blockTimestamp": "0x67470018",
              "transactionHash": "0x4fb4a54c9c4466a9939ea9cd1ee64fb19821818af6de8374254832266ef6c6b7",
              "transactionIndex": "0x1",
              "logIndex": "0x2",
              "removed": false
            },
            {
              "address": "0x5eb3bc0a489c5a8288765d2336659ebca68fcd00",
              "topics": [
                "0x28c1960b85c2cea008c0b366ad2b9887b76699b377fb5071fb56afc6c09fe320",
                "0x0000000000000000000000000000000000000000000000000000000000000385",
                "0x0000000000000000000000000000000000000000000000000000000000000386"
              ],
              "data": "0x00000000000000000000000000000000000000000000000029a2241af62c0000",
              "blockHash": "0x19ec4bfd8b0cc049a5dc2928e6e5241dd5dc72f2b5a23ee99a550a3ef213c7ee",
              "blockNumber": "0x9ba",
              "blockTimestamp": "0x67470018",
              "transactionHash": "0x4fb4a54c9c4466a9939ea9cd1ee64fb19821818af6de8374254832266ef6c6b7",
              "transactionIndex": "0x1",
              "logIndex": "0x3",
              "removed": false
            }
          ],
          "logsBloom": "0x20000000000000020000000000000008000002000000000000000000000000800000000000000200000000000000000000000000000040000008000000000000004000000000000002000008000000000000000000000100004000000000000000000000000000000040000100000000000000080000000000000010000000000000800000000000020000000004000000000000000000000000001000000000040000000000000000200002000000000000010000000000000000000000000000000002000000200000000000000000000000102000000000000000000000200000000000400000000000001800000000000000000000000000000000000000",
          "type": "0x2",
          "transactionHash": "0x4fb4a54c9c4466a9939ea9cd1ee64fb19821818af6de8374254832266ef6c6b7",
          "transactionIndex": "0x1",
          "blockHash": "0x19ec4bfd8b0cc049a5dc2928e6e5241dd5dc72f2b5a23ee99a550a3ef213c7ee",
          "blockNumber": "0x9ba",
          "gasUsed": "0x15f01",
          "effectiveGasPrice": "0x8",
          "blobGasPrice": "0x1",
          "from": "0xf39fd6e51aad88f6f4ce6ab8827279cfffb92266",
          "to": "0x5eb3bc0a489c5a8288765d2336659ebca68fcd00",
          "contractAddress": null
        }
      ],
      "libraries": [],
      "pending": [],
      "returns": {},
      "timestamp": 1732706323,
      "chain": 901,
      "commit": "8a335fb"
    }
  ],
  "timestamp": 1732706328
}